{
  "_format": "hh-sol-artifact-1",
  "contractName": "LdFunding",
  "sourceName": "contracts/modules/LdFunding.sol",
  "abi": [
    {
      "inputs": [
        {
          "internalType": "address",
          "name": "_coreContract",
          "type": "address"
        },
        {
          "internalType": "address",
          "name": "_admin",
          "type": "address"
        }
      ],
      "stateMutability": "nonpayable",
      "type": "constructor"
    },
    {
      "inputs": [],
      "name": "ETHTransferFailed",
      "type": "error"
    },
    {
      "inputs": [],
      "name": "FeesAlreadyClaimed",
      "type": "error"
    },
    {
      "inputs": [
        {
          "internalType": "uint256",
          "name": "programId",
          "type": "uint256"
        }
      ],
      "name": "InvalidProgramId",
      "type": "error"
    },
    {
      "inputs": [
        {
          "internalType": "uint256",
          "name": "projectId",
          "type": "uint256"
        }
      ],
      "name": "InvalidProjectId",
      "type": "error"
    },
    {
      "inputs": [
        {
          "internalType": "address",
          "name": "token",
          "type": "address"
        }
      ],
      "name": "InvalidToken",
      "type": "error"
    },
    {
      "inputs": [
        {
          "internalType": "uint256",
          "name": "totalInvestment",
          "type": "uint256"
        },
        {
          "internalType": "uint256",
          "name": "targetFunding",
          "type": "uint256"
        }
      ],
      "name": "InvestmentExceedsTarget",
      "type": "error"
    },
    {
      "inputs": [
        {
          "internalType": "string",
          "name": "reason",
          "type": "string"
        }
      ],
      "name": "InvestmentNotEligible",
      "type": "error"
    },
    {
      "inputs": [
        {
          "internalType": "uint256",
          "name": "amount",
          "type": "uint256"
        },
        {
          "internalType": "uint256",
          "name": "minimum",
          "type": "uint256"
        }
      ],
      "name": "InvestmentTooSmall",
      "type": "error"
    },
    {
      "inputs": [],
      "name": "NoFeesToClaim",
      "type": "error"
    },
    {
      "inputs": [
        {
          "internalType": "address",
          "name": "investor",
          "type": "address"
        }
      ],
      "name": "NoInvestmentFound",
      "type": "error"
    },
    {
      "inputs": [
        {
          "internalType": "address",
          "name": "caller",
          "type": "address"
        }
      ],
      "name": "NotAuthorized",
      "type": "error"
    },
    {
      "inputs": [
        {
          "internalType": "address",
          "name": "caller",
          "type": "address"
        }
      ],
      "name": "NotProgramHost",
      "type": "error"
    },
    {
      "inputs": [
        {
          "internalType": "string",
          "name": "reason",
          "type": "string"
        }
      ],
      "name": "ReclaimNotEligible",
      "type": "error"
    },
    {
      "inputs": [],
      "name": "ZeroAddress",
      "type": "error"
    },
    {
      "anonymous": false,
      "inputs": [
        {
          "indexed": true,
          "internalType": "uint256",
          "name": "programId",
          "type": "uint256"
        },
        {
          "indexed": true,
          "internalType": "address",
          "name": "host",
          "type": "address"
        },
        {
          "indexed": false,
          "internalType": "uint256",
          "name": "amount",
          "type": "uint256"
        },
        {
          "indexed": false,
          "internalType": "address",
          "name": "token",
          "type": "address"
        }
      ],
      "name": "FeeClaimed",
      "type": "event"
    },
    {
      "anonymous": false,
      "inputs": [
        {
          "indexed": true,
          "internalType": "uint256",
          "name": "projectId",
          "type": "uint256"
        },
        {
          "indexed": true,
          "internalType": "address",
          "name": "supporter",
          "type": "address"
        },
        {
          "indexed": false,
          "internalType": "uint256",
          "name": "amount",
          "type": "uint256"
        },
        {
          "indexed": false,
          "internalType": "address",
          "name": "token",
          "type": "address"
        }
      ],
      "name": "FundInvested",
      "type": "event"
    },
    {
      "anonymous": false,
      "inputs": [
        {
          "indexed": true,
          "internalType": "uint256",
          "name": "projectId",
          "type": "uint256"
        },
        {
          "indexed": true,
          "internalType": "address",
          "name": "owner",
          "type": "address"
        },
        {
          "indexed": false,
          "internalType": "uint256",
          "name": "amount",
          "type": "uint256"
        },
        {
          "indexed": false,
          "internalType": "address",
          "name": "token",
          "type": "address"
        }
      ],
      "name": "FundReclaimed",
      "type": "event"
    },
    {
      "anonymous": false,
      "inputs": [
        {
          "indexed": true,
          "internalType": "uint256",
          "name": "projectId",
          "type": "uint256"
        },
        {
          "indexed": true,
          "internalType": "address",
          "name": "supporter",
          "type": "address"
        },
        {
          "indexed": false,
          "internalType": "uint256",
          "name": "amount",
          "type": "uint256"
        }
      ],
      "name": "InvestmentProcessed",
      "type": "event"
    },
    {
      "anonymous": false,
      "inputs": [
        {
          "indexed": true,
          "internalType": "uint256",
          "name": "projectId",
          "type": "uint256"
        },
        {
          "indexed": true,
          "internalType": "address",
          "name": "supporter",
          "type": "address"
        },
        {
          "indexed": false,
          "internalType": "uint256",
          "name": "amount",
          "type": "uint256"
        },
        {
          "indexed": false,
          "internalType": "address",
          "name": "token",
          "type": "address"
        }
      ],
      "name": "InvestmentWithdrawn",
      "type": "event"
    },
    {
      "anonymous": false,
      "inputs": [
        {
          "indexed": true,
          "internalType": "uint256",
          "name": "projectId",
          "type": "uint256"
        },
        {
          "indexed": true,
          "internalType": "uint256",
          "name": "milestoneIndex",
          "type": "uint256"
        },
        {
          "indexed": false,
          "internalType": "uint256",
          "name": "amount",
          "type": "uint256"
        },
        {
          "indexed": false,
          "internalType": "address",
          "name": "recipient",
          "type": "address"
        }
      ],
      "name": "MilestonePayoutExecuted",
      "type": "event"
    },
    {
      "anonymous": false,
      "inputs": [
        {
          "indexed": false,
          "internalType": "address",
          "name": "account",
          "type": "address"
        }
      ],
      "name": "Paused",
      "type": "event"
    },
    {
      "anonymous": false,
      "inputs": [
        {
          "indexed": true,
          "internalType": "bytes32",
          "name": "role",
          "type": "bytes32"
        },
        {
          "indexed": true,
          "internalType": "bytes32",
          "name": "previousAdminRole",
          "type": "bytes32"
        },
        {
          "indexed": true,
          "internalType": "bytes32",
          "name": "newAdminRole",
          "type": "bytes32"
        }
      ],
      "name": "RoleAdminChanged",
      "type": "event"
    },
    {
      "anonymous": false,
      "inputs": [
        {
          "indexed": true,
          "internalType": "bytes32",
          "name": "role",
          "type": "bytes32"
        },
        {
          "indexed": true,
          "internalType": "address",
          "name": "account",
          "type": "address"
        },
        {
          "indexed": true,
          "internalType": "address",
          "name": "sender",
          "type": "address"
        }
      ],
      "name": "RoleGranted",
      "type": "event"
    },
    {
      "anonymous": false,
      "inputs": [
        {
          "indexed": true,
          "internalType": "bytes32",
          "name": "role",
          "type": "bytes32"
        },
        {
          "indexed": true,
          "internalType": "address",
          "name": "account",
          "type": "address"
        },
        {
          "indexed": true,
          "internalType": "address",
          "name": "sender",
          "type": "address"
        }
      ],
      "name": "RoleRevoked",
      "type": "event"
    },
    {
      "anonymous": false,
      "inputs": [
        {
          "indexed": true,
          "internalType": "uint256",
          "name": "projectId",
          "type": "uint256"
        },
        {
          "indexed": true,
          "internalType": "address",
          "name": "supporter",
          "type": "address"
        },
        {
          "indexed": false,
          "internalType": "uint256",
          "name": "termId",
          "type": "uint256"
        },
        {
          "indexed": false,
          "internalType": "uint256",
          "name": "amount",
          "type": "uint256"
        }
      ],
      "name": "TermBenefitsClaimed",
      "type": "event"
    },
    {
      "anonymous": false,
      "inputs": [
        {
          "indexed": false,
          "internalType": "address",
          "name": "account",
          "type": "address"
        }
      ],
      "name": "Unpaused",
      "type": "event"
    },
    {
      "inputs": [],
      "name": "ADMIN_ROLE",
      "outputs": [
        {
          "internalType": "bytes32",
          "name": "",
          "type": "bytes32"
        }
      ],
      "stateMutability": "view",
      "type": "function"
    },
    {
      "inputs": [],
      "name": "CORE_CONTRACT_ROLE",
      "outputs": [
        {
          "internalType": "bytes32",
          "name": "",
          "type": "bytes32"
        }
      ],
      "stateMutability": "view",
      "type": "function"
    },
    {
      "inputs": [],
      "name": "DEFAULT_ADMIN_ROLE",
      "outputs": [
        {
          "internalType": "bytes32",
          "name": "",
          "type": "bytes32"
        }
      ],
      "stateMutability": "view",
      "type": "function"
    },
    {
      "inputs": [],
      "name": "ETH_ADDRESS",
      "outputs": [
        {
          "internalType": "address",
          "name": "",
          "type": "address"
        }
      ],
      "stateMutability": "view",
      "type": "function"
    },
    {
      "inputs": [],
      "name": "MILESTONE_MANAGER_ROLE",
      "outputs": [
        {
          "internalType": "bytes32",
          "name": "",
          "type": "bytes32"
        }
      ],
      "stateMutability": "view",
      "type": "function"
    },
    {
      "inputs": [],
      "name": "MIN_INVESTMENT_AMOUNT",
      "outputs": [
        {
          "internalType": "uint256",
          "name": "",
          "type": "uint256"
        }
      ],
      "stateMutability": "view",
      "type": "function"
    },
    {
      "inputs": [],
      "name": "PERCENTAGE_BASIS_POINTS",
      "outputs": [
        {
          "internalType": "uint16",
          "name": "",
          "type": "uint16"
        }
      ],
      "stateMutability": "view",
      "type": "function"
    },
    {
      "inputs": [
        {
          "internalType": "uint256",
          "name": "",
          "type": "uint256"
        }
      ],
      "name": "accumulatedFees",
      "outputs": [
        {
          "internalType": "uint256",
          "name": "",
          "type": "uint256"
        }
      ],
      "stateMutability": "view",
      "type": "function"
    },
    {
      "inputs": [
        {
          "internalType": "uint256",
          "name": "_programId",
          "type": "uint256"
        }
      ],
      "name": "areFeesClaimedForProgram",
      "outputs": [
        {
          "internalType": "bool",
          "name": "",
          "type": "bool"
        }
      ],
      "stateMutability": "view",
      "type": "function"
    },
    {
      "inputs": [
        {
          "internalType": "uint256",
          "name": "_projectId",
          "type": "uint256"
        },
        {
          "internalType": "uint256",
          "name": "_termId",
          "type": "uint256"
        }
      ],
      "name": "claimTermBenefits",
      "outputs": [],
      "stateMutability": "nonpayable",
      "type": "function"
    },
    {
      "inputs": [],
      "name": "coreContract",
      "outputs": [
        {
          "internalType": "contract ILdInvestmentCore",
          "name": "",
          "type": "address"
        }
      ],
      "stateMutability": "view",
      "type": "function"
    },
    {
      "inputs": [
        {
          "internalType": "address",
          "name": "_token",
          "type": "address"
        },
        {
          "internalType": "uint256",
          "name": "_amount",
          "type": "uint256"
        }
      ],
      "name": "emergencyWithdraw",
      "outputs": [],
      "stateMutability": "nonpayable",
      "type": "function"
    },
    {
      "inputs": [
        {
          "internalType": "uint256",
          "name": "_projectId",
          "type": "uint256"
        },
        {
          "internalType": "uint256",
          "name": "_milestoneIndex",
          "type": "uint256"
        },
        {
          "internalType": "uint256",
          "name": "_payoutAmount",
          "type": "uint256"
        },
        {
          "internalType": "address",
          "name": "_recipient",
          "type": "address"
        }
      ],
      "name": "executeMilestonePayout",
      "outputs": [],
      "stateMutability": "nonpayable",
      "type": "function"
    },
    {
      "inputs": [
        {
          "internalType": "uint256",
          "name": "_programId",
          "type": "uint256"
        }
      ],
      "name": "feeClaim",
      "outputs": [],
      "stateMutability": "nonpayable",
      "type": "function"
    },
    {
      "inputs": [
        {
          "internalType": "uint256",
          "name": "",
          "type": "uint256"
        }
      ],
      "name": "feesClaimed",
      "outputs": [
        {
          "internalType": "bool",
          "name": "",
          "type": "bool"
        }
      ],
      "stateMutability": "view",
      "type": "function"
    },
    {
      "inputs": [
        {
          "internalType": "uint256",
          "name": "_programId",
          "type": "uint256"
        }
      ],
      "name": "getAccumulatedFees",
      "outputs": [
        {
          "internalType": "uint256",
          "name": "",
          "type": "uint256"
        }
      ],
      "stateMutability": "view",
      "type": "function"
    },
    {
      "inputs": [
        {
          "internalType": "uint256",
          "name": "_projectId",
          "type": "uint256"
        },
        {
          "internalType": "address",
          "name": "_supporter",
          "type": "address"
        }
      ],
      "name": "getInvestmentAmount",
      "outputs": [
        {
          "internalType": "uint256",
          "name": "",
          "type": "uint256"
        }
      ],
      "stateMutability": "view",
      "type": "function"
    },
    {
      "inputs": [
        {
          "internalType": "uint256",
          "name": "_projectId",
          "type": "uint256"
        }
      ],
      "name": "getProjectSupporters",
      "outputs": [
        {
          "internalType": "address[]",
          "name": "",
          "type": "address[]"
        }
      ],
      "stateMutability": "view",
      "type": "function"
    },
    {
      "inputs": [
        {
          "internalType": "bytes32",
          "name": "role",
          "type": "bytes32"
        }
      ],
      "name": "getRoleAdmin",
      "outputs": [
        {
          "internalType": "bytes32",
          "name": "",
          "type": "bytes32"
        }
      ],
      "stateMutability": "view",
      "type": "function"
    },
    {
      "inputs": [
        {
          "internalType": "uint256",
          "name": "_projectId",
          "type": "uint256"
        }
      ],
      "name": "getSupporterCount",
      "outputs": [
        {
          "internalType": "uint256",
          "name": "",
          "type": "uint256"
        }
      ],
      "stateMutability": "view",
      "type": "function"
    },
    {
      "inputs": [
        {
          "internalType": "uint256",
          "name": "_projectId",
          "type": "uint256"
        }
      ],
      "name": "getTotalInvestment",
      "outputs": [
        {
          "internalType": "uint256",
          "name": "",
          "type": "uint256"
        }
      ],
      "stateMutability": "view",
      "type": "function"
    },
    {
      "inputs": [
        {
          "internalType": "bytes32",
          "name": "role",
          "type": "bytes32"
        },
        {
          "internalType": "address",
          "name": "account",
          "type": "address"
        }
      ],
      "name": "grantRole",
      "outputs": [],
      "stateMutability": "nonpayable",
      "type": "function"
    },
    {
      "inputs": [
        {
          "internalType": "bytes32",
          "name": "role",
          "type": "bytes32"
        },
        {
          "internalType": "address",
          "name": "account",
          "type": "address"
        }
      ],
      "name": "hasRole",
      "outputs": [
        {
          "internalType": "bool",
          "name": "",
          "type": "bool"
        }
      ],
      "stateMutability": "view",
      "type": "function"
    },
    {
      "inputs": [
        {
          "internalType": "uint256",
          "name": "_projectId",
          "type": "uint256"
        }
      ],
      "name": "investFund",
      "outputs": [],
      "stateMutability": "payable",
      "type": "function"
    },
    {
      "inputs": [
        {
          "internalType": "uint256",
          "name": "_projectId",
          "type": "uint256"
        },
        {
          "internalType": "uint256",
          "name": "_amount",
          "type": "uint256"
        }
      ],
      "name": "investWithToken",
      "outputs": [],
      "stateMutability": "nonpayable",
      "type": "function"
    },
    {
      "inputs": [
        {
          "internalType": "uint256",
          "name": "",
          "type": "uint256"
        },
        {
          "internalType": "address",
          "name": "",
          "type": "address"
        }
      ],
      "name": "isProjectSupporter",
      "outputs": [
        {
          "internalType": "bool",
          "name": "",
          "type": "bool"
        }
      ],
      "stateMutability": "view",
      "type": "function"
    },
    {
      "inputs": [
        {
          "internalType": "uint256",
          "name": "_projectId",
          "type": "uint256"
        },
        {
          "internalType": "address",
          "name": "_user",
          "type": "address"
        },
        {
          "internalType": "uint256",
          "name": "_amount",
          "type": "uint256"
        }
      ],
      "name": "isUserEligibleToInvest",
      "outputs": [
        {
          "internalType": "bool",
          "name": "eligible",
          "type": "bool"
        },
        {
          "internalType": "string",
          "name": "reason",
          "type": "string"
        }
      ],
      "stateMutability": "view",
      "type": "function"
    },
    {
      "inputs": [],
      "name": "milestoneManager",
      "outputs": [
        {
          "internalType": "contract ILdMilestoneManager",
          "name": "",
          "type": "address"
        }
      ],
      "stateMutability": "view",
      "type": "function"
    },
    {
      "inputs": [],
      "name": "pause",
      "outputs": [],
      "stateMutability": "nonpayable",
      "type": "function"
    },
    {
      "inputs": [],
      "name": "paused",
      "outputs": [
        {
          "internalType": "bool",
          "name": "",
          "type": "bool"
        }
      ],
      "stateMutability": "view",
      "type": "function"
    },
    {
      "inputs": [
        {
          "internalType": "uint256",
          "name": "",
          "type": "uint256"
        },
        {
          "internalType": "address",
          "name": "",
          "type": "address"
        }
      ],
      "name": "projectInvestments",
      "outputs": [
        {
          "internalType": "uint256",
          "name": "",
          "type": "uint256"
        }
      ],
      "stateMutability": "view",
      "type": "function"
    },
    {
      "inputs": [
        {
          "internalType": "uint256",
          "name": "",
          "type": "uint256"
        },
        {
          "internalType": "uint256",
          "name": "",
          "type": "uint256"
        }
      ],
      "name": "projectSupporters",
      "outputs": [
        {
          "internalType": "address",
          "name": "",
          "type": "address"
        }
      ],
      "stateMutability": "view",
      "type": "function"
    },
    {
      "inputs": [
        {
          "internalType": "uint256",
          "name": "_projectId",
          "type": "uint256"
        }
      ],
      "name": "reclaimFund",
      "outputs": [],
      "stateMutability": "nonpayable",
      "type": "function"
    },
    {
      "inputs": [
        {
          "internalType": "bytes32",
          "name": "role",
          "type": "bytes32"
        },
        {
          "internalType": "address",
          "name": "account",
          "type": "address"
        }
      ],
      "name": "renounceRole",
      "outputs": [],
      "stateMutability": "nonpayable",
      "type": "function"
    },
    {
      "inputs": [
        {
          "internalType": "bytes32",
          "name": "role",
          "type": "bytes32"
        },
        {
          "internalType": "address",
          "name": "account",
          "type": "address"
        }
      ],
      "name": "revokeRole",
      "outputs": [],
      "stateMutability": "nonpayable",
      "type": "function"
    },
    {
      "inputs": [
        {
          "internalType": "address",
          "name": "_milestoneManager",
          "type": "address"
        }
      ],
      "name": "setMilestoneManager",
      "outputs": [],
      "stateMutability": "nonpayable",
      "type": "function"
    },
    {
      "inputs": [
        {
          "internalType": "bytes4",
          "name": "interfaceId",
          "type": "bytes4"
        }
      ],
      "name": "supportsInterface",
      "outputs": [
        {
          "internalType": "bool",
          "name": "",
          "type": "bool"
        }
      ],
      "stateMutability": "view",
      "type": "function"
    },
    {
      "inputs": [
        {
          "internalType": "uint256",
          "name": "",
          "type": "uint256"
        }
      ],
      "name": "totalProjectInvestments",
      "outputs": [
        {
          "internalType": "uint256",
          "name": "",
          "type": "uint256"
        }
      ],
      "stateMutability": "view",
      "type": "function"
    },
    {
      "inputs": [],
      "name": "unpause",
      "outputs": [],
      "stateMutability": "nonpayable",
      "type": "function"
    },
    {
      "stateMutability": "payable",
      "type": "receive"
    }
  ],
  "bytecode": "0x60a0346200026c576200300190601f38839003908101601f19168201906001600160401b038211838310176200027157808391604095869485528339810103126200026c576200004f8162000287565b906200005f602080920162000287565b600180556002805460ff199081169091556001600160a01b0393841692918315801562000261575b620002505783608052600094858052858452868620911690818652835260ff8686205416156200021a575b7fa49807205ce4d355092ef5a8a18f56e8913cf4a201fbe287825b095693c2177590818652858452868620818752845260ff878720541615620001e3575b50507f642c46ab335d3b181002a9ff7422458ab758616f830ebcce9faed69a65e8dbc191828552848152858520848652815260ff868620541615620001aa575b8551612d4490816200029d8239608051818181610221015281816104cc015281816107dc0152818161083001528181610b1b01528181610bed01528181610cb001528181610f3f015281816110cf0152818161148d015281816116ce015281816118c501528181611b03015281816128040152612b340152f35b828552848152858520908486525260018585209182541617905560008051602062002fe1833981519152339380a4388080808062000130565b8186528584528686208187528452868620600184825416179055339160008051602062002fe18339815191528780a43880620000f0565b848052848352858520818652835285852060018382541617905533818660008051602062002fe18339815191528180a4620000b2565b855163d92e233d60e01b8152600490fd5b508481161562000087565b600080fd5b634e487b7160e01b600052604160045260246000fd5b51906001600160a01b03821682036200026c5756fe60806040818152600480361015610021575b505050361561001f57600080fd5b005b600092833560e01c90816301ffc9a714611d34575080630b7d662f14611d07578063128baa8314611ceb5780631cc241c114611cc45780631cc2c94f14611c7e578063219226ea14611c35578063248a9ca314611c0c57806329b2800814611ad05780632d58b48214611a955780632ea7ca0b146119ea5780632f2ff15d1461194257806334422a471461189957806336568abe146118075780633f4ba83a14611772578063478ced0c146116a35780635729a4311461145e5780635c975abb1461143a57806375b238fc146113ff5780637bbb33eb146113c45780638456cb59146113695780638c1508c0146110a557806391d148541461106057806395ccea6714610ff35780639b21496b14610fd6578063a217fddf14610ef8578063a30a091414610f13578063a734f06e14610ef8578063a94ada9f14610ead578063b1dceffd14610c8e578063b85db0b014610bc1578063bb7e385a14610adb578063c14e565614610a9b578063d287a9c414610a6f578063d547741f14610a32578063d6c05ca014610a0c578063e59efadb1461080f578063e80db5db146107c7578063ec3c481a1461049e5763fde6e7df03610011573461049a57608036600319011261049a576044359181359160643591906001600160a01b038084168403610476578060025460081c16330361048357825163e935b7b160e01b81527f0000000000000000000000000000000000000000000000000000000000000000821691906020818581865afa9081156103f357899161044d575b508610156104365761026a612495565b87845192635f8439e360e01b845287858501528184602481845afa93841561042c5782946103fd575b5090602491865192838092639b46c80160e01b825287898301525afa9081156103f35789908a926103c3575b508089029089820414891517156103ae576127106102df91048099612743565b9788938a5260076020526102f7868b20918254612242565b9055168061037657508680808093875af161031061267a565b501561036857507f85474388858f2d9d65a1caa0c8bb699402e0d75d2d2538eb2a3bf2a6d9fde47d9161035e915b519485526001600160a01b03166020850152602435939081906040820190565b0390a36001805580f35b905163b12d13eb60e01b8152fd5b84925061035e93917f85474388858f2d9d65a1caa0c8bb699402e0d75d2d2538eb2a3bf2a6d9fde47d956103a992612750565b61033e565b601185634e487b7160e01b6000525260246000fd5b90506103e191503d808b833e6103d981836121ad565b8101906124f8565b509950509650505050505050386102bf565b85513d8b823e3d90fd5b60249291945061041e903d8084833e61041681836121ad565b8101906123f8565b945050505050939091610293565b86513d84823e3d90fd5b8351633223e66d60e21b8152808401879052602490fd5b90506020813d821161047b575b81610467602093836121ad565b8101031261047657513861025a565b600080fd5b3d915061045a565b506024915190634a0bfec160e01b82523390820152fd5b8280fd5b50903461049a57602091826003193601126107c357815163e935b7b160e01b81528135926001600160a01b037f0000000000000000000000000000000000000000000000000000000000000000811693919286818481885afa9081156106bf578891610796575b5085101561078057610515612495565b61051d612451565b848752600386528287203360005286528260002054156107695782516302078c9360e21b81528281018681523360208201529096908890889081906040010381885afa9687156106bf578889918a9961070e575b50156106e95750878451635f8439e360e01b8152878582015281816024818a5afa90811561042c5782916106c9575b506024865180988193639b46c80160e01b8352888301525afa9485156106bf57908792918996610695575b508390878a5260038152858a20336000528152898660002055878a52528388206105f6838254612743565b905584168061065c57508680808093335af161061061267a565b501561036857507fbfd5ba643390eb36af968f3419bf637fbdb20ca590eb4d63657b6ade15244ae09161035e915b519485526001600160a01b0316602085015233939081906040820190565b7fbfd5ba643390eb36af968f3419bf637fbdb20ca590eb4d63657b6ade15244ae094925061035e9391610690913390612750565b61063e565b849196506106ac903d808c833e6103d981836121ad565b50995050505050505050505095906105cb565b84513d8a823e3d90fd5b6106dd91503d8084833e61041681836121ad565b945050505050386105a0565b61070a84918651938493635064301360e01b85528401526024830190611e1b565b0390fd5b985050503d8089893e61072181896121ad565b870160608882031261076557610736886124eb565b90828901516001600160401b038111610761578691610756918b0161239f565b980151979038610571565b8a80fd5b8880fd5b506024915190630a18bdfb60e41b82523390820152fd5b50836024925191633223e66d60e21b8352820152fd5b90508681813d83116107bc575b6107ad81836121ad565b81010312610476575138610505565b503d6107a3565b8380fd5b50503461080b578160031936011261080b57517f00000000000000000000000000000000000000000000000000000000000000006001600160a01b03168152602090f35b5080fd5b50602091826003193601126107c357805163e935b7b160e01b8152823592907f00000000000000000000000000000000000000000000000000000000000000006001600160a01b03169085818481855afa908115610a025787916109d5575b508410156109bf5761087e612495565b610886612451565b600134106109a157610899343386612b1a565b901561097f575085602491845192838092635f8439e360e01b825288878301525afa908115610975578691610955575b50838652818552806108de3485892054612242565b116109275750507f3536c44f9d1363555fd4788fe4943641e1a18a37be074124e76fb9fdc08480dc90610912343385612bd9565b60008151943486528501523393a36001805580f35b60449261093e878488888352528234912054612242565b90516323fbc2c560e21b8152928301526024820152fd5b61096991503d8088833e61041681836121ad565b505050915050386108c9565b83513d88823e3d90fd5b61070a915085935193849363153c499160e31b85528401526024830190611e1b565b50604491519063d29d4e3360e01b8252349082015260016024820152fd5b50826024925191633223e66d60e21b8352820152fd5b90508581813d83116109fb575b6109ec81836121ad565b8101031261047657513861086e565b503d6109e2565b84513d89823e3d90fd5b503461049a57602036600319011261049a57602092818392358252845220549051908152f35b50903461049a578060031936011261049a57610a6c9135610a676001610a56611d88565b938387528660205286200154612057565b6121ce565b80f35b503461049a57602036600319011261049a578160209360ff923581526008855220541690519015158152f35b503461049a578160031936011261049a5781602093610ab8611d88565b9235815260038552209060018060a01b0316600052825280600020549051908152f35b509134610bbe5781600319360112610bbe578235610af7611d88565b835163e935b7b160e01b815260209591936001600160a01b039390929091878183817f000000000000000000000000000000000000000000000000000000000000000089165afa908115610bb4578491610b87575b50821015610b725750908491815260038652209116600052825280600020549051908152f35b602491865191633223e66d60e21b8352820152fd5b90508781813d8311610bad575b610b9e81836121ad565b81010312610476575138610b4c565b503d610b94565b87513d86823e3d90fd5b80fd5b5091903461080b5760209182600319360112610bbe578151630ba71b3360e41b815284359490848183817f00000000000000000000000000000000000000000000000000000000000000006001600160a01b03165afa908115610c84578391610c57575b50851015610c40575081929381526007845220549051908152f35b82516398c5e0e760e01b8152908101859052602490fd5b90508481813d8311610c7d575b610c6e81836121ad565b81010312610476575138610c25565b503d610c64565b84513d85823e3d90fd5b5091903461080b57610c9f36611db4565b825163e935b7b160e01b81529092907f00000000000000000000000000000000000000000000000000000000000000006001600160a01b03169060209081818981865afa908115610a02578791610e80575b50841015610e6957610d01612495565b83865260038152828620338752815282862054918215610e53578351633f4e6bd560e21b815285898201528660248201528360448201523360648201528781608481855afa908115610e495788908992610e24575b5015610e015750803b15610dfd57868560648a8388519586948593631df8fd3560e11b85528401528b60248401523360448401525af18015610a0257610dcd575b50825194855284015233927fa86bbdb0673a85c0da233aa0c2957a978afdb432af2ce999022049cbbc870f329190a36001805580f35b6001600160401b038197929711610dea5783529495508538610d97565b634e487b7160e01b825260418852602482fd5b8680fd5b845163153c499160e31b8152808a0184905290819061070a906024830190611e1b565b9050610e4291503d808a833e610e3a81836121ad565b8101906127a1565b9038610d56565b85513d8a823e3d90fd5b8351630a18bdfb60e41b815233818a0152602490fd5b8251633223e66d60e21b8152808801859052602490fd5b90508181813d8311610ea6575b610e9781836121ad565b81010312610dfd575138610cf1565b503d610e8d565b508234610bbe576060366003190112610bbe5750610eda610ef491610ed0611d88565b6044359135612b1a565b839291925193849315158452806020850152830190611e1b565b0390f35b50503461080b578160031936011261080b5751908152602090f35b5091903461080b5760209182600319360112610bbe57815163e935b7b160e01b815284359490848183817f00000000000000000000000000000000000000000000000000000000000000006001600160a01b03165afa908115610c84578391610fa9575b50851015610f92575081929381526005845220549051908152f35b8251633223e66d60e21b8152908101859052602490fd5b90508481813d8311610fcf575b610fc081836121ad565b8101031261049a575138610f77565b503d610fb6565b50503461080b578160031936011261080b57602090516127108152f35b50903461049a578060031936011261049a578261100e611d9e565b6024359061101a611e40565b6001600160a01b031680611050575081808092335af161103861267a565b501561104357505080f35b5163b12d13eb60e01b8152fd5b91509150610a6c92503390612750565b503461049a578160031936011261049a578160209360ff92611080611d88565b903582528186528282206001600160a01b039091168252855220549151911615158152f35b50903461049a576110b536611db4565b825163e935b7b160e01b8152909391926001600160a01b037f000000000000000000000000000000000000000000000000000000000000000081169391926020929083818381895afa9081156103f357899161133c575b508610156113255761111c612495565b611124612451565b6001871061130757611137873388612b1a565b90156112e557508351635f8439e360e01b81528181018790529160249089808584818b5afa80156112d957819582916112b4575b50838851809a8193639b46c80160e01b8352888301525afa9687156112aa578a97611282575b50861692831561126e57878a52828552806111af8a888d2054612242565b1161124157508451936323b872dd60e01b9085015233818501523060448501528760648501526064845260a08401918483106001600160401b038411176112305750507f3536c44f9d1363555fd4788fe4943641e1a18a37be074124e76fb9fdc08480dc949284926112259261035e965261258d565b61063e863387612bd9565b634e487b7160e01b8a526041905288fd5b8291866112598b828e6044988b8f8352522054612242565b90516323fbc2c560e21b815293840152820152fd5b509184519163961c9a4f60e01b8352820152fd5b6112979197503d808c833e6103d981836121ad565b5099505050505050505050509538611191565b86513d8c823e3d90fd5b90506112cb9195503d8087833e61041681836121ad565b98945050509050943861116b565b508651903d90823e3d90fd5b61070a919250845193849363153c499160e31b85528401526024830190611e1b565b835163d29d4e3360e01b815290810187905260016024820152604490fd5b8351633223e66d60e21b8152908101869052602490fd5b90508381813d8311611362575b61135381836121ad565b8101031261076557513861110c565b503d611349565b50503461080b578160031936011261080b5760207f62e78cea01bee320cd4e420270b5ea74000d11b0c9f74754ebdbfc544b05a258916113a7611e40565b6113af612451565b600160ff19600254161760025551338152a180f35b50503461080b578160031936011261080b57602090517f642c46ab335d3b181002a9ff7422458ab758616f830ebcce9faed69a65e8dbc18152f35b50503461080b578160031936011261080b57602090517fa49807205ce4d355092ef5a8a18f56e8913cf4a201fbe287825b095693c217758152f35b50503461080b578160031936011261080b5760209060ff6002541690519015158152f35b50903461049a576020806003193601126107c3578151630ba71b3360e41b81526001600160a01b0393803593917f000000000000000000000000000000000000000000000000000000000000000086169084818481855afa9081156106bf578891611672575b5085101561165c57908660249493926114db612495565b835195868092639b46c80160e01b825289868301525afa9384156116525787908895611629575b508681169687330361161357868952600785528389205494851561160357878a526008815260ff858b2054166115f357878a5260088152848a20805460ff19166001179055600790528389208990558891908616806115b8575081808681935af161156b61267a565b501561036857509061035e7fb7267cb631c14267d34a703e9a05eb8b0e4aa7320cdfcf36cac0c81f6ca19a0493925b519182526001600160a01b0390921660208201529081906040820190565b61035e935085949250946115ee917fb7267cb631c14267d34a703e9a05eb8b0e4aa7320cdfcf36cac0c81f6ca19a049796612750565b61159a565b84516308b43d4560e31b81528490fd5b845163211b631760e21b81528490fd5b83516372ca7f3760e11b81523381850152602490fd5b90506116409194503d8089833e6103d981836121ad565b509c9950505050505050505038611502565b82513d89823e3d90fd5b508360249251916398c5e0e760e01b8352820152fd5b90508481813d831161169c575b61168981836121ad565b810103126116985751386114c4565b8780fd5b503d61167f565b509134610bbe576020928360031936011261080b578251630ba71b3360e41b815281359190858183817f00000000000000000000000000000000000000000000000000000000000000006001600160a01b03165afa90811561176857849161173b575b50821015611726575081839160ff93526008855220541690519015158152f35b6024918451916398c5e0e760e01b8352820152fd5b90508581813d8311611761575b61175281836121ad565b810103126107c3575138611706565b503d611748565b85513d86823e3d90fd5b503461049a578260031936011261049a5761178b611e40565b6002549060ff8216156117cd575060ff1916600255513381527f5db9ee0a495bf2e6ff9c91a7834c1ba4fdd244a5e8aa4e537bd38aeae4b073aa90602090a180f35b606490602084519162461bcd60e51b8352820152601460248201527314185d5cd8589b194e881b9bdd081c185d5cd95960621b6044820152fd5b5082903461080b578260031936011261080b57611822611d88565b90336001600160a01b0383160361183e5790610a6c91356121ce565b608490602085519162461bcd60e51b8352820152602f60248201527f416363657373436f6e74726f6c3a2063616e206f6e6c792072656e6f756e636560448201526e103937b632b9903337b91039b2b63360891b6064820152fd5b5091903461080b5760209182600319360112610bbe57815163e935b7b160e01b815284359490848183817f00000000000000000000000000000000000000000000000000000000000000006001600160a01b03165afa908115610c84578391611915575b50851015610f92578293948252845220549051908152f35b90508481813d831161193b575b61192c81836121ad565b8101031261049a5751386118fd565b503d611922565b503461049a578160031936011261049a57359061195d611d88565b908284528360205261197460018286200154612057565b82845260208481528185206001600160a01b039093168086529290528084205460ff16156119a0578380f35b828452836020528084208285526020528320600160ff1982541617905533917f2f8788117e7eff1d82e926ec794901d17c78024a50270940304540a733656f0d8480a43880808380f35b503461049a57602036600319011261049a57611a04611d9e565b611a0c611e40565b6001600160a01b038116918215611a87575060028054610100600160a81b03191660089290921b610100600160a81b03169190911790557fa3a2c0788fca84104c8a174fd5021fe337cdd81ef2dab39dfed0f397582c2efb808452602084815283852083865290528284205490929060ff16156119a0578380f35b835163d92e233d60e01b8152fd5b50503461080b578160031936011261080b57602090517fa3a2c0788fca84104c8a174fd5021fe337cdd81ef2dab39dfed0f397582c2efb8152f35b509134610bbe5760209081600319360112610bbe57825163e935b7b160e01b81526001600160a01b0394803591848183817f00000000000000000000000000000000000000000000000000000000000000008b165afa908115611c02578491611bd5575b50821015611bc0575081526005825282812091835190818185549182815201908195855282852090855b818110611baa5750505082611b749103836121ad565b8451948186019282875251809352850193925b828110611b945785850386f35b8351871685529381019392810192600101611b87565b82548a1684529284019260019283019201611b5e565b602491855191633223e66d60e21b8352820152fd5b90508481813d8311611bfb575b611bec81836121ad565b810103126107c3575138611b34565b503d611be2565b86513d86823e3d90fd5b503461049a57602036600319011261049a57816020936001923581528085522001549051908152f35b50503461080b57611c4536611db4565b929081526005602052818120908154841015610bbe5750602092611c6891611dca565b905491519160018060a01b039160031b1c168152f35b503461049a578160031936011261049a578160209360ff92611c9e611d88565b90358252600686528282206001600160a01b039091168252855220549151911615158152f35b503461049a57602036600319011261049a5760209282913581526007845220549051908152f35b50503461080b578160031936011261080b576020905160018152f35b50503461080b578160031936011261080b57600254905160089190911c6001600160a01b03168152602090f35b9250503461049a57602036600319011261049a573563ffffffff60e01b811680910361049a5760209250637965db0b60e01b8114908115611d77575b5015158152f35b6301ffc9a760e01b14905038611d70565b602435906001600160a01b038216820361047657565b600435906001600160a01b038216820361047657565b6040906003190112610476576004359060243590565b8054821015611de25760005260206000200190600090565b634e487b7160e01b600052603260045260246000fd5b60005b838110611e0b5750506000910152565b8181015183820152602001611dfb565b90602091611e3481518092818552858086019101611df8565b601f01601f1916010190565b3360009081527f7d7ffb7a348e1c6a02869081a26547b49160dd3df72d1d75a570eb9b698292ec602090815260408083205490927fa49807205ce4d355092ef5a8a18f56e8913cf4a201fbe287825b095693c217759160ff1615611ea45750505050565b611ead33612291565b91845190611eba82612192565b6042825284820192606036853782511561204357603084538251906001918210156120435790607860218501536041915b818311611fd557505050611f9357604861070a938693611f7793611f68985198899376020b1b1b2b9b9a1b7b73a3937b61d1030b1b1b7bab73a1604d1b8a860152611f3f815180928c603789019101611df8565b8401917001034b99036b4b9b9b4b733903937b6329607d1b603784015251809386840190611df8565b010360288101875201856121ad565b5192839262461bcd60e51b845260048401526024830190611e1b565b60648486519062461bcd60e51b825280600483015260248201527f537472696e67733a20686578206c656e67746820696e73756666696369656e746044820152fd5b909192600f8116601081101561202f576f181899199a1a9b1b9c1cb0b131b232b360811b901a6120058587612280565b5360041c92801561201b57600019019190611eeb565b634e487b7160e01b82526011600452602482fd5b634e487b7160e01b83526032600452602483fd5b634e487b7160e01b81526032600452602490fd5b600090808252602090828252604092838120338252835260ff8482205416156120805750505050565b61208933612291565b9184519061209682612192565b6042825284820192606036853782511561204357603084538251906001918210156120435790607860218501536041915b81831161211b57505050611f9357604861070a938693611f7793611f68985198899376020b1b1b2b9b9a1b7b73a3937b61d1030b1b1b7bab73a1604d1b8a860152611f3f815180928c603789019101611df8565b909192600f8116601081101561202f576f181899199a1a9b1b9c1cb0b131b232b360811b901a61214b8587612280565b5360041c92801561201b576000190191906120c7565b604081019081106001600160401b0382111761217c57604052565b634e487b7160e01b600052604160045260246000fd5b608081019081106001600160401b0382111761217c57604052565b90601f801991011681019081106001600160401b0382111761217c57604052565b9060009180835282602052604083209160018060a01b03169182845260205260ff6040842054166121fe57505050565b80835282602052604083208284526020526040832060ff1981541690557ff6391f5c32d9c69d2a47ea670b442974b53935d1edc7fd64eb21e047a839171b339380a4565b9190820180921161224f57565b634e487b7160e01b600052601160045260246000fd5b6001600160401b03811161217c57601f01601f191660200190565b908151811015611de2570160200190565b60405190606082018281106001600160401b0382111761217c57604052602a8252602082016040368237825115611de257603090538151600190811015611de257607860218401536029905b8082116123315750506122ed5790565b606460405162461bcd60e51b815260206004820152602060248201527f537472696e67733a20686578206c656e67746820696e73756666696369656e746044820152fd5b9091600f8116601081101561238a576f181899199a1a9b1b9c1cb0b131b232b360811b901a6123608486612280565b5360041c9180156123755760001901906122dd565b60246000634e487b7160e01b81526011600452fd5b60246000634e487b7160e01b81526032600452fd5b81601f820112156104765780516123b581612265565b926123c360405194856121ad565b81845260208284010111610476576123e19160208085019101611df8565b90565b51906001600160a01b038216820361047657565b919060c083820312610476578251906001600160401b0382116104765761242091840161239f565b9161242d602082016123e4565b91604082015191606081015191608082015160058110156104765760a09092015190565b60ff6002541661245d57565b60405162461bcd60e51b815260206004820152601060248201526f14185d5cd8589b194e881c185d5cd95960821b6044820152606490fd5b6002600154146124a6576002600155565b60405162461bcd60e51b815260206004820152601f60248201527f5265656e7472616e637947756172643a207265656e7472616e742063616c6c006044820152606490fd5b5190811515820361047657565b919061018083820312610476578251906001600160401b0382116104765761252191840161239f565b9161252e602082016123e4565b9160408201519160608101519160808201519160a08101519160c08201519160e08101516002811015610476579161010082015191610120810151600581101561047657916123e161016061258661014085016123e4565b93016124eb565b6040516125eb916001600160a01b03166125a682612161565b6000806020958685527f5361666545524332303a206c6f772d6c6576656c2063616c6c206661696c656487860152868151910182855af16125e561267a565b916126aa565b805182811591821561265b575b50509050156126045750565b6084906040519062461bcd60e51b82526004820152602a60248201527f5361666545524332303a204552433230206f7065726174696f6e20646964206e6044820152691bdd081cdd58d8d9595960b21b6064820152fd5b8380929350010312610476578161267291016124eb565b8082386125f8565b3d156126a5573d9061268b82612265565b9161269960405193846121ad565b82523d6000602084013e565b606090565b9192901561270c57508151156126be575090565b3b156126c75790565b60405162461bcd60e51b815260206004820152601d60248201527f416464726573733a2063616c6c20746f206e6f6e2d636f6e74726163740000006044820152606490fd5b82519091501561271f5750805190602001fd5b60405162461bcd60e51b81526020600482015290819061070a906024830190611e1b565b9190820391821161224f57565b60405163a9059cbb60e01b60208201526001600160a01b03909216602483015260448083019390935291815260808101916001600160401b0383118284101761217c5761279f9260405261258d565b565b919091604081840312610476576127b7816124eb565b9260208201516001600160401b038111610476576123e1920161239f565b60408051635f8439e360e01b8152600480820184905260249695919460009491939290916001600160a01b03917f000000000000000000000000000000000000000000000000000000000000000083169087898c81855afa8015612b105788998991612aeb575b5086516302c8cb8f60e41b815288810182905260209a908b818f81885afa908115612ae1578b91612aab575b506005811015612a9957600103612a5757848a52888b5261288c83898c2054612242565b116129e357865190639b46c80160e01b82528882015288818d81865afa9081156129d957908c95949392918a916129b3575b5060028110156129a1579060018a969594939214612912575b505050505050506001958151948501928584106001600160401b0385111761290157505052815290565b634e487b7160e01b85526041905283fd5b60849383875260038c528887209716968787528b5287862054885197889687956308407c5960e01b87528c870152850152604484015260648301525afa908115612997578490859261297a575b5015612970578387828080806128d7565b9550505090509190565b905061299091503d8086833e610e3a81836121ad565b903861295f565b82513d86823e3d90fd5b634e487b7160e01b8a5260218952858afd5b6129c791503d808c833e6103d981836121ad565b505050509650505050505050386128be565b87513d8b823e3d90fd5b505050505050919290839583519460608601928684106001600160401b03851117612a47575050508252602683527f496e766573746d656e7420776f756c64206578636565642074617267657420669083015265756e64696e6760d01b9082015290565b634e487b7160e01b825260419052fd5b505050505050509450507f50726f6a656374206e6f7420696e2066756e64696e6720706572696f6400000090935191612a8f83612161565b601d835282015290565b634e487b7160e01b8b5260218a528d8bfd5b90508b81813d8311612ada575b612ac281836121ad565b81010312610761575160058110156107615738612868565b503d612ab8565b89513d8d823e3d90fd5b9050612b029199503d808a833e61041681836121ad565b9c945050509050983861283c565b86513d8a823e3d90fd5b60405163e935b7b160e01b815290939291906020816004817f00000000000000000000000000000000000000000000000000000000000000006001600160a01b03165afa908115612bcd57600091612b9c575b50841015612b8357612b7f92936127d5565b9091565b604051633223e66d60e21b815260048101859052602490fd5b906020823d8211612bc5575b81612bb5602093836121ad565b81010312610bbe57505138612b6d565b3d9150612ba8565b6040513d6000823e3d90fd5b9291926000938185526020906003825260408087209460018060a01b038091169586895284528188205415612c6b575b508087857f6453667d0521c4d7ffabb879f898c6a0b899bf3963f349fb45da8ec48ca0ce319697989952600385528181208882528552818120612c4d858254612242565b90558681526004855220612c62838254612242565b905551908152a3565b8488526005845281882080549068010000000000000000821015612cfa5791612cc082859460017f6453667d0521c4d7ffabb879f898c6a0b899bf3963f349fb45da8ec48ca0ce319a9b9c9d95018155611dca565b819291549060031b918b831b921b1916179055868152600685528181208882528552818120600160ff198254161790559796959450612c09565b634e487b7160e01b8a52604160045260248afdfea2646970667358221220f9aa818afb53cb55d6b36ed2b227f836bbf76bbfdfa84cb602eba3cafa8971ce64736f6c634300081400332f8788117e7eff1d82e926ec794901d17c78024a50270940304540a733656f0d",
  "linkReferences": {},
  "deployedLinkReferences": {}
}