{
  "_format": "hh-sol-artifact-1",
  "contractName": "LdInvestmentCore",
  "sourceName": "contracts/LdInvestmentCore.sol",
  "abi": [
    {
      "inputs": [
        {
          "internalType": "address",
          "name": "initialOwner",
          "type": "address"
        }
      ],
      "stateMutability": "nonpayable",
      "type": "constructor"
    },
    {
      "inputs": [],
      "name": "EmptyProgramName",
      "type": "error"
    },
    {
      "inputs": [
        {
          "internalType": "uint256",
          "name": "fee",
          "type": "uint256"
        }
      ],
      "name": "FeePercentageExceedsLimit",
      "type": "error"
    },
    {
      "inputs": [
        {
          "internalType": "uint256",
          "name": "fee",
          "type": "uint256"
        },
        {
          "internalType": "uint256",
          "name": "max",
          "type": "uint256"
        }
      ],
      "name": "FeePercentageTooHigh",
      "type": "error"
    },
    {
      "inputs": [
        {
          "internalType": "uint256",
          "name": "startTime",
          "type": "uint256"
        }
      ],
      "name": "InvalidApplicationTime",
      "type": "error"
    },
    {
      "inputs": [
        {
          "internalType": "uint256",
          "name": "required",
          "type": "uint256"
        },
        {
          "internalType": "uint256",
          "name": "available",
          "type": "uint256"
        }
      ],
      "name": "InvalidApprovalCount",
      "type": "error"
    },
    {
      "inputs": [
        {
          "internalType": "uint256",
          "name": "programId",
          "type": "uint256"
        }
      ],
      "name": "InvalidProgramId",
      "type": "error"
    },
    {
      "inputs": [
        {
          "internalType": "uint256",
          "name": "projectId",
          "type": "uint256"
        }
      ],
      "name": "InvalidProjectId",
      "type": "error"
    },
    {
      "inputs": [
        {
          "internalType": "address",
          "name": "caller",
          "type": "address"
        }
      ],
      "name": "NotOwnerOrAdmin",
      "type": "error"
    },
    {
      "inputs": [
        {
          "internalType": "address",
          "name": "caller",
          "type": "address"
        }
      ],
      "name": "NotPauserRole",
      "type": "error"
    },
    {
      "inputs": [
        {
          "internalType": "address",
          "name": "caller",
          "type": "address"
        }
      ],
      "name": "NotTokenManager",
      "type": "error"
    },
    {
      "inputs": [
        {
          "internalType": "address",
          "name": "token",
          "type": "address"
        }
      ],
      "name": "TokenNotWhitelisted",
      "type": "error"
    },
    {
      "inputs": [
        {
          "internalType": "uint256",
          "name": "count",
          "type": "uint256"
        },
        {
          "internalType": "uint256",
          "name": "max",
          "type": "uint256"
        }
      ],
      "name": "TooManyProjects",
      "type": "error"
    },
    {
      "inputs": [
        {
          "internalType": "uint256",
          "name": "count",
          "type": "uint256"
        },
        {
          "internalType": "uint256",
          "name": "max",
          "type": "uint256"
        }
      ],
      "name": "TooManyValidators",
      "type": "error"
    },
    {
      "anonymous": false,
      "inputs": [
        {
          "indexed": true,
          "internalType": "uint256",
          "name": "projectId",
          "type": "uint256"
        },
        {
          "indexed": true,
          "internalType": "address",
          "name": "supporter",
          "type": "address"
        },
        {
          "indexed": false,
          "internalType": "uint256",
          "name": "amount",
          "type": "uint256"
        },
        {
          "indexed": false,
          "internalType": "address",
          "name": "token",
          "type": "address"
        }
      ],
      "name": "FundInvested",
      "type": "event"
    },
    {
      "anonymous": false,
      "inputs": [
        {
          "indexed": true,
          "internalType": "uint256",
          "name": "projectId",
          "type": "uint256"
        },
        {
          "indexed": true,
          "internalType": "address",
          "name": "supporter",
          "type": "address"
        },
        {
          "indexed": false,
          "internalType": "uint256",
          "name": "amount",
          "type": "uint256"
        },
        {
          "indexed": false,
          "internalType": "address",
          "name": "token",
          "type": "address"
        },
        {
          "indexed": false,
          "internalType": "string",
          "name": "reason",
          "type": "string"
        }
      ],
      "name": "FundReclaimed",
      "type": "event"
    },
    {
      "anonymous": false,
      "inputs": [
        {
          "indexed": true,
          "internalType": "uint256",
          "name": "id",
          "type": "uint256"
        },
        {
          "indexed": true,
          "internalType": "address",
          "name": "host",
          "type": "address"
        },
        {
          "indexed": false,
          "internalType": "string",
          "name": "name",
          "type": "string"
        },
        {
          "indexed": false,
          "internalType": "uint256",
          "name": "maxFundingPerProject",
          "type": "uint256"
        },
        {
          "indexed": false,
          "internalType": "address",
          "name": "token",
          "type": "address"
        }
      ],
      "name": "InvestmentProgramCreated",
      "type": "event"
    },
    {
      "anonymous": false,
      "inputs": [
        {
          "indexed": true,
          "internalType": "address",
          "name": "previousOwner",
          "type": "address"
        },
        {
          "indexed": true,
          "internalType": "address",
          "name": "newOwner",
          "type": "address"
        }
      ],
      "name": "OwnershipTransferred",
      "type": "event"
    },
    {
      "anonymous": false,
      "inputs": [
        {
          "indexed": false,
          "internalType": "address",
          "name": "account",
          "type": "address"
        }
      ],
      "name": "Paused",
      "type": "event"
    },
    {
      "anonymous": false,
      "inputs": [
        {
          "indexed": true,
          "internalType": "uint256",
          "name": "programId",
          "type": "uint256"
        },
        {
          "indexed": false,
          "internalType": "enum ILdInvestmentCore.ProgramStatus",
          "name": "oldStatus",
          "type": "uint8"
        },
        {
          "indexed": false,
          "internalType": "enum ILdInvestmentCore.ProgramStatus",
          "name": "newStatus",
          "type": "uint8"
        }
      ],
      "name": "ProgramStatusChanged",
      "type": "event"
    },
    {
      "anonymous": false,
      "inputs": [
        {
          "indexed": true,
          "internalType": "uint256",
          "name": "programId",
          "type": "uint256"
        },
        {
          "indexed": true,
          "internalType": "bytes32",
          "name": "proposalId",
          "type": "bytes32"
        },
        {
          "indexed": true,
          "internalType": "address",
          "name": "validator",
          "type": "address"
        },
        {
          "indexed": false,
          "internalType": "uint256",
          "name": "approvalCount",
          "type": "uint256"
        },
        {
          "indexed": false,
          "internalType": "uint256",
          "name": "requiredApprovals",
          "type": "uint256"
        }
      ],
      "name": "ProjectApproved",
      "type": "event"
    },
    {
      "anonymous": false,
      "inputs": [
        {
          "indexed": true,
          "internalType": "uint256",
          "name": "projectId",
          "type": "uint256"
        },
        {
          "indexed": false,
          "internalType": "string",
          "name": "reason",
          "type": "string"
        }
      ],
      "name": "ProjectMarkedAsFailed",
      "type": "event"
    },
    {
      "anonymous": false,
      "inputs": [
        {
          "indexed": true,
          "internalType": "uint256",
          "name": "programId",
          "type": "uint256"
        },
        {
          "indexed": true,
          "internalType": "bytes32",
          "name": "proposalId",
          "type": "bytes32"
        },
        {
          "indexed": true,
          "internalType": "address",
          "name": "validator",
          "type": "address"
        },
        {
          "indexed": false,
          "internalType": "address",
          "name": "projectOwner",
          "type": "address"
        },
        {
          "indexed": false,
          "internalType": "string",
          "name": "projectName",
          "type": "string"
        }
      ],
      "name": "ProjectProposed",
      "type": "event"
    },
    {
      "anonymous": false,
      "inputs": [
        {
          "indexed": true,
          "internalType": "uint256",
          "name": "projectId",
          "type": "uint256"
        },
        {
          "indexed": false,
          "internalType": "enum ILdInvestmentCore.ProjectStatus",
          "name": "oldStatus",
          "type": "uint8"
        },
        {
          "indexed": false,
          "internalType": "enum ILdInvestmentCore.ProjectStatus",
          "name": "newStatus",
          "type": "uint8"
        }
      ],
      "name": "ProjectStatusChanged",
      "type": "event"
    },
    {
      "anonymous": false,
      "inputs": [
        {
          "indexed": true,
          "internalType": "uint256",
          "name": "projectId",
          "type": "uint256"
        },
        {
          "indexed": true,
          "internalType": "uint256",
          "name": "termId",
          "type": "uint256"
        },
        {
          "indexed": false,
          "internalType": "string",
          "name": "title",
          "type": "string"
        },
        {
          "indexed": false,
          "internalType": "uint256",
          "name": "minInvestment",
          "type": "uint256"
        },
        {
          "indexed": false,
          "internalType": "uint256",
          "name": "maxInvestment",
          "type": "uint256"
        }
      ],
      "name": "ProjectTermAdded",
      "type": "event"
    },
    {
      "anonymous": false,
      "inputs": [
        {
          "indexed": true,
          "internalType": "uint256",
          "name": "projectId",
          "type": "uint256"
        },
        {
          "indexed": true,
          "internalType": "uint256",
          "name": "termId",
          "type": "uint256"
        }
      ],
      "name": "ProjectTermUpdated",
      "type": "event"
    },
    {
      "anonymous": false,
      "inputs": [
        {
          "indexed": true,
          "internalType": "uint256",
          "name": "programId",
          "type": "uint256"
        },
        {
          "indexed": true,
          "internalType": "uint256",
          "name": "projectId",
          "type": "uint256"
        },
        {
          "indexed": true,
          "internalType": "address",
          "name": "owner",
          "type": "address"
        },
        {
          "indexed": false,
          "internalType": "string",
          "name": "name",
          "type": "string"
        },
        {
          "indexed": false,
          "internalType": "uint256",
          "name": "targetFunding",
          "type": "uint256"
        }
      ],
      "name": "ProjectValidated",
      "type": "event"
    },
    {
      "anonymous": false,
      "inputs": [
        {
          "indexed": true,
          "internalType": "bytes32",
          "name": "role",
          "type": "bytes32"
        },
        {
          "indexed": true,
          "internalType": "bytes32",
          "name": "previousAdminRole",
          "type": "bytes32"
        },
        {
          "indexed": true,
          "internalType": "bytes32",
          "name": "newAdminRole",
          "type": "bytes32"
        }
      ],
      "name": "RoleAdminChanged",
      "type": "event"
    },
    {
      "anonymous": false,
      "inputs": [
        {
          "indexed": true,
          "internalType": "bytes32",
          "name": "role",
          "type": "bytes32"
        },
        {
          "indexed": true,
          "internalType": "address",
          "name": "account",
          "type": "address"
        },
        {
          "indexed": true,
          "internalType": "address",
          "name": "sender",
          "type": "address"
        }
      ],
      "name": "RoleGranted",
      "type": "event"
    },
    {
      "anonymous": false,
      "inputs": [
        {
          "indexed": true,
          "internalType": "bytes32",
          "name": "role",
          "type": "bytes32"
        },
        {
          "indexed": true,
          "internalType": "address",
          "name": "account",
          "type": "address"
        },
        {
          "indexed": true,
          "internalType": "address",
          "name": "sender",
          "type": "address"
        }
      ],
      "name": "RoleRevoked",
      "type": "event"
    },
    {
      "anonymous": false,
      "inputs": [
        {
          "indexed": true,
          "internalType": "uint256",
          "name": "projectId",
          "type": "uint256"
        },
        {
          "indexed": true,
          "internalType": "uint256",
          "name": "termId",
          "type": "uint256"
        },
        {
          "indexed": true,
          "internalType": "address",
          "name": "supporter",
          "type": "address"
        }
      ],
      "name": "TermClaimed",
      "type": "event"
    },
    {
      "anonymous": false,
      "inputs": [
        {
          "indexed": true,
          "internalType": "address",
          "name": "token",
          "type": "address"
        },
        {
          "indexed": false,
          "internalType": "bool",
          "name": "status",
          "type": "bool"
        }
      ],
      "name": "TokenWhitelisted",
      "type": "event"
    },
    {
      "anonymous": false,
      "inputs": [
        {
          "indexed": false,
          "internalType": "address",
          "name": "account",
          "type": "address"
        }
      ],
      "name": "Unpaused",
      "type": "event"
    },
    {
      "inputs": [],
      "name": "ADMIN_ROLE",
      "outputs": [
        {
          "internalType": "bytes32",
          "name": "",
          "type": "bytes32"
        }
      ],
      "stateMutability": "view",
      "type": "function"
    },
    {
      "inputs": [],
      "name": "DEFAULT_ADMIN_ROLE",
      "outputs": [
        {
          "internalType": "bytes32",
          "name": "",
          "type": "bytes32"
        }
      ],
      "stateMutability": "view",
      "type": "function"
    },
    {
      "inputs": [],
      "name": "DEFAULT_FEE_PERCENTAGE",
      "outputs": [
        {
          "internalType": "uint16",
          "name": "",
          "type": "uint16"
        }
      ],
      "stateMutability": "view",
      "type": "function"
    },
    {
      "inputs": [],
      "name": "EMERGENCY_ROLE",
      "outputs": [
        {
          "internalType": "bytes32",
          "name": "",
          "type": "bytes32"
        }
      ],
      "stateMutability": "view",
      "type": "function"
    },
    {
      "inputs": [],
      "name": "ETH_ADDRESS",
      "outputs": [
        {
          "internalType": "address",
          "name": "",
          "type": "address"
        }
      ],
      "stateMutability": "view",
      "type": "function"
    },
    {
      "inputs": [],
      "name": "MAX_FEE_PERCENTAGE",
      "outputs": [
        {
          "internalType": "uint16",
          "name": "",
          "type": "uint16"
        }
      ],
      "stateMutability": "view",
      "type": "function"
    },
    {
      "inputs": [],
      "name": "MAX_PROJECTS_PER_BATCH",
      "outputs": [
        {
          "internalType": "uint256",
          "name": "",
          "type": "uint256"
        }
      ],
      "stateMutability": "view",
      "type": "function"
    },
    {
      "inputs": [],
      "name": "MAX_VALIDATORS_PER_PROGRAM",
      "outputs": [
        {
          "internalType": "uint256",
          "name": "",
          "type": "uint256"
        }
      ],
      "stateMutability": "view",
      "type": "function"
    },
    {
      "inputs": [],
      "name": "MIN_FUNDING_AMOUNT",
      "outputs": [
        {
          "internalType": "uint256",
          "name": "",
          "type": "uint256"
        }
      ],
      "stateMutability": "view",
      "type": "function"
    },
    {
      "inputs": [],
      "name": "MIN_INVESTMENT_AMOUNT",
      "outputs": [
        {
          "internalType": "uint256",
          "name": "",
          "type": "uint256"
        }
      ],
      "stateMutability": "view",
      "type": "function"
    },
    {
      "inputs": [],
      "name": "PAUSER_ROLE",
      "outputs": [
        {
          "internalType": "bytes32",
          "name": "",
          "type": "bytes32"
        }
      ],
      "stateMutability": "view",
      "type": "function"
    },
    {
      "inputs": [],
      "name": "PENDING_PERIOD",
      "outputs": [
        {
          "internalType": "uint256",
          "name": "",
          "type": "uint256"
        }
      ],
      "stateMutability": "view",
      "type": "function"
    },
    {
      "inputs": [],
      "name": "PERCENTAGE_BASIS_POINTS",
      "outputs": [
        {
          "internalType": "uint16",
          "name": "",
          "type": "uint16"
        }
      ],
      "stateMutability": "view",
      "type": "function"
    },
    {
      "inputs": [],
      "name": "PROGRAM_MANAGER_ROLE",
      "outputs": [
        {
          "internalType": "bytes32",
          "name": "",
          "type": "bytes32"
        }
      ],
      "stateMutability": "view",
      "type": "function"
    },
    {
      "inputs": [],
      "name": "STATUS_CACHE_DURATION",
      "outputs": [
        {
          "internalType": "uint256",
          "name": "",
          "type": "uint256"
        }
      ],
      "stateMutability": "view",
      "type": "function"
    },
    {
      "inputs": [],
      "name": "TOKEN_MANAGER_ROLE",
      "outputs": [
        {
          "internalType": "bytes32",
          "name": "",
          "type": "bytes32"
        }
      ],
      "stateMutability": "view",
      "type": "function"
    },
    {
      "inputs": [],
      "name": "VALIDATOR_MANAGER_ROLE",
      "outputs": [
        {
          "internalType": "bytes32",
          "name": "",
          "type": "bytes32"
        }
      ],
      "stateMutability": "view",
      "type": "function"
    },
    {
      "inputs": [
        {
          "internalType": "uint256",
          "name": "_projectId",
          "type": "uint256"
        },
        {
          "internalType": "string",
          "name": "_title",
          "type": "string"
        },
        {
          "internalType": "string",
          "name": "_description",
          "type": "string"
        },
        {
          "internalType": "string",
          "name": "_benefits",
          "type": "string"
        },
        {
          "internalType": "uint256",
          "name": "_minInvestment",
          "type": "uint256"
        },
        {
          "internalType": "uint256",
          "name": "_maxInvestment",
          "type": "uint256"
        },
        {
          "internalType": "uint32",
          "name": "_purchaseLimit",
          "type": "uint32"
        }
      ],
      "name": "addProjectTerm",
      "outputs": [],
      "stateMutability": "nonpayable",
      "type": "function"
    },
    {
      "inputs": [
        {
          "internalType": "uint256",
          "name": "_projectId",
          "type": "uint256"
        },
        {
          "internalType": "address",
          "name": "_user",
          "type": "address"
        },
        {
          "internalType": "string",
          "name": "_tierName",
          "type": "string"
        },
        {
          "internalType": "uint256",
          "name": "_maxInvestment",
          "type": "uint256"
        }
      ],
      "name": "assignUserTier",
      "outputs": [],
      "stateMutability": "nonpayable",
      "type": "function"
    },
    {
      "inputs": [
        {
          "internalType": "uint256[]",
          "name": "_projectIds",
          "type": "uint256[]"
        }
      ],
      "name": "batchReclaimFunds",
      "outputs": [],
      "stateMutability": "nonpayable",
      "type": "function"
    },
    {
      "inputs": [
        {
          "internalType": "uint256[]",
          "name": "_programIds",
          "type": "uint256[]"
        }
      ],
      "name": "batchUpdateProgramStatuses",
      "outputs": [],
      "stateMutability": "nonpayable",
      "type": "function"
    },
    {
      "inputs": [
        {
          "internalType": "uint256[]",
          "name": "_projectIds",
          "type": "uint256[]"
        }
      ],
      "name": "batchUpdateProjectStatuses",
      "outputs": [],
      "stateMutability": "nonpayable",
      "type": "function"
    },
    {
      "inputs": [
        {
          "internalType": "uint256",
          "name": "_projectId",
          "type": "uint256"
        },
        {
          "internalType": "address",
          "name": "_supporter",
          "type": "address"
        }
      ],
      "name": "canReclaimFunds",
      "outputs": [
        {
          "internalType": "bool",
          "name": "canReclaim",
          "type": "bool"
        },
        {
          "internalType": "string",
          "name": "reason",
          "type": "string"
        },
        {
          "internalType": "uint256",
          "name": "amount",
          "type": "uint256"
        }
      ],
      "stateMutability": "view",
      "type": "function"
    },
    {
      "inputs": [
        {
          "internalType": "uint256",
          "name": "_projectId",
          "type": "uint256"
        },
        {
          "internalType": "address",
          "name": "_supporter",
          "type": "address"
        }
      ],
      "name": "checkReclaimEligibility",
      "outputs": [
        {
          "internalType": "bool",
          "name": "canReclaim",
          "type": "bool"
        },
        {
          "internalType": "string",
          "name": "reason",
          "type": "string"
        },
        {
          "internalType": "uint256",
          "name": "reclaimAmount",
          "type": "uint256"
        }
      ],
      "stateMutability": "view",
      "type": "function"
    },
    {
      "inputs": [
        {
          "internalType": "uint256",
          "name": "_projectId",
          "type": "uint256"
        },
        {
          "internalType": "address",
          "name": "_user",
          "type": "address"
        },
        {
          "internalType": "uint256",
          "name": "_currentInvestment",
          "type": "uint256"
        },
        {
          "internalType": "uint256",
          "name": "_additionalInvestment",
          "type": "uint256"
        }
      ],
      "name": "checkTierInvestmentLimit",
      "outputs": [
        {
          "internalType": "bool",
          "name": "allowed",
          "type": "bool"
        },
        {
          "internalType": "string",
          "name": "reason",
          "type": "string"
        }
      ],
      "stateMutability": "view",
      "type": "function"
    },
    {
      "inputs": [
        {
          "internalType": "string",
          "name": "_name",
          "type": "string"
        },
        {
          "internalType": "address[]",
          "name": "_validators",
          "type": "address[]"
        },
        {
          "internalType": "uint256",
          "name": "_requiredApprovals",
          "type": "uint256"
        },
        {
          "internalType": "uint256",
          "name": "_maxFundingPerProject",
          "type": "uint256"
        },
        {
          "internalType": "uint256",
          "name": "_applicationStartTime",
          "type": "uint256"
        },
        {
          "internalType": "uint256",
          "name": "_applicationEndTime",
          "type": "uint256"
        },
        {
          "internalType": "uint256",
          "name": "_fundingStartTime",
          "type": "uint256"
        },
        {
          "internalType": "uint256",
          "name": "_fundingEndTime",
          "type": "uint256"
        },
        {
          "internalType": "enum ILdInvestmentCore.InvestmentCondition",
          "name": "_condition",
          "type": "uint8"
        },
        {
          "internalType": "uint256",
          "name": "_feePercentage",
          "type": "uint256"
        },
        {
          "internalType": "address",
          "name": "_token",
          "type": "address"
        }
      ],
      "name": "createInvestmentProgram",
      "outputs": [],
      "stateMutability": "nonpayable",
      "type": "function"
    },
    {
      "inputs": [],
      "name": "defaultFeePercentage",
      "outputs": [
        {
          "internalType": "uint16",
          "name": "",
          "type": "uint16"
        }
      ],
      "stateMutability": "view",
      "type": "function"
    },
    {
      "inputs": [
        {
          "internalType": "uint256",
          "name": "_projectId",
          "type": "uint256"
        },
        {
          "internalType": "uint256",
          "name": "_milestoneIndex",
          "type": "uint256"
        }
      ],
      "name": "delegateApproveMilestone",
      "outputs": [],
      "stateMutability": "nonpayable",
      "type": "function"
    },
    {
      "inputs": [
        {
          "internalType": "uint256",
          "name": "_projectId",
          "type": "uint256"
        },
        {
          "internalType": "uint256",
          "name": "_milestoneIndex",
          "type": "uint256"
        }
      ],
      "name": "delegateExecuteMilestone",
      "outputs": [],
      "stateMutability": "nonpayable",
      "type": "function"
    },
    {
      "inputs": [
        {
          "internalType": "uint256",
          "name": "_programId",
          "type": "uint256"
        }
      ],
      "name": "delegateFeeClaim",
      "outputs": [],
      "stateMutability": "nonpayable",
      "type": "function"
    },
    {
      "inputs": [
        {
          "internalType": "uint256",
          "name": "_projectId",
          "type": "uint256"
        }
      ],
      "name": "delegateInvestFund",
      "outputs": [],
      "stateMutability": "payable",
      "type": "function"
    },
    {
      "inputs": [
        {
          "internalType": "uint256",
          "name": "_projectId",
          "type": "uint256"
        },
        {
          "internalType": "uint256",
          "name": "_amount",
          "type": "uint256"
        }
      ],
      "name": "delegateInvestWithToken",
      "outputs": [],
      "stateMutability": "nonpayable",
      "type": "function"
    },
    {
      "inputs": [
        {
          "internalType": "uint256",
          "name": "_projectId",
          "type": "uint256"
        }
      ],
      "name": "delegateReclaimFund",
      "outputs": [],
      "stateMutability": "nonpayable",
      "type": "function"
    },
    {
      "inputs": [],
      "name": "fundingModule",
      "outputs": [
        {
          "internalType": "contract ILdFunding",
          "name": "",
          "type": "address"
        }
      ],
      "stateMutability": "view",
      "type": "function"
    },
    {
      "inputs": [
        {
          "internalType": "uint256",
          "name": "_projectId",
          "type": "uint256"
        }
      ],
      "name": "getActiveProjectTerms",
      "outputs": [
        {
          "components": [
            {
              "internalType": "uint256",
              "name": "id",
              "type": "uint256"
            },
            {
              "internalType": "string",
              "name": "title",
              "type": "string"
            },
            {
              "internalType": "string",
              "name": "description",
              "type": "string"
            },
            {
              "internalType": "string",
              "name": "benefits",
              "type": "string"
            },
            {
              "internalType": "uint256",
              "name": "minInvestment",
              "type": "uint256"
            },
            {
              "internalType": "uint256",
              "name": "maxInvestment",
              "type": "uint256"
            },
            {
              "internalType": "uint32",
              "name": "purchaseLimit",
              "type": "uint32"
            },
            {
              "internalType": "uint32",
              "name": "currentPurchases",
              "type": "uint32"
            },
            {
              "internalType": "bool",
              "name": "isActive",
              "type": "bool"
            }
          ],
          "internalType": "struct ILdInvestmentCore.ProjectTerm[]",
          "name": "",
          "type": "tuple[]"
        }
      ],
      "stateMutability": "view",
      "type": "function"
    },
    {
      "inputs": [],
      "name": "getLightweightCounts",
      "outputs": [
        {
          "internalType": "uint256",
          "name": "totalPrograms",
          "type": "uint256"
        },
        {
          "internalType": "uint256",
          "name": "totalProjects",
          "type": "uint256"
        }
      ],
      "stateMutability": "view",
      "type": "function"
    },
    {
      "inputs": [
        {
          "internalType": "uint256",
          "name": "_programId",
          "type": "uint256"
        }
      ],
      "name": "getProgramDetails",
      "outputs": [
        {
          "internalType": "string",
          "name": "name",
          "type": "string"
        },
        {
          "internalType": "address",
          "name": "host",
          "type": "address"
        },
        {
          "internalType": "uint256",
          "name": "maxFundingPerProject",
          "type": "uint256"
        },
        {
          "internalType": "uint256",
          "name": "applicationStartTime",
          "type": "uint256"
        },
        {
          "internalType": "uint256",
          "name": "applicationEndTime",
          "type": "uint256"
        },
        {
          "internalType": "uint256",
          "name": "fundingStartTime",
          "type": "uint256"
        },
        {
          "internalType": "uint256",
          "name": "fundingEndTime",
          "type": "uint256"
        },
        {
          "internalType": "enum ILdInvestmentCore.InvestmentCondition",
          "name": "condition",
          "type": "uint8"
        },
        {
          "internalType": "uint256",
          "name": "feePercentage",
          "type": "uint256"
        },
        {
          "internalType": "enum ILdInvestmentCore.ProgramStatus",
          "name": "status",
          "type": "uint8"
        },
        {
          "internalType": "address",
          "name": "token",
          "type": "address"
        },
        {
          "internalType": "bool",
          "name": "feeClaimed",
          "type": "bool"
        }
      ],
      "stateMutability": "view",
      "type": "function"
    },
    {
      "inputs": [
        {
          "internalType": "uint256",
          "name": "programId",
          "type": "uint256"
        }
      ],
      "name": "getProgramStatus",
      "outputs": [
        {
          "internalType": "enum ILdInvestmentCore.ProgramStatus",
          "name": "",
          "type": "uint8"
        }
      ],
      "stateMutability": "view",
      "type": "function"
    },
    {
      "inputs": [
        {
          "internalType": "address",
          "name": "_token",
          "type": "address"
        },
        {
          "internalType": "uint256",
          "name": "_offset",
          "type": "uint256"
        },
        {
          "internalType": "uint256",
          "name": "_limit",
          "type": "uint256"
        }
      ],
      "name": "getProgramsByToken",
      "outputs": [
        {
          "internalType": "uint256[]",
          "name": "programIds",
          "type": "uint256[]"
        },
        {
          "internalType": "bool",
          "name": "hasMore",
          "type": "bool"
        }
      ],
      "stateMutability": "view",
      "type": "function"
    },
    {
      "inputs": [
        {
          "internalType": "uint256",
          "name": "_offset",
          "type": "uint256"
        },
        {
          "internalType": "uint256",
          "name": "_limit",
          "type": "uint256"
        }
      ],
      "name": "getProgramsNeedingStatusUpdate",
      "outputs": [
        {
          "internalType": "uint256[]",
          "name": "programIds",
          "type": "uint256[]"
        },
        {
          "internalType": "bool",
          "name": "hasMore",
          "type": "bool"
        }
      ],
      "stateMutability": "view",
      "type": "function"
    },
    {
      "inputs": [
        {
          "internalType": "uint256",
          "name": "_projectId",
          "type": "uint256"
        }
      ],
      "name": "getProjectDetails",
      "outputs": [
        {
          "internalType": "string",
          "name": "name",
          "type": "string"
        },
        {
          "internalType": "address",
          "name": "owner",
          "type": "address"
        },
        {
          "internalType": "uint256",
          "name": "targetFunding",
          "type": "uint256"
        },
        {
          "internalType": "uint256",
          "name": "totalInvested",
          "type": "uint256"
        },
        {
          "internalType": "enum ILdInvestmentCore.ProjectStatus",
          "name": "status",
          "type": "uint8"
        },
        {
          "internalType": "uint256",
          "name": "programId",
          "type": "uint256"
        }
      ],
      "stateMutability": "view",
      "type": "function"
    },
    {
      "inputs": [
        {
          "internalType": "uint256",
          "name": "_projectId",
          "type": "uint256"
        },
        {
          "internalType": "uint256",
          "name": "_termId",
          "type": "uint256"
        }
      ],
      "name": "getProjectTerm",
      "outputs": [
        {
          "components": [
            {
              "internalType": "uint256",
              "name": "id",
              "type": "uint256"
            },
            {
              "internalType": "string",
              "name": "title",
              "type": "string"
            },
            {
              "internalType": "string",
              "name": "description",
              "type": "string"
            },
            {
              "internalType": "string",
              "name": "benefits",
              "type": "string"
            },
            {
              "internalType": "uint256",
              "name": "minInvestment",
              "type": "uint256"
            },
            {
              "internalType": "uint256",
              "name": "maxInvestment",
              "type": "uint256"
            },
            {
              "internalType": "uint32",
              "name": "purchaseLimit",
              "type": "uint32"
            },
            {
              "internalType": "uint32",
              "name": "currentPurchases",
              "type": "uint32"
            },
            {
              "internalType": "bool",
              "name": "isActive",
              "type": "bool"
            }
          ],
          "internalType": "struct ILdInvestmentCore.ProjectTerm",
          "name": "",
          "type": "tuple"
        }
      ],
      "stateMutability": "view",
      "type": "function"
    },
    {
      "inputs": [
        {
          "internalType": "bytes32",
          "name": "role",
          "type": "bytes32"
        }
      ],
      "name": "getRoleAdmin",
      "outputs": [
        {
          "internalType": "bytes32",
          "name": "",
          "type": "bytes32"
        }
      ],
      "stateMutability": "view",
      "type": "function"
    },
    {
      "inputs": [],
      "name": "getTotalCounts",
      "outputs": [
        {
          "internalType": "uint256",
          "name": "totalPrograms",
          "type": "uint256"
        },
        {
          "internalType": "uint256",
          "name": "totalProjects",
          "type": "uint256"
        },
        {
          "internalType": "uint256",
          "name": "activePrograms",
          "type": "uint256"
        },
        {
          "internalType": "uint256",
          "name": "activeProjects",
          "type": "uint256"
        }
      ],
      "stateMutability": "view",
      "type": "function"
    },
    {
      "inputs": [
        {
          "internalType": "uint256",
          "name": "_projectId",
          "type": "uint256"
        },
        {
          "internalType": "address",
          "name": "_user",
          "type": "address"
        }
      ],
      "name": "getUserTier",
      "outputs": [
        {
          "internalType": "string",
          "name": "tierName",
          "type": "string"
        },
        {
          "internalType": "uint256",
          "name": "maxInvestment",
          "type": "uint256"
        },
        {
          "internalType": "bool",
          "name": "isAssigned",
          "type": "bool"
        }
      ],
      "stateMutability": "view",
      "type": "function"
    },
    {
      "inputs": [
        {
          "internalType": "bytes32",
          "name": "role",
          "type": "bytes32"
        },
        {
          "internalType": "address",
          "name": "account",
          "type": "address"
        }
      ],
      "name": "grantRole",
      "outputs": [],
      "stateMutability": "nonpayable",
      "type": "function"
    },
    {
      "inputs": [
        {
          "internalType": "bytes32",
          "name": "role",
          "type": "bytes32"
        },
        {
          "internalType": "address",
          "name": "account",
          "type": "address"
        }
      ],
      "name": "hasRole",
      "outputs": [
        {
          "internalType": "bool",
          "name": "",
          "type": "bool"
        }
      ],
      "stateMutability": "view",
      "type": "function"
    },
    {
      "inputs": [
        {
          "internalType": "uint256",
          "name": "_projectId",
          "type": "uint256"
        }
      ],
      "name": "investFund",
      "outputs": [],
      "stateMutability": "payable",
      "type": "function"
    },
    {
      "inputs": [
        {
          "internalType": "uint256",
          "name": "",
          "type": "uint256"
        }
      ],
      "name": "investmentPrograms",
      "outputs": [
        {
          "internalType": "uint256",
          "name": "id",
          "type": "uint256"
        },
        {
          "internalType": "string",
          "name": "name",
          "type": "string"
        },
        {
          "internalType": "address",
          "name": "host",
          "type": "address"
        },
        {
          "internalType": "address",
          "name": "token",
          "type": "address"
        },
        {
          "internalType": "uint256",
          "name": "maxFundingPerProject",
          "type": "uint256"
        },
        {
          "internalType": "uint256",
          "name": "applicationStartTime",
          "type": "uint256"
        },
        {
          "internalType": "uint256",
          "name": "applicationEndTime",
          "type": "uint256"
        },
        {
          "internalType": "uint256",
          "name": "fundingStartTime",
          "type": "uint256"
        },
        {
          "internalType": "uint256",
          "name": "fundingEndTime",
          "type": "uint256"
        },
        {
          "internalType": "uint256",
          "name": "totalFeeCollected",
          "type": "uint256"
        },
        {
          "internalType": "uint256",
          "name": "projectCount",
          "type": "uint256"
        },
        {
          "internalType": "uint256",
          "name": "lastStatusUpdate",
          "type": "uint256"
        },
        {
          "internalType": "uint16",
          "name": "feePercentage",
          "type": "uint16"
        },
        {
          "internalType": "uint16",
          "name": "requiredApprovals",
          "type": "uint16"
        },
        {
          "internalType": "enum ILdInvestmentCore.InvestmentCondition",
          "name": "condition",
          "type": "uint8"
        },
        {
          "internalType": "enum ILdInvestmentCore.ProgramStatus",
          "name": "status",
          "type": "uint8"
        },
        {
          "internalType": "bool",
          "name": "feeClaimed",
          "type": "bool"
        },
        {
          "internalType": "bool",
          "name": "statusCacheValid",
          "type": "bool"
        }
      ],
      "stateMutability": "view",
      "type": "function"
    },
    {
      "inputs": [
        {
          "internalType": "uint256",
          "name": "_projectId",
          "type": "uint256"
        },
        {
          "internalType": "uint256",
          "name": "_termId",
          "type": "uint256"
        },
        {
          "internalType": "uint256",
          "name": "_amount",
          "type": "uint256"
        },
        {
          "internalType": "address",
          "name": "_investor",
          "type": "address"
        }
      ],
      "name": "isEligibleForTerm",
      "outputs": [
        {
          "internalType": "bool",
          "name": "eligible",
          "type": "bool"
        },
        {
          "internalType": "string",
          "name": "reason",
          "type": "string"
        }
      ],
      "stateMutability": "view",
      "type": "function"
    },
    {
      "inputs": [
        {
          "internalType": "uint256",
          "name": "_projectId",
          "type": "uint256"
        },
        {
          "internalType": "string",
          "name": "_reason",
          "type": "string"
        }
      ],
      "name": "markProjectAsFailed",
      "outputs": [],
      "stateMutability": "nonpayable",
      "type": "function"
    },
    {
      "inputs": [
        {
          "internalType": "uint256",
          "name": "_projectId",
          "type": "uint256"
        },
        {
          "internalType": "uint256",
          "name": "_termId",
          "type": "uint256"
        },
        {
          "internalType": "address",
          "name": "_supporter",
          "type": "address"
        }
      ],
      "name": "markTermClaimed",
      "outputs": [],
      "stateMutability": "nonpayable",
      "type": "function"
    },
    {
      "inputs": [],
      "name": "milestoneModule",
      "outputs": [
        {
          "internalType": "contract ILdMilestoneManager",
          "name": "",
          "type": "address"
        }
      ],
      "stateMutability": "view",
      "type": "function"
    },
    {
      "inputs": [],
      "name": "nextProgramId",
      "outputs": [
        {
          "internalType": "uint256",
          "name": "",
          "type": "uint256"
        }
      ],
      "stateMutability": "view",
      "type": "function"
    },
    {
      "inputs": [],
      "name": "nextProjectId",
      "outputs": [
        {
          "internalType": "uint256",
          "name": "",
          "type": "uint256"
        }
      ],
      "stateMutability": "view",
      "type": "function"
    },
    {
      "inputs": [],
      "name": "owner",
      "outputs": [
        {
          "internalType": "address",
          "name": "",
          "type": "address"
        }
      ],
      "stateMutability": "view",
      "type": "function"
    },
    {
      "inputs": [],
      "name": "pause",
      "outputs": [],
      "stateMutability": "nonpayable",
      "type": "function"
    },
    {
      "inputs": [],
      "name": "paused",
      "outputs": [
        {
          "internalType": "bool",
          "name": "",
          "type": "bool"
        }
      ],
      "stateMutability": "view",
      "type": "function"
    },
    {
      "inputs": [
        {
          "internalType": "uint256",
          "name": "",
          "type": "uint256"
        }
      ],
      "name": "projects",
      "outputs": [
        {
          "internalType": "uint256",
          "name": "id",
          "type": "uint256"
        },
        {
          "internalType": "uint256",
          "name": "programId",
          "type": "uint256"
        },
        {
          "internalType": "string",
          "name": "name",
          "type": "string"
        },
        {
          "internalType": "address",
          "name": "owner",
          "type": "address"
        },
        {
          "internalType": "enum ILdInvestmentCore.ProjectStatus",
          "name": "status",
          "type": "uint8"
        },
        {
          "internalType": "bool",
          "name": "fundsReclaimed",
          "type": "bool"
        },
        {
          "internalType": "uint256",
          "name": "targetFunding",
          "type": "uint256"
        },
        {
          "internalType": "uint256",
          "name": "totalInvested",
          "type": "uint256"
        },
        {
          "internalType": "uint256",
          "name": "supporterCount",
          "type": "uint256"
        },
        {
          "internalType": "uint256",
          "name": "termsCount",
          "type": "uint256"
        }
      ],
      "stateMutability": "view",
      "type": "function"
    },
    {
      "inputs": [],
      "name": "proposalManager",
      "outputs": [
        {
          "internalType": "address",
          "name": "",
          "type": "address"
        }
      ],
      "stateMutability": "view",
      "type": "function"
    },
    {
      "inputs": [
        {
          "internalType": "uint256",
          "name": "_projectId",
          "type": "uint256"
        }
      ],
      "name": "reclaimFund",
      "outputs": [],
      "stateMutability": "nonpayable",
      "type": "function"
    },
    {
      "inputs": [
        {
          "internalType": "uint256",
          "name": "_programId",
          "type": "uint256"
        }
      ],
      "name": "refreshProgramStatusCache",
      "outputs": [],
      "stateMutability": "nonpayable",
      "type": "function"
    },
    {
      "inputs": [
        {
          "internalType": "uint256",
          "name": "_projectId",
          "type": "uint256"
        },
        {
          "internalType": "address",
          "name": "_user",
          "type": "address"
        }
      ],
      "name": "removeUserTier",
      "outputs": [],
      "stateMutability": "nonpayable",
      "type": "function"
    },
    {
      "inputs": [],
      "name": "renounceOwnership",
      "outputs": [],
      "stateMutability": "nonpayable",
      "type": "function"
    },
    {
      "inputs": [
        {
          "internalType": "bytes32",
          "name": "role",
          "type": "bytes32"
        },
        {
          "internalType": "address",
          "name": "account",
          "type": "address"
        }
      ],
      "name": "renounceRole",
      "outputs": [],
      "stateMutability": "nonpayable",
      "type": "function"
    },
    {
      "inputs": [
        {
          "internalType": "bytes32",
          "name": "role",
          "type": "bytes32"
        },
        {
          "internalType": "address",
          "name": "account",
          "type": "address"
        }
      ],
      "name": "revokeRole",
      "outputs": [],
      "stateMutability": "nonpayable",
      "type": "function"
    },
    {
      "inputs": [
        {
          "internalType": "address",
          "name": "_termsManager",
          "type": "address"
        },
        {
          "internalType": "address",
          "name": "_tierManager",
          "type": "address"
        }
      ],
      "name": "setAdditionalModules",
      "outputs": [],
      "stateMutability": "nonpayable",
      "type": "function"
    },
    {
      "inputs": [
        {
          "internalType": "uint256",
          "name": "_feePercentage",
          "type": "uint256"
        }
      ],
      "name": "setDefaultFeePercentage",
      "outputs": [],
      "stateMutability": "nonpayable",
      "type": "function"
    },
    {
      "inputs": [
        {
          "internalType": "address",
          "name": "_timeLockModule",
          "type": "address"
        },
        {
          "internalType": "address",
          "name": "_milestoneModule",
          "type": "address"
        },
        {
          "internalType": "address",
          "name": "_fundingModule",
          "type": "address"
        }
      ],
      "name": "setModules",
      "outputs": [],
      "stateMutability": "nonpayable",
      "type": "function"
    },
    {
      "inputs": [
        {
          "internalType": "address",
          "name": "_proposalManager",
          "type": "address"
        }
      ],
      "name": "setProposalManager",
      "outputs": [],
      "stateMutability": "nonpayable",
      "type": "function"
    },
    {
      "inputs": [
        {
          "internalType": "address",
          "name": "token",
          "type": "address"
        },
        {
          "internalType": "bool",
          "name": "status",
          "type": "bool"
        }
      ],
      "name": "setTokenWhitelist",
      "outputs": [],
      "stateMutability": "nonpayable",
      "type": "function"
    },
    {
      "inputs": [
        {
          "internalType": "uint256",
          "name": "_programId",
          "type": "uint256"
        },
        {
          "internalType": "address",
          "name": "_projectOwner",
          "type": "address"
        },
        {
          "internalType": "string",
          "name": "_projectName",
          "type": "string"
        },
        {
          "internalType": "uint256",
          "name": "_targetFunding",
          "type": "uint256"
        },
        {
          "components": [
            {
              "internalType": "string",
              "name": "title",
              "type": "string"
            },
            {
              "internalType": "string",
              "name": "description",
              "type": "string"
            },
            {
              "internalType": "uint256",
              "name": "percentage",
              "type": "uint256"
            },
            {
              "internalType": "uint256",
              "name": "deadline",
              "type": "uint256"
            }
          ],
          "internalType": "struct ILdInvestmentCore.MilestoneInput[]",
          "name": "_milestones",
          "type": "tuple[]"
        }
      ],
      "name": "signValidate",
      "outputs": [],
      "stateMutability": "nonpayable",
      "type": "function"
    },
    {
      "inputs": [
        {
          "internalType": "bytes4",
          "name": "interfaceId",
          "type": "bytes4"
        }
      ],
      "name": "supportsInterface",
      "outputs": [
        {
          "internalType": "bool",
          "name": "",
          "type": "bool"
        }
      ],
      "stateMutability": "view",
      "type": "function"
    },
    {
      "inputs": [],
      "name": "termsManager",
      "outputs": [
        {
          "internalType": "address",
          "name": "",
          "type": "address"
        }
      ],
      "stateMutability": "view",
      "type": "function"
    },
    {
      "inputs": [],
      "name": "tierManager",
      "outputs": [
        {
          "internalType": "address",
          "name": "",
          "type": "address"
        }
      ],
      "stateMutability": "view",
      "type": "function"
    },
    {
      "inputs": [],
      "name": "timeLockModule",
      "outputs": [
        {
          "internalType": "contract ILdTimeLock",
          "name": "",
          "type": "address"
        }
      ],
      "stateMutability": "view",
      "type": "function"
    },
    {
      "inputs": [
        {
          "internalType": "address",
          "name": "newOwner",
          "type": "address"
        }
      ],
      "name": "transferOwnership",
      "outputs": [],
      "stateMutability": "nonpayable",
      "type": "function"
    },
    {
      "inputs": [],
      "name": "unpause",
      "outputs": [],
      "stateMutability": "nonpayable",
      "type": "function"
    },
    {
      "inputs": [
        {
          "internalType": "uint256",
          "name": "_programId",
          "type": "uint256"
        }
      ],
      "name": "updateProgramStatus",
      "outputs": [
        {
          "internalType": "enum ILdInvestmentCore.ProgramStatus",
          "name": "",
          "type": "uint8"
        }
      ],
      "stateMutability": "nonpayable",
      "type": "function"
    },
    {
      "inputs": [
        {
          "internalType": "uint256",
          "name": "_projectId",
          "type": "uint256"
        }
      ],
      "name": "updateProjectStatus",
      "outputs": [
        {
          "internalType": "enum ILdInvestmentCore.ProjectStatus",
          "name": "",
          "type": "uint8"
        }
      ],
      "stateMutability": "nonpayable",
      "type": "function"
    },
    {
      "inputs": [
        {
          "internalType": "uint256",
          "name": "_projectId",
          "type": "uint256"
        },
        {
          "internalType": "uint256",
          "name": "_termId",
          "type": "uint256"
        },
        {
          "internalType": "string",
          "name": "_title",
          "type": "string"
        },
        {
          "internalType": "string",
          "name": "_description",
          "type": "string"
        },
        {
          "internalType": "string",
          "name": "_benefits",
          "type": "string"
        },
        {
          "internalType": "uint32",
          "name": "_purchaseLimit",
          "type": "uint32"
        },
        {
          "internalType": "bool",
          "name": "_isActive",
          "type": "bool"
        }
      ],
      "name": "updateProjectTerm",
      "outputs": [],
      "stateMutability": "nonpayable",
      "type": "function"
    },
    {
      "inputs": [
        {
          "internalType": "address",
          "name": "",
          "type": "address"
        }
      ],
      "name": "whitelistedTokens",
      "outputs": [
        {
          "internalType": "bool",
          "name": "",
          "type": "bool"
        }
      ],
      "stateMutability": "view",
      "type": "function"
    }
  ],
  "bytecode": "0x6080346200061a57601f6200635738819003918201601f19168301916001600160401b038311848410176200061f578084926020946040528339810103126200061a57516001600160a01b03811681036200061a576200005f3362000635565b600160025560ff196003541660035561012c61ffff196009541617600955620000888162000635565b6001600160a01b0381166000908152600080516020620061d7833981519152602052604090205460ff1615620005cd575b6001600160a01b0381166000908152600080516020620062b7833981519152602052604090205460ff16156200056f575b6001600160a01b038116600090815260008051602062006317833981519152602052604090205460ff161562000511575b6001600160a01b038116600090815260008051602062006217833981519152602052604090205460ff1615620004b3575b6001600160a01b038116600090815260008051602062006337833981519152602052604090205460ff161562000455575b6001600160a01b038116600090815260008051602062006277833981519152602052604090205460ff1615620003f7575b6001600160a01b0381166000908152600080516020620062d7833981519152602052604090205460ff161562000399575b600080516020620062f7833981519152600081815260016020527f50efbde2d46c37e9785f1791697f77e94bb7b701e19f1930a668820722d376958054908290557fbd79b86ffe0ab8e8776151514217cd7cacd52c909f66475c3af44e129f0b00ff919083838380a4600080516020620061b78339815191526000528160016040600020018181549155600080516020620061b783398151915283600080a4600080516020620061f78339815191526000528160016040600020018181549155600080516020620061f783398151915283600080a46000805160206200623783398151915260005281600160406000200181815491556000805160206200623783398151915283600080a460008051602062006257833981519152600052600060016040822001818154915560008051602062006257833981519152838380a460008051602062006297833981519152600052600080516020620062978339815191526001604060002001918383549355600080a46000805260066020527f54cdd369e4e8a8515e52ca72ec816c2101831ad1f18bf44102ed171459c9b4f8805460ff19166001179055604051615b1a90816200067d8239f35b6001600160a01b03166000818152600080516020620062d783398151915260205260408120805460ff191660011790553391906000805160206200629783398151915290600080516020620061978339815191529080a438620001df565b6001600160a01b03811660008181526000805160206200627783398151915260205260408120805460ff191660011790553391906000805160206200625783398151915290600080516020620061978339815191529080a4620001ae565b6001600160a01b03811660008181526000805160206200633783398151915260205260408120805460ff191660011790553391906000805160206200623783398151915290600080516020620061978339815191529080a46200017d565b6001600160a01b03811660008181526000805160206200621783398151915260205260408120805460ff19166001179055339190600080516020620061f783398151915290600080516020620061978339815191529080a46200014c565b6001600160a01b03811660008181526000805160206200631783398151915260205260408120805460ff19166001179055339190600080516020620061b783398151915290600080516020620061978339815191529080a46200011b565b6001600160a01b0381166000818152600080516020620062b783398151915260205260408120805460ff19166001179055339190600080516020620062f783398151915290600080516020620061978339815191529080a4620000ea565b6001600160a01b0381166000818152600080516020620061d783398151915260205260408120805460ff19166001179055339190600080516020620061978339815191528180a4620000b9565b600080fd5b634e487b7160e01b600052604160045260246000fd5b600080546001600160a01b039283166001600160a01b03198216811783559216907f8be0079c531659141344cd1fd0a4f28419497f9722a3daafe3b4186f6b6457e09080a356fe608080604052600436101561001357600080fd5b60009060e08235811c91826301ffc9a7146143c35750816302f89be21461439a578163045af334146142ca578163081e324c1461429557816308407c59146141e45781630e54ee9b1461416b578163107046bd146140ad578163128baa8314610f095781631e142bb414613f565781631f2d8f4614613f2d57816320df435914613ef2578163248a9ca314613ec657816325023f0b14613e86578163261c3f9314613ca65781632c8cb8f014613c7a5781632f2ff15d14613bb957816336568abe14613b7757816336bc359414613b195781633bf1fa6a14613a375781633f4ba83a1461396957816342845b75146138ad57816344c1516914613858578163464c4f521461380457816352b80c5d146137df578163555ad243146136d8578163558e44d3146136bb5781635a5548a1146135455781635c975abb146135225781635df92420146133735781635f8439e3146132d657816369e8c0ec146132ad5781636a9de5b514613291578163715018a61461323757816373d602b91461321b57816375b238fc146131e057816377e594bc146130ef5781637a6404c01461263a5781637eab3e7e146125ea5781638456cb591461253e578163867dc00714612515578163869e3960146124f857816388048b1f146122f257816389fb5b0e14611b755781638cc3449d14611b1f5781638da5cb5b14611af85781638f79d0df14611ab45781639064884414611a8b578163916812d2146118e857816391d148541461189c57816391d8fa24146118575781639b21496b1461183a5781639b46c8011461172d5781639f92b715146115ec578163a0283980146114ea578163a02a9165146114bd578163a1cba8d314611463578163a217fddf14611447578163a734f06e14611447578163a8336a06146113bc578163aa975c4514611286578163aef5efb01461118b578163b1b623d814611150578163b48240341461112e578163ba71b33014611110578163c2840e60146110d5578163c689ca4514610fde578163c9bcc97e14610f0e578163d2a7d38a14610f09578163d547741f14610eb3578163d898f40e14610c9857508063daf9c21014610c59578063e59efadb14610a05578063e63ab1e9146109ca578063e7246042146109ad578063e7f9ebf51461093b578063e935b7b11461091d578063e9d8c381146108e2578063ec3c481a1461065f578063f2fde38b14610599578063f7ce1206146104a6578063fd39af54146103c95763fe131778146103a957600080fd5b346103c657806003193601126103c6576020604051620151808152f35b80fd5b50346103c65760803660031901126103c657600435906064356001600160a01b03818116918290036104a1576008548410156104885790610474938392600c541691610416831515615979565b604051906020820192633f4e6bd560e21b845260248301526024356044830152604435606483015260848201526084815261045081614597565b51915afa61046561045f614ebc565b916159bd565b60208082518301019101614f87565b90610484604051928392836144c6565b0390f35b604051633223e66d60e21b815260048101859052602490fd5b600080fd5b50346103c65760203660031901126103c65760043560085481101561058157600360408383602095526005855220019081549160ff8360a01c16926104ea836150a7565b936104f485614700565b6104fd81614700565b848103610518575b85856040519061051481614700565b8152f35b7ff75c354d0772e6386c514de8e03be6b7fb27fe941335caa779ee1b9f34fe0c1e9260409261054687614700565b60ff60a01b191660a087901b60ff60a01b1617905581519061056781614700565b815261057285614700565b8486820152a238808080610505565b60249060405190633223e66d60e21b82526004820152fd5b50346103c65760203660031901126103c6576105b361442e565b6105bb6148a7565b6001600160a01b0390811690811561060b57600054826001600160601b0360a01b821617600055167f8be0079c531659141344cd1fd0a4f28419497f9722a3daafe3b4186f6b6457e0600080a380f35b60405162461bcd60e51b815260206004820152602660248201527f4f776e61626c653a206e6577206f776e657220697320746865207a65726f206160448201526564647265737360d01b6064820152608490fd5b50346103c6576020806003193601126108de57600435600854811015610581576106876152ae565b61068f614965565b8083526005825260408320600181015484526004835260408420600882013360005280855260406000205494851561089a57600384015460ff8160a81c166108445787906040516106df81614603565b89815295600a8601544211610814575b5060ff60039160a01c1661070281614700565b14610801575b1561079f573360009081529190526040902085905560030180547f310dc34e7fd5f84750517cbc81c9ff4789bb9fc5d80772eefd9b1e13f4b79d3392916001600160a01b03918216868161078f5761077191508880808093335af161076b614ebc565b50615244565b5416610784604051928392339784615286565b0390a3600160025580f35b61079a913390615302565b610771565b6084906040519062461bcd60e51b82526004820152603560248201527f43616e6e6f74207265636c61696d2066756e64733a2070726f6a656374206973604482015274081858dd1a5d99481bdc881cdd58d8d95cdcd99d5b605a1b6064820152fd5b506001935061080e61521a565b93610708565b600460058201549101541161082a575b386106ef565b9450506001600360ff61083b6151e8565b96915050610824565b60405162461bcd60e51b815260048101839052602860248201527f46756e647320616c7265616479207265636c61696d656420666f722074686973604482015267081c1c9bda9958dd60c21b6064820152608490fd5b6064906040519062461bcd60e51b82526004820152601860248201527f4e6f20696e766573746d656e7420746f207265636c61696d00000000000000006044820152fd5b5080fd5b50346103c657806003193601126103c65760206040517f104852406e94df2c5112860c28c2d2e43c02e322bc0cf95e2d0159faf296d7fb8152f35b50346103c657806003193601126103c6576020600854604051908152f35b50346103c65760203660031901126103c657600b5481906001600160a01b0316803b156109aa57818091602460405180948193635729a43160e01b835260043560048401525af1801561099f5761098f5750f35b61099890614568565b6103c65780f35b6040513d84823e3d90fd5b50fd5b50346103c657806003193601126103c657602060405161012c8152f35b50346103c657806003193601126103c65760206040517f65d7a28e3265b37a6474929f336521b332c1681b933f6cb9f3376673440d862a8152f35b506020806003193601126108de5760043590600854821015610c4057610a296152ae565b610a31614965565b8183526005815260408320906001820154845260048152604084209160013410610bea576003830180546001600160a01b0394919391908516610b915760098101544210610b5657600a01544211610b22576008820190336000528181526040600020610a9f3482546149a9565b905560058301610ab03482546149a9565b905533600052523460406000205414610b0d575b505460408051348152929091166001600160a01b031660208301523392917f3536c44f9d1363555fd4788fe4943641e1a18a37be074124e76fb9fdc08480dc9181908101610784565b600601610b1a81546148ff565b905538610ac4565b6064906040519062461bcd60e51b82526004820152600d60248201526c119d5b991a5b99c8195b991959609a1b6044820152fd5b60405162461bcd60e51b8152600481018390526013602482015272119d5b991a5b99c81b9bdd081cdd185c9d1959606a1b6044820152606490fd5b60405162461bcd60e51b815260048101839052602b60248201527f546869732066756e6374696f6e206f6e6c7920737570706f727473204554482060448201526a696e766573746d656e747360a81b6064820152608490fd5b60405162461bcd60e51b815260048101839052602860248201527f496e766573746d656e7420616d6f756e74206d75737420626520677265617465604482015267072207468616e20360c41b6064820152608490fd5b604051633223e66d60e21b815260048101839052602490fd5b50346103c65760203660031901126103c65760209060ff906040906001600160a01b03610c8461442e565b168152600684522054166040519015158152f35b9050346108de573660031901126103c6576001600160401b03600435602435828111610eaf57610ccc903690600401614757565b91604435818111610eab57610ce5903690600401614757565b90606435908111610eab57610cfe903690600401614757565b9260c43563ffffffff81168091036104a15760085484101561048857600c546001600160a01b0390811695909390610d37871515615979565b85885260209360058552604089209560038701541695863303610e685760010154895260048552600a60408a200154421015610e1557610e129794899794610ddb899894958996610dcc610db9610e0097604051998a9889019c8d63dc35fb3560e01b905260248a01526044890152610100606489015261012488019061447d565b602319938488830301608489015261447d565b918583030160a486015261447d565b9060843560c484015260a43560e484015261010483015203601f198101835282614639565b51925af1610e0c614ebc565b506159bd565b80f35b60405162461bcd60e51b815260048101869052602560248201527f43616e6e6f7420616464207465726d732061667465722066756e64696e672070604482015264195c9a5bd960da1b6064820152608490fd5b6064866040519062461bcd60e51b825280600483015260248201527f4f6e6c792070726f6a656374206f776e65722063616e20616464207465726d736044820152fd5b8480fd5b8380fd5b82346103c65760403660031901126103c657610e12600435610ed3614418565b908084526001602052610eec6001604086200154614ab2565b8084526001602052610f046001604086200154614ab2565b614d9f565b614720565b82346103c65760403660031901126103c657610f2861442e565b602435908115158092036104a1577f74f7a545c65c11839a48d7453738b30c295408df2d944516167556759ddc6d0683526001602052604083203360005260205260ff6040600020541615610fc65760207fef81a9943b96c8df4ef243401c9bf5159146166211356898b52d382086168d929160018060a01b031692838552600682526040852060ff1981541660ff8316179055604051908152a280f35b6040516303adb50960e31b8152336004820152602490fd5b82346103c65760403660031901126103c657600435610ffb614418565b9060085481101561058157600d546001600160a01b0390811661101f811515614e79565b82855260056020528160036040872001541692833303611084578580948194610e129760405192602084019563290a32cd60e21b87526024850152604484015216606482015260648152611072816145b2565b51925af161107e614ebc565b50614eec565b60405162461bcd60e51b815260206004820152602360248201527f4f6e6c792070726f6a656374206f776e65722063616e2072656d6f766520746960448201526265727360e81b6064820152608490fd5b82346103c657806003193601126103c65760206040517f74f7a545c65c11839a48d7453738b30c295408df2d944516167556759ddc6d068152f35b82346103c657806003193601126103c6576020600754604051908152f35b82346103c657806003193601126103c657602061ffff60095416604051908152f35b82346103c657806003193601126103c65760206040517f87421e189bd94dc1673f0d5255fa9f0cb8ff65bb74e34e0a80b07e9f0b4e34d58152f35b82346103c65761119a3661479e565b90826101006040516111ab8161457b565b82815282602097606089840152606060408401526060808401528160808401528160a08401528160c08401528201520152600854811015610581578291829160018060a01b03600c541691611201831515615979565b6040519087820192630aef5efb60e41b8452602483015260448201526044815261122a816145e8565b51915afa9061124061123a614ebc565b926159bd565b8151820183838203126108de5783830151916001600160401b0383116103c657506112719290840191018301615a1a565b906104846040519282849384528301906147b4565b82346103c65760203660031901126103c6576004358152600460205260409020908154600183016112b69061465a565b91600160a01b6001900393846002820154169460038201541691600682015490600783015490600884015490600985015490600a86015492600b87015494600c88015496600d89015498600e0154996040519d8e9d8e9d8e528d61024090816020820152016113249161447d565b9c6040015260608d015260808c015260a08b015260c08a015288015261010087015261012086015261014085015261016084015261ffff8082166101808501528160101c166101a08401526101c083018160201c60ff16906113859161489a565b8060281c60ff1661139581614700565b6101e08401528060301c60ff16151561020084015260381c60ff1615156102208301520390f35b82346103c65760603660031901126103c6576113d661442e565b6113de614418565b906113e7614444565b906113f06148a7565b6009805462010000600160b01b03191660109290921b62010000600160b01b0316919091179055600a80546001600160a01b03199081166001600160a01b0394851617909155600b80549091169190921617905580f35b82346103c657806003193601126103c657602090604051908152f35b82346103c657806114733661479e565b600b546001600160a01b03169190823b156114b85760448492836040519586948593630230542360e61b8552600485015260248401525af1801561099f5761098f5750f35b505050fd5b82346103c657806003193601126103c65760095460405160109190911c6001600160a01b03168152602090f35b82346103c65760203660031901126103c6576004356007548110156115d4576040828260209452600484522090600e820191825460ff8160281c1661152e84615017565b9461153886614700565b61154182614700565b858203611558575b86866040519061051481614700565b600160381b6040937f8fb9cd57413312ffc30d27b638b0eb9f7036e15add3fe87f2d9c512f272ffda19561158b89614700565b600d4291015565ff00000000008860281b169067ff00ff00000000001916171790558151906115b981614700565b81526115c485614700565b8486820152a28280808080611549565b602490604051906398c5e0e760e01b82526004820152fd5b82346103c65760203660031901126103c65760043560018060a01b03825416331415806116ea575b6116d2576103e8811161168d5761ffff9081811161163c571661ffff19600954161760095580f35b60405162461bcd60e51b815260206004820152602360248201527f4665652070657263656e7461676520657863656564732075696e743136206c696044820152621b5a5d60ea1b6064820152608490fd5b60405162461bcd60e51b815260206004820152601760248201527f4665652070657263656e7461676520746f6f20686967680000000000000000006044820152606490fd5b6040516374275e2160e11b8152336004820152602490fd5b507fa49807205ce4d355092ef5a8a18f56e8913cf4a201fbe287825b095693c2177582526001602052604082203360005260205260ff6040600020541615611614565b9050346108de5760203660031901126108de5760043591600754831015611821579060ff6040836020956117c8955260048652209160018060a01b039283600282015416936117f160068301549360078401546008850154600986015490600a87015492600e880154986117b060018c8c60281c169960038c0154169a0161465a565b9b6040519e8f9e8f9e8f61018090818152019061447d565b9d015260408d015260608c015260808b015260a08a015260c08901528701858560201c1661489a565b61ffff831661010087015261180581614700565b61012086015261014085015260301c1615156101608301520390f35b6040516398c5e0e760e01b815260048101849052602490fd5b82346103c657806003193601126103c65760206040516127108152f35b82346103c65760203660031901126103c6576004356007548110156115d4578152600460205280600d60408220600e810167ff00000000000000198154169055015580f35b82346103c65760403660031901126103c65760406118b8614418565b9160043581526001602052209060018060a01b0316600052602052602060ff604060002054166040519015158152f35b9050346108de573660031901126103c6576001600160401b03600435604435828111610eaf5761191c903690600401614757565b606435838111610eab57611934903690600401614757565b92608435908111610eab5761194d903690600401614757565b9060a4359263ffffffff84168094036104a15760c435928315158094036104a157600854821015610c4057600c546001600160a01b039081169390611993851515615979565b8389526005602052600360408a2001541696873303611a3a57610e129789978897611a20610e00948a97611a116119fe604051998a9860208a019d8e63899fb49960e01b905260248b015260243560448b015260648a015261010060848a015261012489019061447d565b60231993848983030160a48a015261447d565b918683030160c487015261447d565b9160e484015261010483015203601f198101835282614639565b60405162461bcd60e51b815260206004820152602360248201527f4f6e6c792070726f6a656374206f776e65722063616e20757064617465207465604482015262726d7360e81b6064820152608490fd5b82346103c657806003193601126103c657600b546040516001600160a01b039091168152602090f35b82346103c65760403660031901126103c657600435611ad1614418565b906008548110156105815761048491611ae9916154e3565b604093919351938493846144a2565b82346103c657806003193601126103c657546040516001600160a01b039091168152602090f35b82346103c65760403660031901126103c657611b3961442e565b611b41614418565b611b496148a7565b60018060a01b0390816001600160601b0360a01b931683600c541617600c551690600d541617600d5580f35b82346103c6576101603660031901126103c6576004356001600160401b0381116108de57611ba7903690600401614757565b90602435916001600160401b0383116108de57366023840112156108de57826004013591611bd483614883565b93611be26040519586614639565b83855260208501906024829560051b82010190368211610eaf57602401915b8183106122d25750505060026101043510156103c657610144356001600160a01b03811681036104a157611c33614965565b8451600a81116122b357508251156122a15784511561228157604435158015612275575b6122555761ffff60443511612210576001606435106121c0574260843511156121a65760843560a43511156121615760a43560c435106121085760c43560e43511156120c3576103e88061012435116120a2575061ffff6101243511612087576001600160a01b03811682526006602052604082205460ff161561206557600754611ce1816148ff565b6007558083526004602052604083209481865584516001600160401b038111611f9257611d11600188015461452e565b601f8111612027575b50806020601f8211600114611fbd578691611fb2575b508160011b916000199060031b1c19161760018701555b600286016001600160601b0360a01b903382825416179055600160381b600e88019161ffff89845463ffff000060443560101b16906064356006840155608435600784015560a435600884015560c435600984015560e435600a8401558a600c64ff000000006101043560201b1694858564ffffff000019861617178a55610124351515600014611fa6578c61012435985b600383019160018060a01b03169082541617905582600b82015501558c600d429101556001600160401b03191617179116171790558651906001600160401b038211611f9257680100000000000000008211611f925760048701908154838355808410611f77575b5096959690855260208520855b838110611f5a57505050506005839401935b8651811015611f00576001600160a01b03611e7b828961493b565b511615611ebb57611eb6906001600160a01b03611e98828a61493b565b5116600052856020526040600020600160ff198254161790556148ff565b611e60565b60405162461bcd60e51b815260206004820152601960248201527f496e76616c69642076616c696461746f722061646472657373000000000000006044820152606490fd5b507f2c15606d1f9d5c10a057a6339b72794b191be932dac40cee2fc200080bde618b85611f386040519160608352606083019061447d565b60643560208301526001600160a01b039094166040820152339381900390a380f35b82516001600160a01b031681830155602090920191600101611e4e565b82875260208720611f8c918101908501614924565b89611e41565b634e487b7160e01b85526041600452602485fd5b8c876009541698611dd9565b905086015189611d30565b91506001880186526020862086925b601f198316841061200f576001935082601f19811610611ff6575b5050811b016001870155611d47565b88015160001960f88460031b161c191690558980611fe7565b88810151825560209384019360019092019101611fcc565b6120559060018901875260208720601f840160051c8101916020851061205b575b601f0160051c0190614924565b88611d1a565b9091508190612048565b60405163751dff9760e11b81526001600160a01b039091166004820152602490fd5b60405163dada95b560e01b8152610124356004820152602490fd5b6044906040519063135c98cd60e31b82526101243560048301526024820152fd5b60405162461bcd60e51b815260206004820152601a60248201527f496e76616c69642066756e64696e672074696d652072616e67650000000000006044820152606490fd5b60405162461bcd60e51b815260206004820152602b60248201527f46756e64696e67207374617274206d757374206265206166746572206170706c60448201526a1a58d85d1a5bdb88195b9960aa1b6064820152608490fd5b60405162461bcd60e51b815260206004820152601e60248201527f496e76616c6964206170706c69636174696f6e2074696d652072616e676500006044820152606490fd5b604051636340bce560e01b81526084356004820152602490fd5b60405162461bcd60e51b815260206004820152602260248201527f4d61782066756e64696e67206d7573742062652067726561746572207468616e604482015261020360f41b6064820152608490fd5b60405162461bcd60e51b815260206004820152601b60248201527f546f6f206d616e7920726571756972656420617070726f76616c7300000000006044820152606490fd5b604485516040519063339f961b60e01b8252823560048301526024820152fd5b50845160443511611c57565b60405163339f961b60e01b81526001600482015260248101839052604490fd5b604051638f741eb560e01b8152600490fd5b60449060405190632152704b60e01b82526004820152600a6024820152fd5b82356001600160a01b03811681036104a157815260209283019201611c01565b82346103c6576123013661479e565b9061230f6014831115615179565b612318826151b6565b9083908481956007928354915b828910806124ef575b1561249d57888452602060048152604085209060ff600e91818385015460381c1615938415612480575b5083156123a5575b505050612380575b61237461237a916148ff565b986148ff565b97612325565b9461237461239c828b61239661237a958c61493b565b526148ff565b96915050612368565b8c885260049052604087208881015442101593509183612465575b8315612434575b83156123d9575b5050508a8080612360565b90919250600a830154620151808101809111612420574210159283612404575b5050508a80806123ce565b60049350015460281c1661241781614700565b148a80806123f9565b634e487b7160e01b88526011600452602488fd5b9250600a8201544210158061244a575b926123c7565b506001818484015460281c1661245f81614700565b14612444565b9250808383015460281c1661247981614700565b15926123c0565b600d9194500154610e10810180911161242057421015928d612358565b90869450856124ab816151b6565b945b8181106124d1575050906124c0916149a9565b10906104846040519283928361483c565b806124df6124ea928961493b565b51612396828961493b565b6124ad565b5087861061232e565b82346103c657806003193601126103c6576020604051610e108152f35b82346103c657806003193601126103c657600d546040516001600160a01b039091168152602090f35b82346103c657806003193601126103c6577f65d7a28e3265b37a6474929f336521b332c1681b933f6cb9f3376673440d862a81526001602052604081203360005260205260ff60406000205416156125d257612598614965565b600160ff1960035416176003557f62e78cea01bee320cd4e420270b5ea74000d11b0c9f74754ebdbfc544b05a2586020604051338152a180f35b604051631afb336560e21b8152336004820152602490fd5b8260203660031901126103c657600b5481906001600160a01b0316803b156109aa57816024916040519283809263e59efadb60e01b8252600435600483015234905af1801561099f5761098f5750f35b82346103c65760a03660031901126103c657612654614418565b6044356001600160401b0381116130eb57612673903690600401614757565b916001600160401b03608435116103c6573660236084350112156103c65760843560040135926126a284614883565b916126b06040519384614639565b8483526020830194853660248360051b6084350101116130eb57602460843501905b60248360051b60843501018210613001575050506007546004351015612fe857600435815260046020526040812091336000526005830160205260ff6040600020541615612fa45760078301544210612f5f5760088301544211612f1a57600683015460643511612ec957805115612e8457835115612e3f578195929495928296600a870154945b86518910156129285761276d898861493b565b515151156128e35760406127818a8961493b565b5101511561288a5761ffff60406127988b8a61493b565b51015111612833578560606127ad8b8a61493b565b51015111156127d8576123746127d29160406127c98c8b61493b565b510151906149a9565b9761275a565b60405162461bcd60e51b815260206004820152602d60248201527f4d696c6573746f6e6520646561646c696e65206d75737420626520616674657260448201526c2066756e64696e6720656e647360981b6064820152608490fd5b60405162461bcd60e51b815260206004820152602960248201527f4d696c6573746f6e652070657263656e7461676520657863656564732075696e6044820152681d0c4d881b1a5b5a5d60ba1b6064820152608490fd5b60405162461bcd60e51b815260206004820152602b60248201527f4d696c6573746f6e652070657263656e74616765206d7573742062652067726560448201526a061746572207468616e20360ac1b6064820152608490fd5b60405162461bcd60e51b815260206004820152601f60248201527f4d696c6573746f6e65207469746c652063616e6e6f7420626520656d707479006044820152606490fd5b87612710889203612de7576001600482015414908115612dd1575b5015612cc75760085492612956846148ff565b60085560043586526004602052604086208487526005602052604087209085825560043560018301558651916001600160401b038311612cb3578061299f60028b93015461452e565b601f8111612c80575b50602093601f8111600114612c0d5790816007926004968591612c02575b508160011b916000199060031b1c19161760028201555b6003810180546064358784015560058301859055600683018590556001600160b01b0319166001600160a01b038a161790550155600c81018054612a20906148ff565b90550160405191828360208454928381520180948b5260208b20928b5b818110612be0575050612a5292500384614639565b600a546001600160a01b031692833b15612bdc57604051633b02563160e21b8152600481018890526060602482015294516064860181905289959493926084600583901b87018101939290889088015b828210612b7457505050506020906003198684030160448701525191828152019190855b818110612b52575050508391838381809403925af1801561099f57612b3e575b50507f01006a57c0d83e3b2a338c080206828d1903bf4e4d033c335f17e0e536609558612b1e6040519460408652604086019061447d565b60643560208601526001600160a01b03909216936004359281900390a480f35b612b4790614568565b610eaf578385612ae6565b82516001600160a01b031684528a965060209384019390920191600101612ac6565b919394600191939697989950602080916083198c8203018552885190606080612bb8612ba88551608080875286019061447d565b868601518582038887015261447d565b936040810151604085015201519101529701920192018c9897969594939192612aa2565b8880fd5b84546001600160a01b0316835260019485019488945060209093019201612a3d565b90508b01518d6129c6565b6002820183526020832094835b8b601f1984168210612c665750508160049660019260079594601f19811610612c4d575b5050811b0160028201556129dd565b8d015160001960f88460031b161c191690558d80612c3e565b82015187556001909601958c945060209182019101612c1a565b612cad9060028301845260208420601f870160051c8101916020881061205b57601f0160051c0190614924565b8a6129a8565b634e487b7160e01b89526041600452602489fd5b50600e5490926001600160a01b03925090821615612d8c57604051602081019060043582526001600160601b03198560601b166040820152612d3f60a8828551612d18816054840160208a0161445a565b810160643560548201524260748201523360601b6094820152036088810184520182614639565b5190209160405193168352604060208401527f7c2131d31ca04006f15dde1a31ad0572134c8b811f06217f7e8756d233cf194d339380612d8660043594604083019061447d565b0390a480f35b60405162461bcd60e51b815260206004820152601860248201527f50726f706f73616c206d616e61676572206e6f742073657400000000000000006044820152606490fd5b600e015460101c61ffff16600114905086612943565b60405162461bcd60e51b815260206004820152602a60248201527f546f74616c206d696c6573746f6e652070657263656e74616765206d75737420604482015269657175616c203130302560b01b6064820152608490fd5b60405162461bcd60e51b815260206004820152601f60248201527f4174206c65617374206f6e65206d696c6573746f6e65207265717569726564006044820152606490fd5b60405162461bcd60e51b815260206004820152601c60248201527f50726f6a656374206e616d652063616e6e6f7420626520656d707479000000006044820152606490fd5b60405162461bcd60e51b8152602060048201526024808201527f5461726765742066756e64696e6720657863656564732070726f6772616d206c6044820152631a5b5a5d60e21b6064820152608490fd5b60405162461bcd60e51b815260206004820152601860248201527f4170706c69636174696f6e20706572696f6420656e64656400000000000000006044820152606490fd5b60405162461bcd60e51b815260206004820152601e60248201527f4170706c69636174696f6e20706572696f64206e6f74207374617274656400006044820152606490fd5b606460405162461bcd60e51b815260206004820152602060248201527f4e6f7420612076616c696461746f7220666f7220746869732070726f6772616d6044820152fd5b60246040516398c5e0e760e01b81526004356004820152fd5b81356001600160401b038111610eab576080608435820136036023190112610eab57604051908160808101106001600160401b036080840111176130d557608082016040526001600160401b03602482608435010135116130d1576130723660246084358401818101350101614757565b82526001600160401b03604482608435010135116130d15760249260209283926084906130aa36833583016044810135018901614757565b838601528135016064810135604084015201356060820152815291909301920190506126d2565b8580fd5b634e487b7160e01b600052604160045260246000fd5b8280fd5b82346103c65760603660031901126103c65761310961442e565b6024356044359161311d6014841115615179565b613126836151b6565b6007549094916001600160a01b0390811691839085825b828810806131d7575b156131a1578784526004602052878a878760036040892001541614613180575b505061317461317a916148ff565b976148ff565b9661313d565b886131749261239661317a959b6131969461493b565b97915050878a613166565b90899450866131af816151b6565b945b8181106131c4575050906124c0916149a9565b806124df6131d2928961493b565b6131b1565b50888710613146565b82346103c657806003193601126103c65760206040517fa49807205ce4d355092ef5a8a18f56e8913cf4a201fbe287825b095693c217758152f35b82346103c657806003193601126103c657602060405160148152f35b82346103c657806003193601126103c6576132506148a7565b600080546001600160a01b0319811682556001600160a01b03167f8be0079c531659141344cd1fd0a4f28419497f9722a3daafe3b4186f6b6457e08280a380f35b82346103c657806003193601126103c6576020604051600a8152f35b82346103c657806003193601126103c657600c546040516001600160a01b039091168152602090f35b82346103c65760203660031901126103c657600435600854811015610581578160409161334293526005602052206003810154600482015491600581015460ff8360a01c169061332d60026001850154940161465a565b9460405196879660c0885260c088019061447d565b6001600160a01b0390951660208701526040860152606085015261336581614700565b608084015260a08301520390f35b82346103c65760803660031901126103c657600435613390614418565b906044356001600160401b038111610eaf576133b0903690600401614757565b91600854821015610c4057600d546001600160a01b03908116936133d5851515614e79565b83865260209160058352604087209381600386015416948533036134d1576001015488526004845260ff600e60408a200154851c1660028110156134bd576001036134785793611072610e1297946134628a98958998958996604051968795860199633d8c280960e11b8b526024870152604486015216606484015260a0608484015260c483019061447d565b60643560a483015203601f198101835282614639565b60405162461bcd60e51b815260048101859052601960248201527f50726f6772616d206973206e6f7420746965722d6261736564000000000000006044820152606490fd5b634e487b7160e01b89526021600452602489fd5b60405162461bcd60e51b815260048101869052602360248201527f4f6e6c792070726f6a656374206f776e65722063616e2061737369676e20746960448201526265727360e81b6064820152608490fd5b82346103c657806003193601126103c657602060ff600354166040519015158152f35b82346103c6576020806003193601126108de5760043560085481101561058157600c54839182916001600160a01b031690613581821515615979565b60405185810191635a5548a160e01b83526024820152602481526135a4816145cd565b51915afa6135b361045f614ebc565b805181018282818301920312610eaf57828201516001600160401b03928382116130d1570181603f82011215610eab5783810151926135f184614883565b926135ff6040519485614639565b848452858401916040839660051b85010193828511612bdc576040819996989901935b85851061368957505050505050604051928484019085855251809152604084019460408260051b8601019392955b82871061365d5785850386f35b909192938280613679600193603f198a820301865288516147b4565b9601920196019592919092613650565b8499989699518381116136b75789916136a88660408594870101615a1a565b81520194019398959798613622565b8a80fd5b82346103c657806003193601126103c65760206040516103e88152f35b82346103c6576136e7366144e2565b6014811161379a57825b8181106136fc578380f35b613707818385614fbb565b356007541161371f575b61371a906148ff565b6136f1565b61372a818385614fbb565b604051630140507360e71b8152903560048201526020808260248189305af1801561378f5761375b575b5050613711565b81813d8311613788575b61376f8183614639565b81010312610eab57600590511015610eaf578480613754565b503d613765565b6040513d88823e3d90fd5b60405162461bcd60e51b815260206004820152601a60248201527f546f6f206d616e792070726f6772616d7320696e2062617463680000000000006044820152606490fd5b82346103c657806003193601126103c657604060075460085482519182526020820152f35b82346103c65760203660031901126103c657600b5481906001600160a01b0316803b156109aa5781809160246040518094819363761e240d60e11b835260043560048401525af1801561099f5761098f5750f35b82346103c657806138683661479e565b600a546001600160a01b03169190823b156114b85760448492836040519586948593631a46919760e21b8552600485015260248401525af1801561099f5761098f5750f35b82346103c6576138bc366144e2565b6138c96014821115614fcb565b825b8181106138d6578380f35b6138e1818385614fbb565b35600854116138f9575b6138f4906148ff565b6138cb565b613904818385614fbb565b604051637be7090360e11b8152903560048201526020808260248189305af1801561378f57613935575b50506138eb565b81813d8311613962575b6139498183614639565b81010312610eab57600590511015610eaf57848061392e565b503d61393f565b82346103c657806003193601126103c6577f65d7a28e3265b37a6474929f336521b332c1681b933f6cb9f3376673440d862a81526001602052604081203360005260205260ff60406000205416156125d25760035460ff8116156139fb5760ff19166003557f5db9ee0a495bf2e6ff9c91a7834c1ba4fdd244a5e8aa4e537bd38aeae4b073aa6020604051338152a180f35b60405162461bcd60e51b815260206004820152601460248201527314185d5cd8589b194e881b9bdd081c185d5cd95960621b6044820152606490fd5b82346103c65760603660031901126103c657600435613a54614444565b9060085481101561058157600b546001600160a01b03929083163303613ac157828492838093610e1296600c541693613a8e851515615979565b604051916020830194631df8fd3560e11b86526024840152602435604484015216606482015260648152610e00816145b2565b60405162461bcd60e51b815260206004820152602a60248201527f4f6e6c792066756e64696e67206d6f64756c652063616e206d61726b207465726044820152691b5cc818db185a5b595960b21b6064820152608490fd5b82346103c65780613b293661479e565b600a546001600160a01b03169291833b156130eb576044908360405195869485936320913da560e01b8552600485015260248401525af1801561099f57613b6e575080f35b610e1290614568565b82346103c65760403660031901126103c657610e12613b94614418565b613bb16001600160a01b0382163314613bac81614e15565b614e15565b600435614d9f565b82346103c65760403660031901126103c657600435613bd6614418565b81835260016020818152613bef82604087200154614ab2565b838552818152613c0482604087200154614ab2565b83855281815260408086206001600160a01b0390941680875293825285205460ff1615613c2f578480f35b838552818152604085209083865252604084209060ff1982541617905533917f2f8788117e7eff1d82e926ec794901d17c78024a50270940304540a733656f0d8480a4818080808480f35b82346103c65760203660031901126103c6576020613c996004356149b6565b6040519061051481614700565b82346103c65760403660031901126103c6576004356024356001600160401b0381116130eb57613cda903690600401614757565b600854821015610c405782546001600160a01b031633141580613e45575b6116d2578183526020600581526003604085200180549060ff8260a01c1691613d2083614700565b60038314613e0757613d3183614700565b60028314613dc25760ff60a01b1916600360a01b179055604080517f053c2c1956e2922dbf2e0bbf1541df14d92c2b57258702592e15940e013300bd94939286927ff75c354d0772e6386c514de8e03be6b7fb27fe941335caa779ee1b9f34fe0c1e929091613d9f81614700565b8152600385820152a2613dbc60405192828493845283019061447d565b0390a280f35b60405162461bcd60e51b815260048101859052601e60248201527f43616e6e6f74206661696c207375636365737366756c2070726f6a65637400006044820152606490fd5b60405162461bcd60e51b8152600481018590526016602482015275141c9bda9958dd08185b1c9958591e4819985a5b195960521b6044820152606490fd5b507fa49807205ce4d355092ef5a8a18f56e8913cf4a201fbe287825b095693c21775835260016020526040832033845260205260ff60408420541615613cf8565b82346103c65760203660031901126103c657613ea061442e565b613ea86148a7565b60018060a01b03166001600160601b0360a01b600e541617600e5580f35b82346103c65760203660031901126103c657600160406020926004358152828452200154604051908152f35b82346103c657806003193601126103c65760206040517fbf233dd2aafeb4d50879c4aa5c81e96d92f6e6945c906a58f9f2d1c1631b4b268152f35b82346103c657806003193601126103c657600a546040516001600160a01b039091168152602090f35b82346103c65760403660031901126103c65760043590613f74614418565b9160085481101561058157600d54829182916001600160a01b031690613f9b821515614e79565b6040516307850aed60e21b602080830191825260248301939093526001600160a01b03979097166044808301919091528152909590613fdb606482614639565b51915afa91613ff1613feb614ebc565b93614eec565b825183019281818503126130eb57818101516001600160401b0391828211610eab570193606085820312610eaf5760405193606085018581108482111761409957604052838601519283116103c6575093614058604092848061408a980191840101614f38565b9384815261407160608484015193848785015201614f7a565b928391015260405194859460608652606086019061447d565b92840152151560408301520390f35b634e487b7160e01b82526041600452602482fd5b82346103c65760203660031901126103c6576040906004358152600560205220908154906001830154926140e36002820161465a565b90600381015460ff8160a01c1693600483015460ff60058501549361412a60076006880154970154976040519b8c9b8c5260208c01526101408060408d01528b019061447d565b6001600160a01b03821660608b01529761414381614700565b60808a015260a81c16151560a088015260c08701528501526101008401526101208301520390f35b82346103c65761417a366144e2565b6141826152ae565b61418a614965565b6141976014821115614fcb565b825b8181106141a95783600160025580f35b806141b86141c6928486614fbb565b35600854116141cb576148ff565b614199565b6141df6141d9828587614fbb565b35615664565b6148ff565b82346103c65760803660031901126103c65760043590614202614418565b60085483101561427c57600d546104749383926001600160a01b039283169261422c841515614e79565b6040519160208301936308407c5960e01b85526024840152166044820152604435606482015260643560848201526084815261426781614597565b51915afa610465614276614ebc565b91614eec565b604051633223e66d60e21b815260048101849052602490fd5b82346103c65760403660031901126103c6576004356142b2614418565b906008548110156105815761048491611ae9916157ba565b82346103c657806003193601126103c657808160075491600854845b84811061435d5750845b818110614313575060809450604051938452602084015260408301526060820152f35b8086526005602052600160ff600360408920015460a01c1661433481614700565b14614348575b614343906148ff565b6142f0565b92614355614343916148ff565b93905061433a565b6001614368826149b6565b61437181614700565b14614385575b614380906148ff565b6142e6565b91614392614380916148ff565b929050614377565b82346103c657806003193601126103c657600e546040516001600160a01b039091168152602090f35b8390346108de5760203660031901126108de5760043563ffffffff60e01b81168091036130eb5760209250637965db0b60e01b8114908115614407575b5015158152f35b6301ffc9a760e01b14905083614400565b602435906001600160a01b03821682036104a157565b600435906001600160a01b03821682036104a157565b604435906001600160a01b03821682036104a157565b60005b83811061446d5750506000910152565b818101518382015260200161445d565b906020916144968151809281855285808601910161445a565b601f01601f1916010190565b9392916144c1906040921515865260606020870152606086019061447d565b930152565b6040906144df939215158152816020820152019061447d565b90565b9060206003198301126104a1576004356001600160401b03928382116104a157806023830112156104a15781600401359384116104a15760248460051b830101116104a1576024019190565b90600182811c9216801561455e575b602083101461454857565b634e487b7160e01b600052602260045260246000fd5b91607f169161453d565b6001600160401b0381116130d557604052565b61012081019081106001600160401b038211176130d557604052565b60c081019081106001600160401b038211176130d557604052565b60a081019081106001600160401b038211176130d557604052565b606081019081106001600160401b038211176130d557604052565b608081019081106001600160401b038211176130d557604052565b602081019081106001600160401b038211176130d557604052565b604081019081106001600160401b038211176130d557604052565b90601f801991011681019081106001600160401b038211176130d557604052565b906040519182600082549261466e8461452e565b9081845260019485811690816000146146dd575060011461469a575b505061469892500383614639565b565b9093915060005260209081600020936000915b8183106146c55750506146989350820101388061468a565b855488840185015294850194879450918301916146ad565b91505061469894506020925060ff191682840152151560051b820101388061468a565b6005111561470a57565b634e487b7160e01b600052602160045260246000fd5b346104a15760003660031901126104a157602060405160018152f35b6001600160401b0381116130d557601f01601f191660200190565b81601f820112156104a15780359061476e8261473c565b9261477c6040519485614639565b828452602083830101116104a157816000926020809301838601378301015290565b60409060031901126104a1576004359060243590565b90815181526147fc6147ea6147d8602085015161012080602087015285019061447d565b6040850151848203604086015261447d565b6060840151838203606085015261447d565b916080810151608083015260a081015160a083015263ffffffff8060c08301511660c084015260e08201511660e083015261010080910151151591015290565b9092919260408201604083528151809152606083019060208093019060005b8482821061486f5750505050931515910152565b83518552938401939092019160010161485b565b6001600160401b0381116130d55760051b60200190565b90600282101561470a5752565b6000546001600160a01b031633036148bb57565b606460405162461bcd60e51b815260206004820152602060248201527f4f776e61626c653a2063616c6c6572206973206e6f7420746865206f776e65726044820152fd5b600019811461490e5760010190565b634e487b7160e01b600052601160045260246000fd5b81811061492f575050565b60008155600101614924565b805182101561494f5760209160051b010190565b634e487b7160e01b600052603260045260246000fd5b60ff6003541661497157565b60405162461bcd60e51b815260206004820152601060248201526f14185d5cd8589b194e881c185d5cd95960821b6044820152606490fd5b9190820180921161490e57565b6007548110156115d4576144df906000908152600460205260408120600e81015460ff8160381c1680614a85575b614a795760281c60ff166149f781614700565b600381148015614a66575b614a6057506007810154421015614a17575090565b600a015490814210600014614a2d575050600190565b620151808201809211614a4c5750421015614a4757600490565b600290565b634e487b7160e01b81526011600452602490fd5b91505090565b50614a7081614700565b60028114614a02565b60281c60ff1692915050565b50600d820154610e108101809111614a9e5742106149e4565b634e487b7160e01b84526011600452602484fd5b6000818152600191602091838352604093848220338352845260ff858320541615614ade575050505050565b33855193614aeb856145cd565b602a85528585019187368437855115614d7a57603083538551841015614d7a576078602187015360295b848111614d105750614cce57865192614b2d846145e8565b60428452868401946060368737845115614cba57603086538451821015614cba5790607860218601536041915b818311614c4c57505050614c0a57614c06938693614bea93614bdb604894614bb29a519a8b957f416363657373436f6e74726f6c3a206163636f756e74200000000000000000008c880152518092603788019061445a565b8401917001034b99036b4b9b9b4b733903937b6329607d1b60378401525180938684019061445a565b01036028810187520185614639565b5192839262461bcd60e51b84526004840152602483019061447d565b0390fd5b60648587519062461bcd60e51b825280600483015260248201527f537472696e67733a20686578206c656e67746820696e73756666696369656e746044820152fd5b909192600f81166010811015614ca6576f181899199a1a9b1b9c1cb0b131b232b360811b901a614c7c8588614d8e565b5360041c928015614c9257600019019190614b5a565b634e487b7160e01b82526011600452602482fd5b634e487b7160e01b83526032600452602483fd5b634e487b7160e01b81526032600452602490fd5b60648688519062461bcd60e51b825280600483015260248201527f537472696e67733a20686578206c656e67746820696e73756666696369656e746044820152fd5b90600f81166010811015614d66576f181899199a1a9b1b9c1cb0b131b232b360811b901a614d3e8389614d8e565b5360041c908015614d525760001901614b15565b634e487b7160e01b86526011600452602486fd5b634e487b7160e01b87526032600452602487fd5b634e487b7160e01b85526032600452602485fd5b90815181101561494f570160200190565b906000918083526001602052604083209160018060a01b03169182845260205260ff604084205416614dd057505050565b8083526001602052604083208284526020526040832060ff1981541690557ff6391f5c32d9c69d2a47ea670b442974b53935d1edc7fd64eb21e047a839171b339380a4565b15614e1c57565b60405162461bcd60e51b815260206004820152602f60248201527f416363657373436f6e74726f6c3a2063616e206f6e6c792072656e6f756e636560448201526e103937b632b9903337b91039b2b63360891b6064820152608490fd5b15614e8057565b60405162461bcd60e51b8152602060048201526014602482015273151a595c881b585b9859d95c881b9bdd081cd95d60621b6044820152606490fd5b3d15614ee7573d90614ecd8261473c565b91614edb6040519384614639565b82523d6000602084013e565b606090565b15614ef357565b60405162461bcd60e51b815260206004820152601860248201527f54696572206d616e616765722063616c6c206661696c656400000000000000006044820152606490fd5b81601f820112156104a1578051614f4e8161473c565b92614f5c6040519485614639565b818452602082840101116104a1576144df916020808501910161445a565b519081151582036104a157565b9190916040818403126104a157614f9d81614f7a565b9260208201516001600160401b0381116104a1576144df9201614f38565b919081101561494f5760051b0190565b15614fd257565b60405162461bcd60e51b815260206004820152601a60248201527f546f6f206d616e792070726f6a6563747320696e2062617463680000000000006044820152606490fd5b806000526004602052604060002060ff600e82015460281c1661503981614700565b600381148015615094575b614a605750600781015442101561505c575050600090565b600a0154804210600014615071575050600190565b62015180810180911161490e5742101561508b5750600490565b6144df9061515d565b5061509e81614700565b60028114615044565b600052600560205260406000206001810154600052600460205260406000209060ff600382015460a01c16916150dc83614700565b60028314801561514a575b8015615137575b61513257600a015480421061511c574211615107575090565b6005915001541561511757600190565b600390565b506005015415905061512d57600190565b600090565b505090565b5061514183614700565b600483146150ee565b5061515483614700565b600383146150e7565b6000908152600460205260409020600c01541561511757600290565b1561518057565b60405162461bcd60e51b815260206004820152600e60248201526d098d2dad2e840e8dede40d0d2ced60931b6044820152606490fd5b906151c082614883565b6151cd6040519182614639565b82815280926151de601f1991614883565b0190602036910137565b604051906151f58261461e565b6016825275119d5b991a5b99c81d185c99d95d081b9bdd081b595d60521b6020830152565b604051906152278261461e565b600e82526d141c9bda9958dd0819985a5b195960921b6020830152565b1561524b57565b60405162461bcd60e51b8152602060048201526013602482015272115512081d1c985b9cd9995c8819985a5b1959606a1b6044820152606490fd5b9081526001600160a01b0390911660208201526060604082018190526144df9291019061447d565b60028054146152bd5760028055565b60405162461bcd60e51b815260206004820152601f60248201527f5265656e7472616e637947756172643a207265656e7472616e742063616c6c006044820152606490fd5b919061538c91600080604051936020968786019463a9059cbb60e01b865260018060a01b038093166024880152604487015260448652615341866145e8565b1692604051946153508661461e565b8786527f5361666545524332303a206c6f772d6c6576656c2063616c6c206661696c656488870152519082855af1615386614ebc565b9161541b565b80518281159182156153fc575b50509050156153a55750565b6084906040519062461bcd60e51b82526004820152602a60248201527f5361666545524332303a204552433230206f7065726174696f6e20646964206e6044820152691bdd081cdd58d8d9595960b21b6064820152fd5b83809293500103126104a157816154139101614f7a565b808238615399565b9192901561547d575081511561542f575090565b3b156154385790565b60405162461bcd60e51b815260206004820152601d60248201527f416464726573733a2063616c6c20746f206e6f6e2d636f6e74726163740000006044820152606490fd5b8251909150156154905750805190602001fd5b60405162461bcd60e51b815260206004820152908190614c0690602483019061447d565b604051906154c18261461e565b6013825272139bc81a5b9d995cdd1b595b9d08199bdd5b99606a1b6020830152565b600090815260056020908152604080832060018101548452600483528184206001600160a01b03909516845260088101835281842054919593949082156156545760038101549160ff8360a81c1661560757600a015442116155dd575b5060ff60039160a01c1661555381614700565b1461559257507f50726f6a65637420697320616374697665206f72207375636365737366756c00839451916155878361461e565b601f83528201529190565b9250666573746f6e657360c81b6001947f50726f6a656374206661696c65642064756520746f206d6973736564206d696c8151936155cf856145cd565b602785528401528201529190565b60046005820154910154116155f25738615540565b5092505091506001916156036151e8565b9190565b5050505067081c1c9bda9958dd60c21b83947f46756e647320616c7265616479207265636c61696d656420666f722074686973815193615646856145cd565b602885528401528201529190565b50505050915080916156036154b4565b60009080825260056020526040808320600181015484526004602052818420916008820192338652836020528186205495861580156157a9575b615761578083516156ae81614603565b82815294600a840154421161577d575b60ff60038092015460a01c166156d381614700565b1461576a575b1561576157600361574b927f310dc34e7fd5f84750517cbc81c9ff4789bb9fc5d80772eefd9b1e13f4b79d339633845260205282858120550160018060a01b03918883835416801560001461575057509080808061573c94335af161076b614ebc565b54169151928392339784615286565b0390a3565b61575c92503390615302565b61573c565b50505050505050565b506001935061577761521a565b936156d9565b6005810154600482015411156156be579450506001600360ff8161579f6151e8565b97925050506156be565b5060ff600385015460a81c1661569e565b6000818152600560209081526040808320600181015484526004808452828520600b548451635dbf1c2d60e11b8152928301979097526001600160a01b03978816602483015292979496949593949093859185916044918391165afa92831561596f578693615940575b508215615654576003015460a01c60ff1661583e81614700565b600281146159045761584f81614700565b600381149182156158dc575b505061589257507350726f6a656374207374696c6c2061637469766560601b839451916158878361461e565b601483528201529190565b92506508195b99195960d21b6001947f50726f6a656374206661696c6564206f722066756e64696e6720706572696f648151936158ce856145cd565b602685528401528201529190565b600a015442119150816158f2575b50388061585b565b6158fc9150614700565b6001386158ea565b505050651c9bda9958dd60d21b83947f43616e6e6f74207265636c61696d2066726f6d207375636365737366756c20708151936158ce856145cd565b9092508381813d8311615968575b6159588183614639565b810103126130d157519138615824565b503d61594e565b87513d88823e3d90fd5b1561598057565b60405162461bcd60e51b815260206004820152601560248201527415195c9b5cc81b585b9859d95c881b9bdd081cd95d605a1b6044820152606490fd5b156159c457565b60405162461bcd60e51b815260206004820152601960248201527f5465726d73206d616e616765722063616c6c206661696c6564000000000000006044820152606490fd5b519063ffffffff821682036104a157565b919091610120818403126104a15760405190615a358261457b565b8193815183526020820151906001600160401b03918281116104a15781615a5d918501614f38565b602085015260408301518281116104a15781615a7a918501614f38565b604085015260608301519182116104a157615a96918301614f38565b60608301526080810151608083015260a081015160a0830152615abb60c08201615a09565b60c0830152615acc60e08201615a09565b60e0830152615adf610100809201614f7a565b91015256fea2646970667358221220b2a98a35f0574163c787752fc0eb72e70b8adad1f221212bee4501311520f04464736f6c634300081400332f8788117e7eff1d82e926ec794901d17c78024a50270940304540a733656f0d104852406e94df2c5112860c28c2d2e43c02e322bc0cf95e2d0159faf296d7fba6eef7e35abe7026729641147f7915573c7e97b47efa546f5f6e3230263bcb4987421e189bd94dc1673f0d5255fa9f0cb8ff65bb74e34e0a80b07e9f0b4e34d56eb17d1b9455e9617e6523889e66d60c3ae0518d5d0d2c0e4d8050945d5d80d774f7a545c65c11839a48d7453738b30c295408df2d944516167556759ddc6d06bf233dd2aafeb4d50879c4aa5c81e96d92f6e6945c906a58f9f2d1c1631b4b261614b4e5e0f135c54873c4dcd295a7b40f93a8d877405affc188cfd7b4f40ed265d7a28e3265b37a6474929f336521b332c1681b933f6cb9f3376673440d862a50efbde2d46c37e9785f1791697f77e94bb7b701e19f1930a668820722d37694b9cbbae02fe941283ec0eefd7b121e3bc7f89fae077b27bdd75a7fd4cf1543a8a49807205ce4d355092ef5a8a18f56e8913cf4a201fbe287825b095693c217752b10c9f78f9abf30132df5e378de7d15c271f5cf1be0c9b16fce15578b0e320d261f38ed31dd4bd25aa17975edf3828538749fd9d58ca868b5621243e6fac21f",
  "linkReferences": {},
  "deployedLinkReferences": {}
}