{
  "_format": "hh-sol-artifact-1",
  "contractName": "LdMilestoneManager",
  "sourceName": "contracts/modules/LdMilestoneManager.sol",
  "abi": [
    {
      "inputs": [
        {
          "internalType": "address",
          "name": "_coreContract",
          "type": "address"
        },
        {
          "internalType": "address",
          "name": "_admin",
          "type": "address"
        }
      ],
      "stateMutability": "nonpayable",
      "type": "constructor"
    },
    {
      "inputs": [],
      "name": "EmptyMilestoneTitle",
      "type": "error"
    },
    {
      "inputs": [
        {
          "internalType": "uint256",
          "name": "count",
          "type": "uint256"
        }
      ],
      "name": "InvalidMilestoneCount",
      "type": "error"
    },
    {
      "inputs": [
        {
          "internalType": "uint256",
          "name": "deadline",
          "type": "uint256"
        }
      ],
      "name": "InvalidMilestoneDeadlinePeriod",
      "type": "error"
    },
    {
      "inputs": [
        {
          "internalType": "uint256",
          "name": "index",
          "type": "uint256"
        }
      ],
      "name": "InvalidMilestoneIndex",
      "type": "error"
    },
    {
      "inputs": [
        {
          "internalType": "uint256",
          "name": "percentage",
          "type": "uint256"
        }
      ],
      "name": "InvalidMilestonePercentage",
      "type": "error"
    },
    {
      "inputs": [
        {
          "internalType": "uint256",
          "name": "projectId",
          "type": "uint256"
        }
      ],
      "name": "InvalidProjectId",
      "type": "error"
    },
    {
      "inputs": [
        {
          "internalType": "uint256",
          "name": "total",
          "type": "uint256"
        },
        {
          "internalType": "uint256",
          "name": "expected",
          "type": "uint256"
        }
      ],
      "name": "InvalidTotalPercentage",
      "type": "error"
    },
    {
      "inputs": [
        {
          "internalType": "uint256",
          "name": "count",
          "type": "uint256"
        }
      ],
      "name": "InvalidValidatorCount",
      "type": "error"
    },
    {
      "inputs": [
        {
          "internalType": "uint256",
          "name": "milestoneIndex",
          "type": "uint256"
        }
      ],
      "name": "MilestoneAlreadyApproved",
      "type": "error"
    },
    {
      "inputs": [
        {
          "internalType": "uint256",
          "name": "milestoneIndex",
          "type": "uint256"
        }
      ],
      "name": "MilestoneAlreadyCompleted",
      "type": "error"
    },
    {
      "inputs": [
        {
          "internalType": "uint256",
          "name": "milestoneIndex",
          "type": "uint256"
        }
      ],
      "name": "MilestoneDeadlineExpired",
      "type": "error"
    },
    {
      "inputs": [
        {
          "internalType": "uint256",
          "name": "milestoneIndex",
          "type": "uint256"
        }
      ],
      "name": "MilestoneNotApproved",
      "type": "error"
    },
    {
      "inputs": [
        {
          "internalType": "address",
          "name": "caller",
          "type": "address"
        }
      ],
      "name": "NotAuthorized",
      "type": "error"
    },
    {
      "inputs": [
        {
          "internalType": "address",
          "name": "caller",
          "type": "address"
        }
      ],
      "name": "NotValidator",
      "type": "error"
    },
    {
      "inputs": [
        {
          "internalType": "uint256",
          "name": "count",
          "type": "uint256"
        },
        {
          "internalType": "uint256",
          "name": "max",
          "type": "uint256"
        }
      ],
      "name": "TooManyValidators",
      "type": "error"
    },
    {
      "inputs": [
        {
          "internalType": "address",
          "name": "validator",
          "type": "address"
        }
      ],
      "name": "ValidatorAlreadyExists",
      "type": "error"
    },
    {
      "inputs": [
        {
          "internalType": "address",
          "name": "validator",
          "type": "address"
        }
      ],
      "name": "ValidatorNotExists",
      "type": "error"
    },
    {
      "inputs": [],
      "name": "ZeroAddress",
      "type": "error"
    },
    {
      "anonymous": false,
      "inputs": [
        {
          "indexed": true,
          "internalType": "uint256",
          "name": "projectId",
          "type": "uint256"
        },
        {
          "indexed": true,
          "internalType": "uint256",
          "name": "milestoneIndex",
          "type": "uint256"
        },
        {
          "indexed": true,
          "internalType": "address",
          "name": "validator",
          "type": "address"
        },
        {
          "indexed": false,
          "internalType": "uint256",
          "name": "approvalCount",
          "type": "uint256"
        },
        {
          "indexed": false,
          "internalType": "uint256",
          "name": "requiredApprovals",
          "type": "uint256"
        }
      ],
      "name": "MilestoneApproved",
      "type": "event"
    },
    {
      "anonymous": false,
      "inputs": [
        {
          "indexed": true,
          "internalType": "uint256",
          "name": "projectId",
          "type": "uint256"
        },
        {
          "indexed": true,
          "internalType": "uint256",
          "name": "milestoneIndex",
          "type": "uint256"
        },
        {
          "indexed": false,
          "internalType": "uint256",
          "name": "amount",
          "type": "uint256"
        },
        {
          "indexed": false,
          "internalType": "address",
          "name": "recipient",
          "type": "address"
        }
      ],
      "name": "MilestoneCompleted",
      "type": "event"
    },
    {
      "anonymous": false,
      "inputs": [
        {
          "indexed": true,
          "internalType": "uint256",
          "name": "projectId",
          "type": "uint256"
        },
        {
          "indexed": true,
          "internalType": "uint256",
          "name": "milestoneIndex",
          "type": "uint256"
        },
        {
          "indexed": false,
          "internalType": "string",
          "name": "title",
          "type": "string"
        },
        {
          "indexed": false,
          "internalType": "uint256",
          "name": "percentage",
          "type": "uint256"
        },
        {
          "indexed": false,
          "internalType": "uint256",
          "name": "deadline",
          "type": "uint256"
        }
      ],
      "name": "MilestoneCreated",
      "type": "event"
    },
    {
      "anonymous": false,
      "inputs": [
        {
          "indexed": true,
          "internalType": "uint256",
          "name": "projectId",
          "type": "uint256"
        },
        {
          "indexed": true,
          "internalType": "uint256",
          "name": "milestoneIndex",
          "type": "uint256"
        },
        {
          "indexed": true,
          "internalType": "address",
          "name": "validator",
          "type": "address"
        }
      ],
      "name": "MilestoneRejected",
      "type": "event"
    },
    {
      "anonymous": false,
      "inputs": [
        {
          "indexed": false,
          "internalType": "address",
          "name": "account",
          "type": "address"
        }
      ],
      "name": "Paused",
      "type": "event"
    },
    {
      "anonymous": false,
      "inputs": [
        {
          "indexed": true,
          "internalType": "bytes32",
          "name": "role",
          "type": "bytes32"
        },
        {
          "indexed": true,
          "internalType": "bytes32",
          "name": "previousAdminRole",
          "type": "bytes32"
        },
        {
          "indexed": true,
          "internalType": "bytes32",
          "name": "newAdminRole",
          "type": "bytes32"
        }
      ],
      "name": "RoleAdminChanged",
      "type": "event"
    },
    {
      "anonymous": false,
      "inputs": [
        {
          "indexed": true,
          "internalType": "bytes32",
          "name": "role",
          "type": "bytes32"
        },
        {
          "indexed": true,
          "internalType": "address",
          "name": "account",
          "type": "address"
        },
        {
          "indexed": true,
          "internalType": "address",
          "name": "sender",
          "type": "address"
        }
      ],
      "name": "RoleGranted",
      "type": "event"
    },
    {
      "anonymous": false,
      "inputs": [
        {
          "indexed": true,
          "internalType": "bytes32",
          "name": "role",
          "type": "bytes32"
        },
        {
          "indexed": true,
          "internalType": "address",
          "name": "account",
          "type": "address"
        },
        {
          "indexed": true,
          "internalType": "address",
          "name": "sender",
          "type": "address"
        }
      ],
      "name": "RoleRevoked",
      "type": "event"
    },
    {
      "anonymous": false,
      "inputs": [
        {
          "indexed": false,
          "internalType": "address",
          "name": "account",
          "type": "address"
        }
      ],
      "name": "Unpaused",
      "type": "event"
    },
    {
      "anonymous": false,
      "inputs": [
        {
          "indexed": true,
          "internalType": "uint256",
          "name": "projectId",
          "type": "uint256"
        },
        {
          "indexed": true,
          "internalType": "address",
          "name": "validator",
          "type": "address"
        }
      ],
      "name": "ValidatorAdded",
      "type": "event"
    },
    {
      "anonymous": false,
      "inputs": [
        {
          "indexed": true,
          "internalType": "uint256",
          "name": "projectId",
          "type": "uint256"
        },
        {
          "indexed": true,
          "internalType": "address",
          "name": "validator",
          "type": "address"
        }
      ],
      "name": "ValidatorRemoved",
      "type": "event"
    },
    {
      "inputs": [],
      "name": "ADMIN_ROLE",
      "outputs": [
        {
          "internalType": "bytes32",
          "name": "",
          "type": "bytes32"
        }
      ],
      "stateMutability": "view",
      "type": "function"
    },
    {
      "inputs": [],
      "name": "CORE_CONTRACT_ROLE",
      "outputs": [
        {
          "internalType": "bytes32",
          "name": "",
          "type": "bytes32"
        }
      ],
      "stateMutability": "view",
      "type": "function"
    },
    {
      "inputs": [],
      "name": "DEFAULT_ADMIN_ROLE",
      "outputs": [
        {
          "internalType": "bytes32",
          "name": "",
          "type": "bytes32"
        }
      ],
      "stateMutability": "view",
      "type": "function"
    },
    {
      "inputs": [],
      "name": "MAX_VALIDATORS_PER_PROJECT",
      "outputs": [
        {
          "internalType": "uint256",
          "name": "",
          "type": "uint256"
        }
      ],
      "stateMutability": "view",
      "type": "function"
    },
    {
      "inputs": [],
      "name": "MIN_VALIDATORS_REQUIRED",
      "outputs": [
        {
          "internalType": "uint256",
          "name": "",
          "type": "uint256"
        }
      ],
      "stateMutability": "view",
      "type": "function"
    },
    {
      "inputs": [],
      "name": "PERCENTAGE_BASIS_POINTS",
      "outputs": [
        {
          "internalType": "uint16",
          "name": "",
          "type": "uint16"
        }
      ],
      "stateMutability": "view",
      "type": "function"
    },
    {
      "inputs": [],
      "name": "VALIDATOR_ROLE",
      "outputs": [
        {
          "internalType": "bytes32",
          "name": "",
          "type": "bytes32"
        }
      ],
      "stateMutability": "view",
      "type": "function"
    },
    {
      "inputs": [
        {
          "internalType": "uint256",
          "name": "_projectId",
          "type": "uint256"
        },
        {
          "internalType": "address",
          "name": "_validator",
          "type": "address"
        }
      ],
      "name": "addValidator",
      "outputs": [],
      "stateMutability": "nonpayable",
      "type": "function"
    },
    {
      "inputs": [
        {
          "internalType": "uint256",
          "name": "_projectId",
          "type": "uint256"
        },
        {
          "internalType": "uint256",
          "name": "_milestoneIndex",
          "type": "uint256"
        }
      ],
      "name": "approveMilestone",
      "outputs": [],
      "stateMutability": "nonpayable",
      "type": "function"
    },
    {
      "inputs": [
        {
          "internalType": "uint256",
          "name": "_projectId",
          "type": "uint256"
        }
      ],
      "name": "areAllMilestonesCompleted",
      "outputs": [
        {
          "internalType": "bool",
          "name": "",
          "type": "bool"
        }
      ],
      "stateMutability": "view",
      "type": "function"
    },
    {
      "inputs": [],
      "name": "coreContract",
      "outputs": [
        {
          "internalType": "contract ILdInvestmentCore",
          "name": "",
          "type": "address"
        }
      ],
      "stateMutability": "view",
      "type": "function"
    },
    {
      "inputs": [
        {
          "internalType": "uint256",
          "name": "_projectId",
          "type": "uint256"
        },
        {
          "components": [
            {
              "internalType": "string",
              "name": "title",
              "type": "string"
            },
            {
              "internalType": "string",
              "name": "description",
              "type": "string"
            },
            {
              "internalType": "uint256",
              "name": "percentage",
              "type": "uint256"
            },
            {
              "internalType": "uint256",
              "name": "deadline",
              "type": "uint256"
            }
          ],
          "internalType": "struct ILdInvestmentCore.MilestoneInput[]",
          "name": "_milestones",
          "type": "tuple[]"
        },
        {
          "internalType": "address[]",
          "name": "_validators",
          "type": "address[]"
        }
      ],
      "name": "createMilestones",
      "outputs": [],
      "stateMutability": "nonpayable",
      "type": "function"
    },
    {
      "inputs": [
        {
          "internalType": "uint256",
          "name": "_projectId",
          "type": "uint256"
        },
        {
          "internalType": "uint256",
          "name": "_milestoneIndex",
          "type": "uint256"
        }
      ],
      "name": "executeMilestone",
      "outputs": [],
      "stateMutability": "nonpayable",
      "type": "function"
    },
    {
      "inputs": [],
      "name": "fundingModule",
      "outputs": [
        {
          "internalType": "contract ILdFunding",
          "name": "",
          "type": "address"
        }
      ],
      "stateMutability": "view",
      "type": "function"
    },
    {
      "inputs": [
        {
          "internalType": "uint256",
          "name": "_projectId",
          "type": "uint256"
        }
      ],
      "name": "getAllMilestones",
      "outputs": [
        {
          "components": [
            {
              "internalType": "string",
              "name": "title",
              "type": "string"
            },
            {
              "internalType": "string",
              "name": "description",
              "type": "string"
            },
            {
              "internalType": "uint256",
              "name": "deadline",
              "type": "uint256"
            },
            {
              "internalType": "uint16",
              "name": "percentage",
              "type": "uint16"
            },
            {
              "internalType": "uint16",
              "name": "approvalCount",
              "type": "uint16"
            },
            {
              "internalType": "bool",
              "name": "isApproved",
              "type": "bool"
            },
            {
              "internalType": "bool",
              "name": "isCompleted",
              "type": "bool"
            }
          ],
          "internalType": "struct ILdMilestoneManager.MilestoneData[]",
          "name": "",
          "type": "tuple[]"
        }
      ],
      "stateMutability": "view",
      "type": "function"
    },
    {
      "inputs": [
        {
          "internalType": "uint256",
          "name": "_projectId",
          "type": "uint256"
        }
      ],
      "name": "getMilestoneCount",
      "outputs": [
        {
          "internalType": "uint256",
          "name": "",
          "type": "uint256"
        }
      ],
      "stateMutability": "view",
      "type": "function"
    },
    {
      "inputs": [
        {
          "internalType": "uint256",
          "name": "_projectId",
          "type": "uint256"
        },
        {
          "internalType": "uint256",
          "name": "_milestoneIndex",
          "type": "uint256"
        }
      ],
      "name": "getMilestoneDetails",
      "outputs": [
        {
          "internalType": "string",
          "name": "title",
          "type": "string"
        },
        {
          "internalType": "string",
          "name": "description",
          "type": "string"
        },
        {
          "internalType": "uint256",
          "name": "percentage",
          "type": "uint256"
        },
        {
          "internalType": "uint256",
          "name": "deadline",
          "type": "uint256"
        },
        {
          "internalType": "bool",
          "name": "isApproved",
          "type": "bool"
        },
        {
          "internalType": "bool",
          "name": "isCompleted",
          "type": "bool"
        },
        {
          "internalType": "uint256",
          "name": "approvalCount",
          "type": "uint256"
        }
      ],
      "stateMutability": "view",
      "type": "function"
    },
    {
      "inputs": [
        {
          "internalType": "uint256",
          "name": "_projectId",
          "type": "uint256"
        }
      ],
      "name": "getProjectValidators",
      "outputs": [
        {
          "internalType": "address[]",
          "name": "",
          "type": "address[]"
        }
      ],
      "stateMutability": "view",
      "type": "function"
    },
    {
      "inputs": [
        {
          "internalType": "bytes32",
          "name": "role",
          "type": "bytes32"
        }
      ],
      "name": "getRoleAdmin",
      "outputs": [
        {
          "internalType": "bytes32",
          "name": "",
          "type": "bytes32"
        }
      ],
      "stateMutability": "view",
      "type": "function"
    },
    {
      "inputs": [
        {
          "internalType": "bytes32",
          "name": "role",
          "type": "bytes32"
        },
        {
          "internalType": "address",
          "name": "account",
          "type": "address"
        }
      ],
      "name": "grantRole",
      "outputs": [],
      "stateMutability": "nonpayable",
      "type": "function"
    },
    {
      "inputs": [
        {
          "internalType": "uint256",
          "name": "_projectId",
          "type": "uint256"
        },
        {
          "internalType": "uint256",
          "name": "_milestoneIndex",
          "type": "uint256"
        },
        {
          "internalType": "address",
          "name": "_validator",
          "type": "address"
        }
      ],
      "name": "hasMilestoneApproval",
      "outputs": [
        {
          "internalType": "bool",
          "name": "",
          "type": "bool"
        }
      ],
      "stateMutability": "view",
      "type": "function"
    },
    {
      "inputs": [
        {
          "internalType": "uint256",
          "name": "_projectId",
          "type": "uint256"
        }
      ],
      "name": "hasMissedDeadlines",
      "outputs": [
        {
          "internalType": "bool",
          "name": "",
          "type": "bool"
        }
      ],
      "stateMutability": "view",
      "type": "function"
    },
    {
      "inputs": [
        {
          "internalType": "bytes32",
          "name": "role",
          "type": "bytes32"
        },
        {
          "internalType": "address",
          "name": "account",
          "type": "address"
        }
      ],
      "name": "hasRole",
      "outputs": [
        {
          "internalType": "bool",
          "name": "",
          "type": "bool"
        }
      ],
      "stateMutability": "view",
      "type": "function"
    },
    {
      "inputs": [
        {
          "internalType": "uint256",
          "name": "",
          "type": "uint256"
        },
        {
          "internalType": "address",
          "name": "",
          "type": "address"
        }
      ],
      "name": "isProjectValidator",
      "outputs": [
        {
          "internalType": "bool",
          "name": "",
          "type": "bool"
        }
      ],
      "stateMutability": "view",
      "type": "function"
    },
    {
      "inputs": [
        {
          "internalType": "uint256",
          "name": "_projectId",
          "type": "uint256"
        },
        {
          "internalType": "address",
          "name": "_validator",
          "type": "address"
        }
      ],
      "name": "isValidatorForProject",
      "outputs": [
        {
          "internalType": "bool",
          "name": "",
          "type": "bool"
        }
      ],
      "stateMutability": "view",
      "type": "function"
    },
    {
      "inputs": [],
      "name": "pause",
      "outputs": [],
      "stateMutability": "nonpayable",
      "type": "function"
    },
    {
      "inputs": [],
      "name": "paused",
      "outputs": [
        {
          "internalType": "bool",
          "name": "",
          "type": "bool"
        }
      ],
      "stateMutability": "view",
      "type": "function"
    },
    {
      "inputs": [
        {
          "internalType": "uint256",
          "name": "",
          "type": "uint256"
        },
        {
          "internalType": "uint256",
          "name": "",
          "type": "uint256"
        }
      ],
      "name": "projectMilestones",
      "outputs": [
        {
          "internalType": "string",
          "name": "title",
          "type": "string"
        },
        {
          "internalType": "string",
          "name": "description",
          "type": "string"
        },
        {
          "internalType": "uint256",
          "name": "deadline",
          "type": "uint256"
        },
        {
          "internalType": "uint16",
          "name": "percentage",
          "type": "uint16"
        },
        {
          "internalType": "uint16",
          "name": "approvalCount",
          "type": "uint16"
        },
        {
          "internalType": "uint16",
          "name": "requiredApprovals",
          "type": "uint16"
        },
        {
          "internalType": "bool",
          "name": "isApproved",
          "type": "bool"
        },
        {
          "internalType": "bool",
          "name": "isCompleted",
          "type": "bool"
        }
      ],
      "stateMutability": "view",
      "type": "function"
    },
    {
      "inputs": [
        {
          "internalType": "uint256",
          "name": "",
          "type": "uint256"
        },
        {
          "internalType": "uint256",
          "name": "",
          "type": "uint256"
        }
      ],
      "name": "projectValidators",
      "outputs": [
        {
          "internalType": "address",
          "name": "",
          "type": "address"
        }
      ],
      "stateMutability": "view",
      "type": "function"
    },
    {
      "inputs": [
        {
          "internalType": "uint256",
          "name": "_projectId",
          "type": "uint256"
        },
        {
          "internalType": "address",
          "name": "_validator",
          "type": "address"
        }
      ],
      "name": "removeValidator",
      "outputs": [],
      "stateMutability": "nonpayable",
      "type": "function"
    },
    {
      "inputs": [
        {
          "internalType": "bytes32",
          "name": "role",
          "type": "bytes32"
        },
        {
          "internalType": "address",
          "name": "account",
          "type": "address"
        }
      ],
      "name": "renounceRole",
      "outputs": [],
      "stateMutability": "nonpayable",
      "type": "function"
    },
    {
      "inputs": [
        {
          "internalType": "bytes32",
          "name": "role",
          "type": "bytes32"
        },
        {
          "internalType": "address",
          "name": "account",
          "type": "address"
        }
      ],
      "name": "revokeRole",
      "outputs": [],
      "stateMutability": "nonpayable",
      "type": "function"
    },
    {
      "inputs": [
        {
          "internalType": "address",
          "name": "_fundingModule",
          "type": "address"
        }
      ],
      "name": "setFundingModule",
      "outputs": [],
      "stateMutability": "nonpayable",
      "type": "function"
    },
    {
      "inputs": [
        {
          "internalType": "bytes4",
          "name": "interfaceId",
          "type": "bytes4"
        }
      ],
      "name": "supportsInterface",
      "outputs": [
        {
          "internalType": "bool",
          "name": "",
          "type": "bool"
        }
      ],
      "stateMutability": "view",
      "type": "function"
    },
    {
      "inputs": [],
      "name": "unpause",
      "outputs": [],
      "stateMutability": "nonpayable",
      "type": "function"
    }
  ],
  "bytecode": "0x60a034620002655762002ea190601f38839003908101601f19168201906001600160401b038211838310176200026a578083916040958694855283398101031262000265576200004f8162000280565b906200005f602080920162000280565b600180556002805460ff199081169091556001600160a01b039384169291831580156200025a575b620002495783608052600094858052858452868620911690818652835260ff86862054161562000213575b7fa49807205ce4d355092ef5a8a18f56e8913cf4a201fbe287825b095693c2177590818652858452868620818752845260ff878720541615620001dc575b50507f642c46ab335d3b181002a9ff7422458ab758616f830ebcce9faed69a65e8dbc191828552848152858520848652815260ff868620541615620001a3575b8551612beb90816200029682396080518181816101db0152818161034b01528181610a3801528181610b5c01528181610c4301528181610d23015281816112240152818161142e015281816117f30152818161195301528181611ada01528181611e1201528181611ecf01526121810152f35b828552848152858520908486525260018585209182541617905560008051602062002e81833981519152339380a4388080808062000130565b8186528584528686208187528452868620600184825416179055339160008051602062002e818339815191528780a43880620000f0565b848052848352858520818652835285852060018382541617905533818660008051602062002e818339815191528180a4620000b2565b855163d92e233d60e01b8152600490fd5b508481161562000087565b600080fd5b634e487b7160e01b600052604160045260246000fd5b51906001600160a01b0382168203620002655756fe608080604052600436101561001357600080fd5b60009060e08235811c91826301ffc9a71461228c5750816319840322146122415781631ae6c0ca1461213757816320913da514611ea8578163228667db14611e8c57816322884b0114611de3578163248a9ca314611db75781632958062914611d9b5781632f2ff15d14611ced578163348519fe14611c9257816336568abe14611bff5781633f4ba83a14611b6a578163411c78d514611aab5781634b5617531461190d5781634c371022146117c95781635c975abb146117a6578163691a465c146114085781636a0cd1f5146111de5781636cb0adba1461111f57816375b238fc146110e45781637bbb33eb146110a95781638456cb591461104e578163906488441461102157816391d1485414610fd65781639b21496b14610fb9578163a0b2389b14610cf557508063a217fddf14610cd9578063a2265f8f14610c01578063c2010e5014610b2e578063c49baebe14610af3578063d547741f14610ab3578063e1e7e5ae14610a67578063e80db5db14610a22578063ec0958c4146102f55763fba0b537146101a457600080fd5b346102f257602090816003193601126102f25760405163e935b7b160e01b81526001600160a01b03929060048035919083908290817f000000000000000000000000000000000000000000000000000000000000000089165afa9081156102e75784916102b5575b5081101561029d5782919252600482526040812090604051808484549182815201908194845285842090845b818110610287575050508161024e910382612425565b6040519380850191818652518092526040850193925b8281106102715785850386f35b8351871685529381019392810192600101610264565b8254891684529287019260019283019201610238565b60249060405190633223e66d60e21b82526004820152fd5b90508281813d83116102e0575b6102cc8183612425565b810103126102db57513861020c565b600080fd5b503d6102c2565b6040513d86823e3d90fd5b80fd5b50346102f25760603660031901126102f2576024356001600160401b038111610a1e576103269036906004016124ec565b906044356001600160401b038111610a1a576103469036906004016124ec565b9290917f00000000000000000000000000000000000000000000000000000000000000006001600160a01b03163303610a025781156109e9576001841080156109df575b6109c65790849185915b80831061051f57505050612710808203610501575050825b8281106103b7578380f35b6001600160a01b036103d26103cd838686612a37565b612a47565b16156104ef57600435845260056020818152604086209091906001600160a01b036104016103cd868989612a37565b16600052825260ff604060002054166104c057906104bb929160043587526004825261043e604088206104386103cd868a8a612a37565b90612a5b565b6004358752815260408620906001600160a01b036104606103cd858989612a37565b16600090815291905260409020805460ff191660011790556001600160a01b0361048e6103cd838787612a37565b166004357f7429a06e9412e469f0d64f9d222640b0af359f556b709e2913588c227851b88d8780a36129d4565b6103ac565b60246104d06103cd858888612a37565b60405163164688df60e21b81526001600160a01b039091166004820152fd5b60405163d92e233d60e01b8152600490fd5b6044925060405191636950977d60e11b835260048301526024820152fd5b9091926105366105308584866129e3565b80612a05565b9050156109b457604061054a8584866129e3565b01351561098e5742606061055f8685876129e3565b013511156109685760406105748584866129e3565b0135810180911161095257926004358752600360205260408720805490600160401b82101561093e57906105ad91600182018155612383565b506105bc6105308385876129e3565b906001600160401b03821161086c5781906105d7845461239f565b601f81116108f1575b508a90601f831160011461088b578b92610880575b50508160011b916000199060031b1c19161781555b6106226106188385876129e3565b6020810190612a05565b906001600160401b03821161086c578190610640600185015461239f565b601f811161081c575b508a90601f83116001146107b0578b926107a5575b50508160011b916000199060031b1c19161760018201555b60606106838385876129e3565b0135600282015561ffff604061069a8486886129e3565b0135166003820154906001891160001461078e5760018901891161077a5761077393929160039165ffff0000000060018c0160011c5b60201b169165ffff0000ffff1916171791015580887f7388b0a2d11e0575b753037e87c5c66b795cb79a842ab2cc7dbaae43ff84e7de61071461053084888a6129e3565b92906040610723868a8c6129e3565b01356060610732878b8d6129e3565b013590604051936060855286606086015286608094858701378487018401526020840152604083015260043593601f01601f191682018290030190a36129d4565b9190610394565b634e487b7160e01b8a52601160045260248afd5b61077393929160039165ffff0000000060016106d0565b01359050388061065e565b600185018c5260208c208c9450915b601f1984168510610804576001945083601f198116106107ea575b505050811b016001820155610676565b0135600019600384901b60f8161c191690553880806107da565b818101358355602094850194600190930192016107bf565b909150600184018b5260208b20601f840160051c810160208510610865575b90849392915b601f830160051c82018110610857575050610649565b8d8155859450600101610841565b508061083b565b634e487b7160e01b8a52604160045260248afd5b0135905038806105f5565b848c5260208c208c9450915b601f19841685106108d9576001945083601f198116106108bf575b505050811b01815561060a565b0135600019600384901b60f8161c191690553880806108b2565b81810135835560209485019460019093019201610897565b909150838b5260208b20601f840160051c810160208510610937575b90849392915b601f830160051c820181106109295750506105e0565b8d8155859450600101610913565b508061090d565b634e487b7160e01b89526041600452602489fd5b634e487b7160e01b600052601160045260246000fd5b602460606109778685876129e3565b604051632864600160e21b81529101356004820152fd5b6024604061099d8685876129e3565b6040516304ee7ca560e01b81529101356004820152fd5b6040516331f3500d60e01b8152600490fd5b604051636a48ac6360e01b815260048101859052602490fd5b50600a841161038a565b604051639b7dc90160e01b815260048101869052602490fd5b604051634a0bfec160e01b8152336004820152602490fd5b8380fd5b5080fd5b50346102f257806003193601126102f2576040517f00000000000000000000000000000000000000000000000000000000000000006001600160a01b03168152602090f35b50346102f25760403660031901126102f2576040610a83612325565b9160043581526005602052209060018060a01b0316600052602052602060ff604060002054166040519015158152f35b50346102f25760403660031901126102f257610af0600435610ad3612325565b9080845283602052610aeb6001604086200154612737565b612841565b80f35b50346102f257806003193601126102f25760206040517f21702c8af46127c7fa207f89d0b0a8441bb32959a0ac7df790e9ab1a25c989268152f35b50346102f257602080600319360112610a1e5760405163e935b7b160e01b81526004803593919083908290817f00000000000000000000000000000000000000000000000000000000000000006001600160a01b03165afa908115610bf6578291610bc9575b50831015610bb057604091928152600383522054604051908152f35b604051633223e66d60e21b815260048101849052602490fd5b90508281813d8311610bef575b610be08183612425565b810103126102db575138610b94565b503d610bd6565b6040513d84823e3d90fd5b50346102f25760403660031901126102f25760043590610c1f612325565b60405163e935b7b160e01b815260209391926001600160a01b0392909185816004817f000000000000000000000000000000000000000000000000000000000000000088165afa908115610cce578391610ca1575b5081101561029d5790604091815260058552209116600052815260ff604060002054166040519015158152f35b90508581813d8311610cc7575b610cb88183612425565b810103126102db575138610c74565b503d610cae565b6040513d85823e3d90fd5b50346102f257806003193601126102f257602090604051908152f35b82346102f257602090816003193601126102f25760405163e935b7b160e01b815260048035919084908290817f00000000000000000000000000000000000000000000000000000000000000006001600160a01b03165afa908115610cce578391610f8c575b5081101561029d5781526003908183526040812091825490610d7c82612ac2565b93610d8a6040519586612425565b828552601f19610d9984612ac2565b0186855b828110610f4c57505050835b838110610e6c575050505060405192808401908085528351809252604085018160408460051b880101950193965b838810610de45786860387f35b90919293948380600192603f198a8203018652885190610e1e610e0e83518884528884019061235e565b848401518382038685015261235e565b916040810151604083015261ffff60608181840151169084015260809081830151169083015260a08082015115159083015260c0809101511515910152970193019701969093929193610dd7565b80610e7a610f479284612383565b50610e858285612383565b50846002610e938583612383565b50015487610ea18684612383565b50015461ffff9081169089610eb68886612383565b50015460101c16918d610f0b60018c80610ee68c610ed4818c612383565b5060ff948591015460301c169a612383565b50015460381c1697610f036040519a610efe8c6123d9565b612446565b8a5201612446565b90870152604086015260608501526080840152151560a0830152151560c0820152610f368289612ad9565b52610f418188612ad9565b506129d4565b610da9565b604051610f58816123d9565b87606080835280858401528160408401528201528760808201528760a08201528760c082015282828a010152018790610d9d565b90508381813d8311610fb2575b610fa38183612425565b810103126102db575185610d5b565b503d610f99565b82346102f257806003193601126102f25760206040516127108152f35b82346102f25760403660031901126102f2576040610ff2612325565b91600435815280602052209060018060a01b0316600052602052602060ff604060002054166040519015158152f35b82346102f257806003193601126102f25760025460405160089190911c6001600160a01b03168152602090f35b82346102f257806003193601126102f25761106761251c565b61106f612a7e565b600160ff1960025416176002557f62e78cea01bee320cd4e420270b5ea74000d11b0c9f74754ebdbfc544b05a2586020604051338152a180f35b82346102f257806003193601126102f25760206040517f642c46ab335d3b181002a9ff7422458ab758616f830ebcce9faed69a65e8dbc18152f35b82346102f257806003193601126102f25760206040517fa49807205ce4d355092ef5a8a18f56e8913cf4a201fbe287825b095693c217758152f35b905034610a1e5761112f366122e1565b929081526003602052604081209081548410156102f2575061118f9261115491612383565b5061115e81612446565b9160ff61116d60018401612446565b61119d6003600286015495015491604051978897610100808a5289019061235e565b90878203602089015261235e565b93604086015261ffff8082166060870152808260101c1660808701528160201c1660a0860152818160301c16151560c086015260381c161515908301520390f35b82346102f25760403660031901126102f2576004356111fb612325565b61120361251c565b60405163e935b7b160e01b81526001600160a01b03929060209081816004817f000000000000000000000000000000000000000000000000000000000000000089165afa9081156113fd5786916113d0575b508210156113b75781855260058152836040862093169283600052815260ff604060002054161561139e57818552600481526040852093855b855480821015611392578290866112a5848a6122f7565b939054600394851b1c16146112c45750506112bf906129d4565b61128e565b909394959692916000199182810190811161077a57906112f9846112eb61131894886122f7565b905490891b1c1691866122f7565b90919082549060031b9160018060a01b03809116831b921b1916179055565b8254801561137e57019261132c84846122f7565b81939154921b1b19169055555b8184526005815260408420908360005252604060002060ff1981541690557f7126bef88d1149ccdff9681ed5aecd3ba5ae70c96517551de250af09cebd1a0b8380a380f35b634e487b7160e01b89526031600452602489fd5b50505090919250611339565b60405163958b194b60e01b815260048101849052602490fd5b604051633223e66d60e21b815260048101839052602490fd5b90508181813d83116113f6575b6113e78183612425565b810103126102db575186611255565b503d6113dd565b6040513d88823e3d90fd5b82346102f257611417366122e1565b60405163e935b7b160e01b81526001600160a01b037f000000000000000000000000000000000000000000000000000000000000000081169490939092916020919082816004818a5afa90811561179b57859161176e575b5081101561029d57808452600382526040842054831015611755576002600154146117105760026001556114a1612a7e565b85331415806116ff575b610a02578084526003825260036114c58460408720612383565b50019485549560ff8760301c16156116e65760ff8760381c166116cd579480969760249667010000000000000067ff00000000000000198b1617905560405196878092635f8439e360e01b82528660048301525afa9687156113fd578695879861161f575b5061ffff169687810297818904149015171561160b5783827f3fd4faa7e839405bc31ece9c616e177ce47d8decba5dc29bde1d9254db091e3460406127108a9b9a999a0499858251918c8352168098820152a360025460081c169182611593575b846001805580f35b823b15611607576084928591604051978896879563fde6e7df60e01b875260048701526024860152604485015260648401525af18015610bf6576115dc575b818180808061158b565b6001600160401b0381116115f357604052816115d2565b634e487b7160e01b82526041600452602482fd5b8480fd5b634e487b7160e01b86526011600452602486fd5b955096503d8087873e6116328187612425565b850160c0868203126116c5578551906001600160401b03918281116116c95787019080601f830112156116c957815192831161093e576040519061167f601f8501601f1916880183612425565b8382528684840101116116c95790858061169c949301910161233b565b8285015181811681036116c55760056080604088015197015110156116c557949661ffff61152a565b8680fd5b8880fd5b60405163e44db30960e01b815260048101869052602490fd5b604051632f2e494960e11b815260048101869052602490fd5b508460025460081c163314156114ab565b60405162461bcd60e51b815260048101839052601f60248201527f5265656e7472616e637947756172643a207265656e7472616e742063616c6c006044820152606490fd5b60405163421e466b60e11b815260048101849052602490fd5b90508281813d8311611794575b6117858183612425565b8101031261160757518761146f565b503d61177b565b6040513d87823e3d90fd5b82346102f257806003193601126102f257602060ff600254166040519015158152f35b905034610a1e576117d9366122e1565b60405163e935b7b160e01b815260209491929085816004817f00000000000000000000000000000000000000000000000000000000000000006001600160a01b03165afa908115610cce5783916118dc575b5081101561029d57808252600385526040822054831015611755578160409161185a9493526003865220612383565b50916003830154906118a1600285015491611880600161187988612446565b9701612446565b61189460405197878998895288019061235e565b918683039087015261235e565b9161ffff918282166040860152606085015260ff8160301c161515608085015260ff8160381c16151560a085015260101c1660c08301520390f35b90508581813d8311611906575b6118f38183612425565b8101031261190257513861182b565b8280fd5b503d6118e9565b82346102f25760403660031901126102f25760043561192a612325565b9061193361251c565b60405163e935b7b160e01b81526020906001600160a01b039082816004817f000000000000000000000000000000000000000000000000000000000000000086165afa9081156113fd578691611a7a575b50831015610bb05783169283156104ef578285526005825260408520848652825260ff604086205416611a6157828552600482526040852054600a811015611a2157506119db908386526004835260408620612a5b565b8184526005815260408420908385525260408320600160ff198254161790557f7429a06e9412e469f0d64f9d222640b0af359f556b709e2913588c227851b88d8380a380f35b8560018201809211611a4d57604051632152704b60e01b815260048101839052600a6024820152604490fd5b634e487b7160e01b81526011600452602490fd5b60405163164688df60e21b815260048101859052602490fd5b90508281813d8311611aa4575b611a918183612425565b81010312611aa0575186611984565b8580fd5b503d611a87565b82346102f257602090816003193601126102f25760405163e935b7b160e01b81526004803592919084908290817f00000000000000000000000000000000000000000000000000000000000000006001600160a01b03165afa918215611b5e578092611b2e575b505081101561029d57611b2490612aed565b6040519015158152f35b9091508382813d8311611b57575b611b468183612425565b810103126102f25750518380611b12565b503d611b3c565b604051903d90823e3d90fd5b82346102f257806003193601126102f257611b8361251c565b60025460ff811615611bc35760ff19166002557f5db9ee0a495bf2e6ff9c91a7834c1ba4fdd244a5e8aa4e537bd38aeae4b073aa6020604051338152a180f35b60405162461bcd60e51b815260206004820152601460248201527314185d5cd8589b194e881b9bdd081c185d5cd95960621b6044820152606490fd5b82346102f25760403660031901126102f257611c19612325565b336001600160a01b03821603611c3557610af090600435612841565b60405162461bcd60e51b815260206004820152602f60248201527f416363657373436f6e74726f6c3a2063616e206f6e6c792072656e6f756e636560448201526e103937b632b9903337b91039b2b63360891b6064820152608490fd5b82346102f25760203660031901126102f2576004356001600160a01b03811680820361190257611cc061251c565b156104ef5760028054610100600160a81b03191660089290921b610100600160a81b031691909117905580f35b82346102f25760403660031901126102f257600435611d0a612325565b81835282602052611d216001604085200154612737565b818352602083815260408085206001600160a01b039093168086529290915283205460ff1615611d4f578280f35b818352826020526040832081845260205260408320600160ff1982541617905533917f2f8788117e7eff1d82e926ec794901d17c78024a50270940304540a733656f0d8480a481808280f35b82346102f257806003193601126102f2576020604051600a8152f35b82346102f25760203660031901126102f257600160406020926004358152808452200154604051908152f35b82346102f257602090816003193601126102f25760405163e935b7b160e01b81526004803592919084908290817f00000000000000000000000000000000000000000000000000000000000000006001600160a01b03165afa918215611b5e578092611e5c575b505081101561029d57611b2490612b43565b9091508382813d8311611e85575b611e748183612425565b810103126102f25750518380611e4a565b503d611e6a565b82346102f257806003193601126102f257602060405160018152f35b82346102f257611eb7366122e1565b60405163e935b7b160e01b81526020919082816004817f00000000000000000000000000000000000000000000000000000000000000006001600160a01b03165afa90811561179b57859161210a575b50831015610bb0578284526003825260408420548110156120f2578284526005825260408420338552825260ff60408520541615806120b4575b61209c57611f4d612a7e565b82845260038252611f618160408620612383565b5092600384019360ff855460381c1661208357600481019033875281855260ff60408820541661206a5760020154421161205157338652835260408520600160ff1982541617905583549261ffff90818560101c1682811461203d57600163ffff0000910160101b16938463ffff00001987161792838855808460101c1693831c169384604051938585528401527f29f2854d6c9f96dba2922c70090878465b6a7a89b67537fa382a45244de5b63c60403394a4101561201f578380f35b66010000000000009166ff0000ffff00001916171790558180808380f35b634e487b7160e01b88526011600452602488fd5b60405163038159af60e01b815260048101849052602490fd5b60405163169b9e4960e11b815260048101859052602490fd5b60405163e44db30960e01b815260048101849052602490fd5b604051633b4f6e2b60e21b8152336004820152602490fd5b507fa49807205ce4d355092ef5a8a18f56e8913cf4a201fbe287825b095693c21775845283825260408420338552825260ff60408520541615611f41565b6024906040519063421e466b60e11b82526004820152fd5b90508281813d8311612130575b6121218183612425565b81010312611607575185611f07565b503d612117565b82346102f25760603660031901126102f2576001600160a01b0390604435828116906024359060043590839003610a1a57604051809563e935b7b160e01b825281600460209889937f0000000000000000000000000000000000000000000000000000000000000000165afa90811561179b578591612214575b5081101561029d578084526003855260408420548210156121fb576040926121e7859360049360ff975260038852858520612383565b509083520184522054166040519015158152f35b60405163421e466b60e11b815260048101839052602490fd5b90508581813d831161223a575b61222b8183612425565b810103126116075751866121b1565b503d612221565b82346102f257612250366122e1565b919081526004602052604081209081548310156102f257602061227384846122f7565b905460405160039290921b1c6001600160a01b03168152f35b839034610a1e576020366003190112610a1e5760043563ffffffff60e01b81168091036119025760209250637965db0b60e01b81149081156122d0575b5015158152f35b6301ffc9a760e01b149050836122c9565b60409060031901126102db576004359060243590565b805482101561230f5760005260206000200190600090565b634e487b7160e01b600052603260045260246000fd5b602435906001600160a01b03821682036102db57565b60005b83811061234e5750506000910152565b818101518382015260200161233e565b906020916123778151809281855285808601910161233b565b601f01601f1916010190565b805482101561230f576000526005602060002091020190600090565b90600182811c921680156123cf575b60208310146123b957565b634e487b7160e01b600052602260045260246000fd5b91607f16916123ae565b60e081019081106001600160401b038211176123f457604052565b634e487b7160e01b600052604160045260246000fd5b608081019081106001600160401b038211176123f457604052565b90601f801991011681019081106001600160401b038211176123f457604052565b906040519182600082549261245a8461239f565b9081845260019485811690816000146124c95750600114612486575b505061248492500383612425565b565b9093915060005260209081600020936000915b8183106124b157505061248493508201013880612476565b85548884018501529485019487945091830191612499565b91505061248494506020925060ff191682840152151560051b8201013880612476565b9181601f840112156102db578235916001600160401b0383116102db576020808501948460051b0101116102db57565b3360009081527f7d7ffb7a348e1c6a02869081a26547b49160dd3df72d1d75a570eb9b698292ec602090815260408083205490927fa49807205ce4d355092ef5a8a18f56e8913cf4a201fbe287825b095693c217759160ff16156125805750505050565b612589336128c6565b918451906125968261240a565b6042825284820192606036853782511561272357603084538251906001918210156127235790607860218501536041915b8183116126b55750505061267357604861266f93869361265393612644985198899376020b1b1b2b9b9a1b7b73a3937b61d1030b1b1b7bab73a1604d1b8a86015261261b815180928c60378901910161233b565b8401917001034b99036b4b9b9b4b733903937b6329607d1b60378401525180938684019061233b565b01036028810187520185612425565b5192839262461bcd60e51b84526004840152602483019061235e565b0390fd5b60648486519062461bcd60e51b825280600483015260248201527f537472696e67733a20686578206c656e67746820696e73756666696369656e746044820152fd5b909192600f8116601081101561270f576f181899199a1a9b1b9c1cb0b131b232b360811b901a6126e585876128b5565b5360041c9280156126fb576000190191906125c7565b634e487b7160e01b82526011600452602482fd5b634e487b7160e01b83526032600452602483fd5b634e487b7160e01b81526032600452602490fd5b600090808252602090828252604092838120338252835260ff8482205416156127605750505050565b612769336128c6565b918451906127768261240a565b6042825284820192606036853782511561272357603084538251906001918210156127235790607860218501536041915b8183116127fb5750505061267357604861266f93869361265393612644985198899376020b1b1b2b9b9a1b7b73a3937b61d1030b1b1b7bab73a1604d1b8a86015261261b815180928c60378901910161233b565b909192600f8116601081101561270f576f181899199a1a9b1b9c1cb0b131b232b360811b901a61282b85876128b5565b5360041c9280156126fb576000190191906127a7565b9060009180835282602052604083209160018060a01b03169182845260205260ff60408420541661287157505050565b80835282602052604083208284526020526040832060ff1981541690557ff6391f5c32d9c69d2a47ea670b442974b53935d1edc7fd64eb21e047a839171b339380a4565b90815181101561230f570160200190565b60405190606082018281106001600160401b038211176123f457604052602a825260208201604036823782511561230f5760309053815160019081101561230f57607860218401536029905b8082116129665750506129225790565b606460405162461bcd60e51b815260206004820152602060248201527f537472696e67733a20686578206c656e67746820696e73756666696369656e746044820152fd5b9091600f811660108110156129bf576f181899199a1a9b1b9c1cb0b131b232b360811b901a61299584866128b5565b5360041c9180156129aa576000190190612912565b60246000634e487b7160e01b81526011600452fd5b60246000634e487b7160e01b81526032600452fd5b60001981146109525760010190565b919081101561230f5760051b81013590607e19813603018212156102db570190565b903590601e19813603018212156102db57018035906001600160401b0382116102db576020019181360383136102db57565b919081101561230f5760051b0190565b356001600160a01b03811681036102db5790565b90815491600160401b8310156123f457826112f9916001612484950181556122f7565b60ff60025416612a8a57565b60405162461bcd60e51b815260206004820152601060248201526f14185d5cd8589b194e881c185d5cd95960821b6044820152606490fd5b6001600160401b0381116123f45760051b60200190565b805182101561230f5760209160051b010190565b6000908152600390816020526040812081928154935b848110612b14575050505050600190565b60ff82612b218386612383565b50015460381c1615612b3b57612b36906129d4565b612b03565b505050905090565b60005260038060205260406000206000918154925b838110612b685750505050600090565b60ff82612b758386612383565b50015460381c161580612b9e575b612b9557612b90906129d4565b612b58565b50505050600190565b506002612bab8285612383565b5001544211612b8356fea2646970667358221220b0fa046510d47fd11488cfe49995ad129914ecca802b73cabe1d748a685447a464736f6c634300081400332f8788117e7eff1d82e926ec794901d17c78024a50270940304540a733656f0d",
  "linkReferences": {},
  "deployedLinkReferences": {}
}