{
  "_format": "hh-sol-artifact-1",
  "contractName": "LdTimeLock",
  "sourceName": "contracts/modules/LdTimeLock.sol",
  "abi": [
    {
      "inputs": [
        {
          "internalType": "address",
          "name": "initialOwner",
          "type": "address"
        }
      ],
      "stateMutability": "nonpayable",
      "type": "constructor"
    },
    {
      "anonymous": false,
      "inputs": [
        {
          "indexed": true,
          "internalType": "address",
          "name": "previousOwner",
          "type": "address"
        },
        {
          "indexed": true,
          "internalType": "address",
          "name": "newOwner",
          "type": "address"
        }
      ],
      "name": "OwnershipTransferred",
      "type": "event"
    },
    {
      "anonymous": false,
      "inputs": [
        {
          "indexed": true,
          "internalType": "bytes32",
          "name": "role",
          "type": "bytes32"
        },
        {
          "indexed": true,
          "internalType": "bytes32",
          "name": "previousAdminRole",
          "type": "bytes32"
        },
        {
          "indexed": true,
          "internalType": "bytes32",
          "name": "newAdminRole",
          "type": "bytes32"
        }
      ],
      "name": "RoleAdminChanged",
      "type": "event"
    },
    {
      "anonymous": false,
      "inputs": [
        {
          "indexed": true,
          "internalType": "bytes32",
          "name": "role",
          "type": "bytes32"
        },
        {
          "indexed": true,
          "internalType": "address",
          "name": "account",
          "type": "address"
        },
        {
          "indexed": true,
          "internalType": "address",
          "name": "sender",
          "type": "address"
        }
      ],
      "name": "RoleGranted",
      "type": "event"
    },
    {
      "anonymous": false,
      "inputs": [
        {
          "indexed": true,
          "internalType": "bytes32",
          "name": "role",
          "type": "bytes32"
        },
        {
          "indexed": true,
          "internalType": "address",
          "name": "account",
          "type": "address"
        },
        {
          "indexed": true,
          "internalType": "address",
          "name": "sender",
          "type": "address"
        }
      ],
      "name": "RoleRevoked",
      "type": "event"
    },
    {
      "anonymous": false,
      "inputs": [
        {
          "indexed": true,
          "internalType": "bytes32",
          "name": "operationId",
          "type": "bytes32"
        }
      ],
      "name": "TimeLockOperationCancelled",
      "type": "event"
    },
    {
      "anonymous": false,
      "inputs": [
        {
          "indexed": true,
          "internalType": "bytes32",
          "name": "operationId",
          "type": "bytes32"
        },
        {
          "indexed": true,
          "internalType": "address",
          "name": "target",
          "type": "address"
        },
        {
          "indexed": false,
          "internalType": "uint256",
          "name": "value",
          "type": "uint256"
        },
        {
          "indexed": false,
          "internalType": "bytes",
          "name": "data",
          "type": "bytes"
        }
      ],
      "name": "TimeLockOperationExecuted",
      "type": "event"
    },
    {
      "anonymous": false,
      "inputs": [
        {
          "indexed": true,
          "internalType": "bytes32",
          "name": "operationId",
          "type": "bytes32"
        },
        {
          "indexed": true,
          "internalType": "address",
          "name": "target",
          "type": "address"
        },
        {
          "indexed": false,
          "internalType": "uint256",
          "name": "value",
          "type": "uint256"
        },
        {
          "indexed": false,
          "internalType": "bytes",
          "name": "data",
          "type": "bytes"
        },
        {
          "indexed": false,
          "internalType": "uint256",
          "name": "executeAfter",
          "type": "uint256"
        },
        {
          "indexed": false,
          "internalType": "string",
          "name": "description",
          "type": "string"
        }
      ],
      "name": "TimeLockOperationQueued",
      "type": "event"
    },
    {
      "inputs": [],
      "name": "ADMIN_ROLE",
      "outputs": [
        {
          "internalType": "bytes32",
          "name": "",
          "type": "bytes32"
        }
      ],
      "stateMutability": "view",
      "type": "function"
    },
    {
      "inputs": [],
      "name": "DEFAULT_ADMIN_ROLE",
      "outputs": [
        {
          "internalType": "bytes32",
          "name": "",
          "type": "bytes32"
        }
      ],
      "stateMutability": "view",
      "type": "function"
    },
    {
      "inputs": [],
      "name": "EMERGENCY_ROLE",
      "outputs": [
        {
          "internalType": "bytes32",
          "name": "",
          "type": "bytes32"
        }
      ],
      "stateMutability": "view",
      "type": "function"
    },
    {
      "inputs": [],
      "name": "TIMELOCK_DURATION",
      "outputs": [
        {
          "internalType": "uint256",
          "name": "",
          "type": "uint256"
        }
      ],
      "stateMutability": "view",
      "type": "function"
    },
    {
      "inputs": [
        {
          "internalType": "address",
          "name": "token",
          "type": "address"
        },
        {
          "internalType": "uint256",
          "name": "amount",
          "type": "uint256"
        }
      ],
      "name": "_executeEmergencyWithdraw",
      "outputs": [],
      "stateMutability": "nonpayable",
      "type": "function"
    },
    {
      "inputs": [
        {
          "internalType": "bytes32",
          "name": "_operationId",
          "type": "bytes32"
        }
      ],
      "name": "cancelTimeLockOperation",
      "outputs": [],
      "stateMutability": "nonpayable",
      "type": "function"
    },
    {
      "inputs": [
        {
          "internalType": "bytes32",
          "name": "_operationId",
          "type": "bytes32"
        }
      ],
      "name": "executeTimeLockOperation",
      "outputs": [],
      "stateMutability": "nonpayable",
      "type": "function"
    },
    {
      "inputs": [
        {
          "internalType": "bytes32",
          "name": "role",
          "type": "bytes32"
        }
      ],
      "name": "getRoleAdmin",
      "outputs": [
        {
          "internalType": "bytes32",
          "name": "",
          "type": "bytes32"
        }
      ],
      "stateMutability": "view",
      "type": "function"
    },
    {
      "inputs": [
        {
          "internalType": "bytes32",
          "name": "_operationId",
          "type": "bytes32"
        }
      ],
      "name": "getTimeLockOperation",
      "outputs": [
        {
          "internalType": "address",
          "name": "target",
          "type": "address"
        },
        {
          "internalType": "uint256",
          "name": "value",
          "type": "uint256"
        },
        {
          "internalType": "bytes",
          "name": "data",
          "type": "bytes"
        },
        {
          "internalType": "uint256",
          "name": "executeAfter",
          "type": "uint256"
        },
        {
          "internalType": "bool",
          "name": "executed",
          "type": "bool"
        },
        {
          "internalType": "bool",
          "name": "cancelled",
          "type": "bool"
        },
        {
          "internalType": "string",
          "name": "description",
          "type": "string"
        }
      ],
      "stateMutability": "view",
      "type": "function"
    },
    {
      "inputs": [
        {
          "internalType": "bytes32",
          "name": "role",
          "type": "bytes32"
        },
        {
          "internalType": "address",
          "name": "account",
          "type": "address"
        }
      ],
      "name": "grantRole",
      "outputs": [],
      "stateMutability": "nonpayable",
      "type": "function"
    },
    {
      "inputs": [
        {
          "internalType": "bytes32",
          "name": "role",
          "type": "bytes32"
        },
        {
          "internalType": "address",
          "name": "account",
          "type": "address"
        }
      ],
      "name": "hasRole",
      "outputs": [
        {
          "internalType": "bool",
          "name": "",
          "type": "bool"
        }
      ],
      "stateMutability": "view",
      "type": "function"
    },
    {
      "inputs": [],
      "name": "nextOperationId",
      "outputs": [
        {
          "internalType": "uint256",
          "name": "",
          "type": "uint256"
        }
      ],
      "stateMutability": "view",
      "type": "function"
    },
    {
      "inputs": [],
      "name": "owner",
      "outputs": [
        {
          "internalType": "address",
          "name": "",
          "type": "address"
        }
      ],
      "stateMutability": "view",
      "type": "function"
    },
    {
      "inputs": [
        {
          "internalType": "address",
          "name": "token",
          "type": "address"
        },
        {
          "internalType": "uint256",
          "name": "amount",
          "type": "uint256"
        }
      ],
      "name": "queueEmergencyWithdraw",
      "outputs": [
        {
          "internalType": "bytes32",
          "name": "",
          "type": "bytes32"
        }
      ],
      "stateMutability": "nonpayable",
      "type": "function"
    },
    {
      "inputs": [
        {
          "internalType": "address",
          "name": "_target",
          "type": "address"
        },
        {
          "internalType": "uint256",
          "name": "_value",
          "type": "uint256"
        },
        {
          "internalType": "bytes",
          "name": "_data",
          "type": "bytes"
        },
        {
          "internalType": "string",
          "name": "_description",
          "type": "string"
        }
      ],
      "name": "queueTimeLockOperation",
      "outputs": [
        {
          "internalType": "bytes32",
          "name": "",
          "type": "bytes32"
        }
      ],
      "stateMutability": "nonpayable",
      "type": "function"
    },
    {
      "inputs": [],
      "name": "renounceOwnership",
      "outputs": [],
      "stateMutability": "nonpayable",
      "type": "function"
    },
    {
      "inputs": [
        {
          "internalType": "bytes32",
          "name": "role",
          "type": "bytes32"
        },
        {
          "internalType": "address",
          "name": "account",
          "type": "address"
        }
      ],
      "name": "renounceRole",
      "outputs": [],
      "stateMutability": "nonpayable",
      "type": "function"
    },
    {
      "inputs": [
        {
          "internalType": "bytes32",
          "name": "role",
          "type": "bytes32"
        },
        {
          "internalType": "address",
          "name": "account",
          "type": "address"
        }
      ],
      "name": "revokeRole",
      "outputs": [],
      "stateMutability": "nonpayable",
      "type": "function"
    },
    {
      "inputs": [
        {
          "internalType": "bytes4",
          "name": "interfaceId",
          "type": "bytes4"
        }
      ],
      "name": "supportsInterface",
      "outputs": [
        {
          "internalType": "bool",
          "name": "",
          "type": "bool"
        }
      ],
      "stateMutability": "view",
      "type": "function"
    },
    {
      "inputs": [
        {
          "internalType": "bytes32",
          "name": "",
          "type": "bytes32"
        }
      ],
      "name": "timeLockOperations",
      "outputs": [
        {
          "internalType": "bytes32",
          "name": "operationId",
          "type": "bytes32"
        },
        {
          "internalType": "address",
          "name": "target",
          "type": "address"
        },
        {
          "internalType": "bool",
          "name": "executed",
          "type": "bool"
        },
        {
          "internalType": "bool",
          "name": "cancelled",
          "type": "bool"
        },
        {
          "internalType": "bytes",
          "name": "data",
          "type": "bytes"
        },
        {
          "internalType": "uint256",
          "name": "value",
          "type": "uint256"
        },
        {
          "internalType": "uint256",
          "name": "executeAfter",
          "type": "uint256"
        },
        {
          "internalType": "string",
          "name": "description",
          "type": "string"
        }
      ],
      "stateMutability": "view",
      "type": "function"
    },
    {
      "inputs": [
        {
          "internalType": "address",
          "name": "newOwner",
          "type": "address"
        }
      ],
      "name": "transferOwnership",
      "outputs": [],
      "stateMutability": "nonpayable",
      "type": "function"
    },
    {
      "stateMutability": "payable",
      "type": "receive"
    }
  ],
  "bytecode": "0x6080346200020d57601f6200227638819003918201601f1916830192916001600160401b038411838510176200021257808392604095865283396020928391810103126200020d5751906001600160a01b0382168083036200020d57620000663362000228565b620000776001938460025562000228565b600092838052808352848420828552835260ff858520541615620001d6575b807fa49807205ce4d355092ef5a8a18f56e8913cf4a201fbe287825b095693c2177593848652818152868620848752815260ff8787205416156200019f575b7fbf233dd2aafeb4d50879c4aa5c81e96d92f6e6945c906a58f9f2d1c1631b4b2693848752828252878720818852825260ff88882054161562000167575b508486525283818682200181815491557fbd79b86ffe0ab8e8776151514217cd7cacd52c909f66475c3af44e129f0b00ff94858380a4818452848420019183835493558380a451611fe69081620002708239f35b8487528282528787208188528252878720805460ff191684179055339085600080516020620022568339815191528980a43862000113565b8486528181528686208487528152868620805460ff191683179055338486600080516020620022568339815191528980a4620000d5565b8380528083528484208285528352848420805460ff191682179055338285600080516020620022568339815191528180a462000096565b600080fd5b634e487b7160e01b600052604160045260246000fd5b600080546001600160a01b039283166001600160a01b03198216811783559216907f8be0079c531659141344cd1fd0a4f28419497f9722a3daafe3b4186f6b6457e09080a356fe608080604052600436101561001d575b50361561001b57600080fd5b005b60e0600035811c91826301ffc9a7146116d25750816304a42ddf146112935781630f5ee9041461115a57816320df43591461111f578163248a9ca3146110f05781632f2ff15d1461103d57816333d30c0b14610f8257816336568abe14610ef05781633f792a9014610e205781634623c81e14610e02578163715018a614610da957816375b238fc14610d6e57816384e0f2ad14610a6d5781638da5cb5b14610a4457816391d14854146109f7578163a217fddf146109db578163afce91371461090a578163aff10e90146108ec578163d547741f146108ad578163d9ee8763146101e1575063f2fde38b14610113573861000f565b346101dc5760203660031901126101dc5761012c611725565b610134611caa565b6001600160a01b0390811690811561018857600054826bffffffffffffffffffffffff60a01b821617600055167f8be0079c531659141344cd1fd0a4f28419497f9722a3daafe3b4186f6b6457e0600080a3005b60405162461bcd60e51b815260206004820152602660248201527f4f776e61626c653a206e6577206f776e657220697320746865207a65726f206160448201526564647265737360d01b6064820152608490fd5b600080fd5b346101dc5760403660031901126101dc576101fa611725565b3360009081527f1614b4e5e0f135c54873c4dcd295a7b40f93a8d877405affc188cfd7b4f40ed26020526040902054909160249182359060ff161561085d576040516303d7ba4160e21b60208201526001600160a01b039094168385018190526044808601839052855290608085016001600160401b038111868210176106e15760405261028790611eb6565b9060405161029481611783565b601081526f181899199a1a9b1b9c1cb0b131b232b360811b602082015260405190606082018281106001600160401b0382111761084857604052602a8252602082019260403685378251156108335760308453825160011015610833576078602184015360005b601481106107425750505061036a939261037992603d9260405196879372022b6b2b933b2b731bc903bb4ba34323930bb9606d1b6020860152610348815180926020603389019101611811565b8401916901037b3103a37b5b2b7160b51b603384015251809386840190611811565b0103601d81018552018361179e565b6000546001600160a01b03163314801561070a575b61039790611d29565b6004546103a381611d75565b6004556040516103ea8160208101933085526000604083015260a060608301526103d060c083018a611834565b9042608084015260a083015203601f19810183528261179e565b5190209262015180420142116106f6576040519161040783611751565b8483523060208085019182526000604080870182815260608801838152608089018c905260a0808a0185905242620151800160c08b0152878a018b90528b85526003909552919092208751815593516001850180549351925192151590941b60ff60a01b166001600160a01b039091166001600160b01b0319909316929092179190911790151560a81b60ff60a81b1617905560808401518051906001600160401b0382116106e1576104ca826104c16002860154611859565b60028601611d9a565b602090601f831160011461066e57600593929160009183610663575b50508160011b916000199060031b1c19161760028201555b60a0850151600382015560c08501516004820155019201518051916001600160401b03831161064f5750918185936105436020989461053d8554611859565b85611d9a565b8790601f83116001146105d25791806105a29492600080516020611f9183398151915296946000926105c7575b50508160011b916000199060031b1c19161790555b6105bc6040519283926000845260808a8501526080840190611834565b620151804201604084015282810360608401523096611834565b0390a3604051908152f35b015190508a80610570565b90601f1983169184600052896000209260005b8181106106355750926001928592600080516020611f9183398151915298966105a298961061061c575b505050811b019055610585565b015160001960f88460031b161c191690558a808061060f565b8284015185558a9850600190940193928b01928b016105e5565b634e487b7160e01b60009081526041600452fd5b015190508a806104e6565b906002840160005260206000209160005b601f19851681106106c9575091839160019360059695601f198116106106b0575b505050811b0160028201556104fe565b015160001960f88460031b161c191690558a80806106a0565b9192602060018192868501518155019401920161067f565b84634e487b7160e01b60005260416004526000fd5b634e487b7160e01b60009081526011600452fd5b503360009081527f50efbde2d46c37e9785f1791697f77e94bb7b701e19f1930a668820722d37694602052604090205460ff1661038e565b600c810180821161081e5760208110156108095782901a6001600160f81b0319600f81610775600485901c831688611d02565b5116928460011b936002908686048214871517156107f4578582018092116107f457906107ab6107b394939260001a918b611d02565b531686611d02565b511660039182018092116107df57906107d46107da939260001a9187611d02565b53611d75565b6102fb565b89634e487b7160e01b60005260116004526000fd5b8d634e487b7160e01b60005260116004526000fd5b88634e487b7160e01b60005260326004526000fd5b88634e487b7160e01b60005260116004526000fd5b86634e487b7160e01b60005260326004526000fd5b86634e487b7160e01b60005260416004526000fd5b60405162461bcd60e51b8152602060048201526023818501527f43616c6c657220646f6573206e6f74206861766520656d657267656e637920726044820152626f6c6560e81b6064820152608490fd5b346101dc5760403660031901126101dc5761001b6004356108cc61173b565b908060005260016020526108e7600160406000200154611929565b611c34565b346101dc5760003660031901126101dc576020600454604051908152f35b346101dc5760203660031901126101dc57600435610926611caa565b8060005260036020526001604060002061094281541515611dee565b01805461095560ff8260a01c1615611e3a565b60ff8160a81c166109965760ff60a81b1916600160a81b1790557f49eb889ec42975875afbfc283cc74fa5f01f6f1a350a6919a8a155c1138cb281600080a2005b60405162461bcd60e51b815260206004820152601b60248201527f4f7065726174696f6e20616c72656164792063616e63656c6c656400000000006044820152606490fd5b346101dc5760003660031901126101dc57602060405160008152f35b346101dc5760403660031901126101dc57610a1061173b565b600435600052600160205260406000209060018060a01b0316600052602052602060ff604060002054166040519015158152f35b346101dc5760003660031901126101dc576000546040516001600160a01b039091168152602090f35b346101dc5760203660031901126101dc576000546001600160a01b031633148015610d36575b610a9c90611d29565b6002805414610cf1576002805560043560005260036020526040600020610ac581541515611dee565b6001810154610ada60ff8260a01c1615611e3a565b60ff8160a81c16610cac5760048201544210610c5b5760ff60a01b198116600160a01b17600183015560038201546040516002840154909190600090610b1f81611859565b9060018116908115610c455750600114610c0d575b5060009384939182900392906001600160a01b03165af1610b53611e86565b5015610bb95760018060a01b03600182015416907f3de8e9914da2d4e8eb8c4b5f9d79c45505a1a328526fbf22409b3953e5703c1e60038201546040519081526040602082015280610baf600435946002604084019101611893565b0390a36001600255005b60405162461bcd60e51b815260206004820152602660248201527f54696d652d6c6f636b6564206f7065726174696f6e20657865637574696f6e2060448201526519985a5b195960d21b6064820152608490fd5b90506002850160005260206000206000905b828210610c3157505082016000610b34565b600181602092548488015201910190610c1f565b60ff191685525080151502830190506000610b34565b60405162461bcd60e51b815260206004820152602360248201527f4f7065726174696f6e207374696c6c20696e2074696d652d6c6f636b207065726044820152621a5bd960ea1b6064820152608490fd5b60405162461bcd60e51b815260206004820152601760248201527f4f7065726174696f6e207761732063616e63656c6c65640000000000000000006044820152606490fd5b60405162461bcd60e51b815260206004820152601f60248201527f5265656e7472616e637947756172643a207265656e7472616e742063616c6c006044820152606490fd5b503360009081527f50efbde2d46c37e9785f1791697f77e94bb7b701e19f1930a668820722d37694602052604090205460ff16610a93565b346101dc5760003660031901126101dc5760206040517fa49807205ce4d355092ef5a8a18f56e8913cf4a201fbe287825b095693c217758152f35b346101dc5760003660031901126101dc57610dc2611caa565b600080546001600160a01b0319811682556001600160a01b03167f8be0079c531659141344cd1fd0a4f28419497f9722a3daafe3b4186f6b6457e08280a3005b346101dc5760003660031901126101dc576020604051620151808152f35b346101dc5760203660031901126101dc5760043560005260036020526040600020610eec815491600560018201549460405192610e6b84610e648160028501611893565b038561179e565b610ed5600382015494610e94600484015493610e8d6040518098819301611893565b038661179e565b60ff604051998a998a5260018060a01b03811660208b0152818160a01c16151560408b015260a81c16151560608901526101008060808a0152880190611834565b9360a087015260c086015284830390850152611834565b0390f35b346101dc5760403660031901126101dc57610f0961173b565b336001600160a01b03821603610f255761001b90600435611c34565b60405162461bcd60e51b815260206004820152602f60248201527f416363657373436f6e74726f6c3a2063616e206f6e6c792072656e6f756e636560448201526e103937b632b9903337b91039b2b63360891b6064820152608490fd5b346101dc5760203660031901126101dc5760043560005260036020526040600020610eec600182015491600560ff600383015494611012600485015494610fee60405191610fde83610fd78160028501611893565b038461179e565b610e8d6040518098819301611893565b60405198899860018060a01b0385168a5260208a01528060408a0152880190611834565b936060870152818160a01c161515608087015260a81c16151560a085015283820360c0850152611834565b346101dc5760403660031901126101dc5760043561105961173b565b816000526001602052611073600160406000200154611929565b81600052600160205260406000209060018060a01b0316908160005260205260ff60406000205416156110a257005b8160005260016020526040600020816000526020526040600020600160ff1982541617905533917f2f8788117e7eff1d82e926ec794901d17c78024a50270940304540a733656f0d600080a4005b346101dc5760203660031901126101dc5760043560005260016020526020600160406000200154604051908152f35b346101dc5760003660031901126101dc5760206040517fbf233dd2aafeb4d50879c4aa5c81e96d92f6e6945c906a58f9f2d1c1631b4b268152f35b346101dc5760403660031901126101dc57611173611725565b30330361124e576001600160a01b039081166111e357600080808093602435908254165af16111a0611e86565b50156111a857005b60405162461bcd60e51b8152602060048201526013602482015272115512081d1c985b9cd9995c8819985a5b1959606a1b6044820152606490fd5b60405162461bcd60e51b815260206004820152603b60248201527f455243323020656d657267656e6379207769746864726177206e6f7420696d7060448201527f6c656d656e74656420696e2074696d656c6f636b206d6f64756c6500000000006064820152608490fd5b60405162461bcd60e51b815260206004820152601e60248201527f43616e206f6e6c792062652063616c6c65642062792074696d656c6f636b00006044820152606490fd5b346101dc5760803660031901126101dc576112ac611725565b604435916001600160401b0383116101dc57366023840112156101dc576112de602493369085816004013591016117da565b906064356001600160401b0381116101dc57366023820112156101dc5761130e90369086816004013591016117da565b9160018060a01b03600054163314801561169a575b61132c90611d29565b60045461133881611d75565b60045560405161136d81602081019360018060a01b03891685528935604083015260a060608301526103d060c0830187611834565b519020936201518042014211611685576040519261138a84611751565b8584526001600160a01b0382811660208087019182526000604080890182815260608a0183815260808b018a81528e3560a0808e019190915242620151800160c08e0152898d018e90528e86526003909652929093208a51815594516001860180549251945194151590951b60ff60a01b1696166001600160b01b0319909116179490941790151560a81b60ff60a81b161790559490518051906001600160401b03821161167057819061144e8261144560028b0154611859565b60028b01611d9a565b602090601f83116001146115fe576000926115f3575b50508160011b916000199060031b1c19161760028601555b60a0810151600386015560c0810151600486015501518051906001600160401b0382116115de5791818794936114c560209a946114bc60058a0154611859565b60058a01611d9a565b8990601f831160011461155657826105bc9493600080516020611f9183398151915298999360059360009261154b575b50508160011b916000199060031b1c1916179101555b61152760405194859435855260808b8601526080850190611834565b426201518001604085015283810360608501526001600160a01b0390911696611834565b015190508d806114f5565b600588939298016000528a6000209060005b601f19841681106115c4575082600592600080516020611f91833981519152999a6001936105bc989796601f198116106115ab575b505050811b0191015561150b565b015160001960f88460031b161c191690558d808061159d565b818a01518355988c01988b98506001909201918c01611568565b87634e487b7160e01b60005260416004526000fd5b015190508a80611464565b9250600288016000526020600020906000935b601f1984168510611655576001945083601f1981161061163c575b505050811b01600286015561147c565b015160001960f88460031b161c191690558a808061162c565b81810151835560209485019460019093019290910190611611565b89634e487b7160e01b60005260416004526000fd5b85634e487b7160e01b60005260116004526000fd5b503360009081527f50efbde2d46c37e9785f1791697f77e94bb7b701e19f1930a668820722d37694602052604090205460ff16611323565b346101dc5760203660031901126101dc576004359063ffffffff60e01b82168092036101dc57602091637965db0b60e01b8114908115611714575b5015158152f35b6301ffc9a760e01b1490508361170d565b600435906001600160a01b03821682036101dc57565b602435906001600160a01b03821682036101dc57565b61010081019081106001600160401b0382111761176d57604052565b634e487b7160e01b600052604160045260246000fd5b604081019081106001600160401b0382111761176d57604052565b90601f801991011681019081106001600160401b0382111761176d57604052565b6001600160401b03811161176d57601f01601f191660200190565b9291926117e6826117bf565b916117f4604051938461179e565b8294818452818301116101dc578281602093846000960137010152565b60005b8381106118245750506000910152565b8181015183820152602001611814565b9060209161184d81518092818552858086019101611811565b601f01601f1916010190565b90600182811c92168015611889575b602083101461187357565b634e487b7160e01b600052602260045260246000fd5b91607f1691611868565b90600092918054916118a483611859565b91828252600193848116908160001461190657506001146118c6575b50505050565b90919394506000526020928360002092846000945b8386106118f25750505050010190388080806118c0565b8054858701830152940193859082016118db565b9294505050602093945060ff191683830152151560051b010190388080806118c0565b60008181526001602091818352604093848220338352845260ff858320541615611954575050505050565b3385519360608501926001600160401b039386811085821117611b60578852602a86528686019288368537865115611c2057603084538651831015611c20576078602188015360295b838111611bb65750611b745790875193608085019085821090821117611b6057885260428452868401946060368737845115611b4c57603086538451821015611b4c5790607860218601536041915b818311611ade57505050611a9c57611a98938693611a7c93611a6d604894611a449a519a8b957f416363657373436f6e74726f6c3a206163636f756e74200000000000000000008c8801525180926037880190611811565b8401917001034b99036b4b9b9b4b733903937b6329607d1b603784015251809386840190611811565b0103602881018752018561179e565b5192839262461bcd60e51b845260048401526024830190611834565b0390fd5b60648587519062461bcd60e51b825280600483015260248201527f537472696e67733a20686578206c656e67746820696e73756666696369656e746044820152fd5b909192600f81166010811015611b38576f181899199a1a9b1b9c1cb0b131b232b360811b901a611b0e8588611d02565b5360041c928015611b24576000190191906119ec565b634e487b7160e01b82526011600452602482fd5b634e487b7160e01b83526032600452602483fd5b634e487b7160e01b81526032600452602490fd5b634e487b7160e01b86526041600452602486fd5b60648789519062461bcd60e51b825280600483015260248201527f537472696e67733a20686578206c656e67746820696e73756666696369656e746044820152fd5b90600f81166010811015611c0c576f181899199a1a9b1b9c1cb0b131b232b360811b901a611be4838a611d02565b5360041c908015611bf8576000190161199d565b634e487b7160e01b87526011600452602487fd5b634e487b7160e01b88526032600452602488fd5b634e487b7160e01b86526032600452602486fd5b906000918083526001602052604083209160018060a01b03169182845260205260ff604084205416611c6557505050565b8083526001602052604083208284526020526040832060ff1981541690557ff6391f5c32d9c69d2a47ea670b442974b53935d1edc7fd64eb21e047a839171b339380a4565b6000546001600160a01b03163303611cbe57565b606460405162461bcd60e51b815260206004820152602060248201527f4f776e61626c653a2063616c6c6572206973206e6f7420746865206f776e65726044820152fd5b908151811015611d13570160200190565b634e487b7160e01b600052603260045260246000fd5b15611d3057565b60405162461bcd60e51b815260206004820152601c60248201527f43616c6c6572206973206e6f74206f776e6572206f722061646d696e000000006044820152606490fd5b6000198114611d845760010190565b634e487b7160e01b600052601160045260246000fd5b90601f8111611da857505050565b600091825260208220906020601f850160051c83019410611de4575b601f0160051c01915b828110611dd957505050565b818155600101611dcd565b9092508290611dc4565b15611df557565b60405162461bcd60e51b815260206004820152601860248201527f4f7065726174696f6e20646f6573206e6f7420657869737400000000000000006044820152606490fd5b15611e4157565b60405162461bcd60e51b815260206004820152601a60248201527f4f7065726174696f6e20616c72656164792065786563757465640000000000006044820152606490fd5b3d15611eb1573d90611e97826117bf565b91611ea5604051938461179e565b82523d6000602084013e565b606090565b8015611f725780816000925b611f5e575080611ed1836117bf565b92611edf604051948561179e565b808452601f19611eee826117bf565b01366020860137915b611f0057505090565b6000198201918211611d845781600a9182810492808402908482041484151715611d84578103908111611d845760ff809116603001908111611d845760f81b6001600160f81b03191660001a90611f579085611d02565b5380611ef7565b91611f6a600a91611d75565b920480611ec2565b50604051611f7f81611783565b60018152600360fc1b60208201529056fe5e87f815a1fa989b37961579b33eb8ce8fb2011844e36d70f2a27ecf645f9df7a2646970667358221220e323df3db206ba3394876ad64c8167a9c52da94d8bff0f96b343d7370a9b9c0f64736f6c634300081400332f8788117e7eff1d82e926ec794901d17c78024a50270940304540a733656f0d",
  "linkReferences": {},
  "deployedLinkReferences": {}
}